{
  "_format": "hh-sol-artifact-1",
  "contractName": "XXXFactory",
  "sourceName": "contracts/XXXFactory.sol",
  "abi": [
    {
      "inputs": [],
      "stateMutability": "nonpayable",
      "type": "constructor"
    },
    {
      "anonymous": false,
      "inputs": [
        {
          "indexed": true,
          "internalType": "address",
          "name": "oldOwner",
          "type": "address"
        },
        {
          "indexed": true,
          "internalType": "address",
          "name": "newOwner",
          "type": "address"
        }
      ],
      "name": "OwnerChanged",
      "type": "event"
    },
    {
      "inputs": [
        {
          "internalType": "address",
          "name": "fund",
          "type": "address"
        }
      ],
      "name": "addInvestorFundList",
      "outputs": [],
      "stateMutability": "nonpayable",
      "type": "function"
    },
    {
      "inputs": [
        {
          "internalType": "address",
          "name": "_token",
          "type": "address"
        }
      ],
      "name": "addWhiteListToken",
      "outputs": [],
      "stateMutability": "nonpayable",
      "type": "function"
    },
    {
      "inputs": [
        {
          "internalType": "address",
          "name": "manager",
          "type": "address"
        }
      ],
      "name": "createFund",
      "outputs": [
        {
          "internalType": "address",
          "name": "fund",
          "type": "address"
        }
      ],
      "stateMutability": "nonpayable",
      "type": "function"
    },
    {
      "inputs": [
        {
          "internalType": "address",
          "name": "",
          "type": "address"
        },
        {
          "internalType": "uint256",
          "name": "",
          "type": "uint256"
        }
      ],
      "name": "getFundByInvestor",
      "outputs": [
        {
          "internalType": "address",
          "name": "",
          "type": "address"
        }
      ],
      "stateMutability": "view",
      "type": "function"
    },
    {
      "inputs": [
        {
          "internalType": "address",
          "name": "",
          "type": "address"
        }
      ],
      "name": "getFundByManager",
      "outputs": [
        {
          "internalType": "address",
          "name": "",
          "type": "address"
        }
      ],
      "stateMutability": "view",
      "type": "function"
    },
    {
      "inputs": [
        {
          "internalType": "address",
          "name": "",
          "type": "address"
        }
      ],
      "name": "getFundCountByInvestor",
      "outputs": [
        {
          "internalType": "uint256",
          "name": "",
          "type": "uint256"
        }
      ],
      "stateMutability": "view",
      "type": "function"
    },
    {
      "inputs": [
        {
          "internalType": "address",
          "name": "investor",
          "type": "address"
        }
      ],
      "name": "getInvestorFundList",
      "outputs": [
        {
          "internalType": "address[]",
          "name": "",
          "type": "address[]"
        }
      ],
      "stateMutability": "view",
      "type": "function"
    },
    {
      "inputs": [],
      "name": "getManagerFee",
      "outputs": [
        {
          "internalType": "uint256",
          "name": "",
          "type": "uint256"
        }
      ],
      "stateMutability": "view",
      "type": "function"
    },
    {
      "inputs": [],
      "name": "getSwapRouterAddress",
      "outputs": [
        {
          "internalType": "address",
          "name": "",
          "type": "address"
        }
      ],
      "stateMutability": "view",
      "type": "function"
    },
    {
      "inputs": [],
      "name": "getWhiteListTokens",
      "outputs": [
        {
          "internalType": "address[]",
          "name": "",
          "type": "address[]"
        }
      ],
      "stateMutability": "view",
      "type": "function"
    },
    {
      "inputs": [
        {
          "internalType": "address",
          "name": "investor",
          "type": "address"
        },
        {
          "internalType": "address",
          "name": "fund",
          "type": "address"
        }
      ],
      "name": "isInvestorFundExist",
      "outputs": [
        {
          "internalType": "bool",
          "name": "",
          "type": "bool"
        }
      ],
      "stateMutability": "view",
      "type": "function"
    },
    {
      "inputs": [
        {
          "internalType": "address",
          "name": "_token",
          "type": "address"
        }
      ],
      "name": "isWhiteListToken",
      "outputs": [
        {
          "internalType": "bool",
          "name": "",
          "type": "bool"
        }
      ],
      "stateMutability": "view",
      "type": "function"
    },
    {
      "inputs": [],
      "name": "owner",
      "outputs": [
        {
          "internalType": "address",
          "name": "",
          "type": "address"
        }
      ],
      "stateMutability": "view",
      "type": "function"
    },
    {
      "inputs": [
        {
          "internalType": "address",
          "name": "_token",
          "type": "address"
        }
      ],
      "name": "removeWhiteListToken",
      "outputs": [],
      "stateMutability": "nonpayable",
      "type": "function"
    },
    {
      "inputs": [
        {
          "internalType": "uint256",
          "name": "_managerFee",
          "type": "uint256"
        }
      ],
      "name": "setManagerFee",
      "outputs": [],
      "stateMutability": "nonpayable",
      "type": "function"
    },
    {
      "inputs": [
        {
          "internalType": "address",
          "name": "_owner",
          "type": "address"
        }
      ],
      "name": "setOwner",
      "outputs": [],
      "stateMutability": "nonpayable",
      "type": "function"
    },
    {
      "inputs": [
        {
          "internalType": "address",
          "name": "_swapRouterAddress",
          "type": "address"
        }
      ],
      "name": "setSwapRouterAddress",
      "outputs": [],
      "stateMutability": "nonpayable",
      "type": "function"
    }
  ],
  "bytecode": "0x6080604052600180546001600160a01b0319167368b3465833fb72a70ecdf485e0e4c7bd8665fc45178155600281905560075534801561003e57600080fd5b50600080546001600160a01b0319163390811782556040519091907fb532073b38c83145e3e5135377a08bf9aab55bc0fd7c1179cd4fb995d2a5159c908290a3600380546001818101835560008390527fc2575a0e9e593c00f959f8c92f12db2869c3395a3b0502d05e2516446f71f85b91820180546001600160a01b031990811673c02aaa39b223fe8d0a0e5c4f27ead9083c756cc2179091558354808301855583018054821673c778417e063141139fce010982780140aa0cd5ab17905583548083018555830180548216732260fac5e5542a773aa44fbcfedf7c193bc2c5991790558354808301855583018054821673a0b86991c6218b36c1d19d4a2e9eb0ce3606eb4817905583548083018555830180548216736b175474e89094c44da98b954eedeac495271d0f17905583548083018555830180548216731f9840a85d5af5bf1d1762f925bdaddc4201f984179055835491820190935501805490911673eae906dc299ccd9cd94584377d0f96ce144c942f17905561400a806101c76000396000f3fe608060405234801561001057600080fd5b506004361061011a5760003560e01c8063827a5a25116100b2578063d7772da211610081578063e3d8b3f611610066578063e3d8b3f614610247578063f217c9291461025a578063f5c8ba931461026d5761011a565b8063d7772da214610214578063df4f1dfb146102275761011a565b8063827a5a25146101de5780638da5cb5b146101f1578063c72c5be2146101f9578063cceed926146102015761011a565b806319805538116100ee57806319805538146101905780632930597a146101985780633fefc25d146101b85780635249961b146101cb5761011a565b8062cd1b8a1461011f578063013e9fdd146101485780630b4cafa11461015d57806313af40351461017d575b600080fd5b61013261012d3660046109a5565b610275565b60405161013f9190610a67565b60405180910390f35b61015b6101563660046109a5565b610341565b005b61017061016b3660046109a5565b6103b4565b60405161013f9190610bbf565b61015b61018b3660046109a5565b6103c6565b610170610438565b6101ab6101a63660046109f8565b61043e565b60405161013f9190610a39565b6101ab6101c63660046109a5565b610464565b61015b6101d93660046109a5565b61047f565b61015b6101ec3660046109a5565b6104b8565b6101ab6105ae565b6101326105bd565b61015b61020f3660046109a5565b610672565b6101ab6102223660046109a5565b61075a565b61023a6102353660046109c6565b610888565b60405161013f9190610ab4565b61023a6102553660046109a5565b6108fb565b61015b610268366004610a21565b610956565b6101ab610972565b6001600160a01b038116600090815260066020526040902054606090818167ffffffffffffffff811180156102a957600080fd5b506040519080825280602002602001820160405280156102d3578160200160208202803683370190505b50905060005b82811015610337576001600160a01b038086166000908152600560209081526040808320858452909152902054835191169083908390811061031757fe5b6001600160a01b03909216602092830291909101909101526001016102d9565b509150505b919050565b6000546001600160a01b0316331461035857600080fd5b610361816108fb565b6103b157600380546001810182556000919091527fc2575a0e9e593c00f959f8c92f12db2869c3395a3b0502d05e2516446f71f85b0180546001600160a01b0319166001600160a01b0383161790555b50565b60066020526000908152604090205481565b6000546001600160a01b031633146103dd57600080fd5b600080546040516001600160a01b03808516939216917fb532073b38c83145e3e5135377a08bf9aab55bc0fd7c1179cd4fb995d2a5159c91a3600080546001600160a01b0319166001600160a01b0392909216919091179055565b60025490565b60056020908152600092835260408084209091529082529020546001600160a01b031681565b6004602052600090815260409020546001600160a01b031681565b6000546001600160a01b0316331461049657600080fd5b600180546001600160a01b0319166001600160a01b0392909216919091179055565b6000546001600160a01b031633146104cf57600080fd5b60005b6003548110156105aa57816001600160a01b0316600382815481106104f357fe5b6000918252602090912001546001600160a01b031614156105a25760038054600019810190811061052057fe5b600091825260209091200154600380546001600160a01b03909216918390811061054657fe5b9060005260206000200160006101000a8154816001600160a01b0302191690836001600160a01b03160217905550600380548061057f57fe5b600082815260209020810160001990810180546001600160a01b03191690550190555b6001016104d2565b5050565b6000546001600160a01b031681565b60035460609060008167ffffffffffffffff811180156105dc57600080fd5b50604051908082528060200260200182016040528015610606578160200160208202803683370190505b50905060005b8281101561066b576003818154811061062157fe5b9060005260206000200160009054906101000a90046001600160a01b031682828151811061064b57fe5b6001600160a01b039092166020928302919091019091015260010161060c565b5091505090565b60075460011461069d5760405162461bcd60e51b815260040161069490610abf565b60405180910390fd5b60006007819055338152600460205260409020546001600160a01b03828116911614156106dc5760405162461bcd60e51b815260040161069490610b62565b6106e63382610888565b156107035760405162461bcd60e51b815260040161069490610b2d565b336000818152600660208181526040808420805460058452828620908652835290842080546001600160a01b0319166001600160a01b03979097169690961790955592909152905280546001908101909155600755565b336000908152600460205260408120546001600160a01b0316156107905760405162461bcd60e51b815260040161069490610af6565b30336040516020016107a3929190610a4d565b604051602081830303815290604052805190602001206040516107c590610981565b8190604051809103906000f59050801580156107e5573d6000803e3d6000fd5b503360008181526004602081905260409182902080546001600160a01b0319166001600160a01b03861690811790915591517fc4d66de8000000000000000000000000000000000000000000000000000000008152939450909263c4d66de89261085192909101610a39565b600060405180830381600087803b15801561086b57600080fd5b505af115801561087f573d6000803e3d6000fd5b50505050919050565b6001600160a01b038216600090815260066020526040812054815b818110156108ee576001600160a01b038086166000908152600560209081526040808320858452909152902054858216911614156108e6576001925050506108f5565b6001016108a3565b5060009150505b92915050565b6000805b60035481101561094d57826001600160a01b03166003828154811061092057fe5b6000918252602090912001546001600160a01b0316141561094557600191505061033c565b6001016108ff565b50600092915050565b6000546001600160a01b0316331461096d57600080fd5b600255565b6001546001600160a01b031690565b61340c80610bc983390190565b80356001600160a01b038116811461033c57600080fd5b6000602082840312156109b6578081fd5b6109bf8261098e565b9392505050565b600080604083850312156109d8578081fd5b6109e18361098e565b91506109ef6020840161098e565b90509250929050565b60008060408385031215610a0a578182fd5b610a138361098e565b946020939093013593505050565b600060208284031215610a32578081fd5b5035919050565b6001600160a01b0391909116815260200190565b6001600160a01b0392831681529116602082015260400190565b6020808252825182820181905260009190848201906040850190845b81811015610aa85783516001600160a01b031683529284019291840191600101610a83565b50909695505050505050565b901515815260200190565b6020808252600b908201527f46756e64204c4f434b4544000000000000000000000000000000000000000000604082015260600190565b6020808252601b908201527f63726561746546756e642829203d3e2046554e445f4558495354530000000000604082015260600190565b6020808252818101527f696e766573746f722066756e6420616c72656164792072656769737465726564604082015260600190565b60208082526025908201527f6d616e616765722063616e6e6f742061646420696e766573746f722066756e6460408201527f206c697374000000000000000000000000000000000000000000000000000000606082015260800190565b9081526020019056fe6080604052600080546001600160a01b03191673c778417e063141139fce010982780140aa0cd5ab179055600160065534801561003b57600080fd5b50600180546001600160a01b031916331790556133af8061005d6000396000f3fe6080604052600436106100d65760003560e01c80637bb7bed11161007f578063c45a015511610059578063c45a01551461041d578063c4d66de814610432578063c4f59f9b14610452578063f3fef3a314610467576102df565b80637bb7bed1146103af578063aef4f978146103dd578063bc40f3bf146103fd576102df565b8063481c6a75116100b0578063481c6a751461034d57806350ac1dd91461036f578063696c563914610382576102df565b806317f08346146102e457806318324c111461031a57806347e7ef241461033a576102df565b366102df576000546001600160a01b03163314156100f3576102dd565b60015460405163df4f1dfb60e01b81526000916001600160a01b03169063df4f1dfb90610126903390309060040161297c565b60206040518083038186803b15801561013e57600080fd5b505afa158015610152573d6000803e3d6000fd5b505050506040513d601f19601f82011682018060405250810190610176919061282b565b9050808061018e57506002546001600160a01b031633145b6101b35760405162461bcd60e51b81526004016101aa90613156565b60405180910390fd5b60008054906101000a90046001600160a01b03166001600160a01b031663d0e30db0346040518263ffffffff1660e01b81526004016000604051808303818588803b15801561020157600080fd5b505af1158015610215573d6000803e3d6000fd5b50506000805490935061023592503391506001600160a01b03163461047a565b9050801561029357336000818152600460208181526040808420805485546003855283872091875290845291852080546001600160a01b0319166001600160a01b039390931692909217825534600192830155949093525281540190555b60005460405133917f5548c837ab068cf56a2c2479df0882a4922fd203edb7517321831d95078c5f62916102d2916001600160a01b03169034906129ba565b60405180910390a250505b005b600080fd5b3480156102f057600080fd5b506103046102ff36600461271a565b610514565b60405161031191906131e0565b60405180910390f35b34801561032657600080fd5b5061030461033536600461271a565b610533565b6102dd610348366004612791565b610545565b34801561035957600080fd5b50610362610810565b6040516103119190612968565b6102dd61037d3660046127bc565b61081f565b34801561038e57600080fd5b506103a261039d36600461271a565b610a18565b60405161031191906129fc565b3480156103bb57600080fd5b506103cf6103ca366004612867565b610afd565b6040516103119291906129ba565b3480156103e957600080fd5b506103046103f8366004612759565b610b35565b34801561040957600080fd5b506103cf610418366004612791565b610bca565b34801561042957600080fd5b50610362610bfa565b34801561043e57600080fd5b506102dd61044d36600461271a565b610c09565b34801561045e57600080fd5b506103a2610c92565b6102dd610475366004612791565b610d79565b60006001815b6001600160a01b03861660009081526004602052604090205481101561050b576001600160a01b03868116600090815260036020908152604080832085845290915290205481169086161415610503576001600160a01b03861660009081526003602090815260408083208484529091528120600101805486019055915061050b565b600101610480565b50949350505050565b6001600160a01b0381166000908152600460205260409020545b919050565b60046020526000908152604090205481565b6006546001146105675760405162461bcd60e51b81526004016101aa90612ad7565b6000600681905560015460405163df4f1dfb60e01b81526001600160a01b039091169063df4f1dfb906105a0903390309060040161297c565b60206040518083038186803b1580156105b857600080fd5b505afa1580156105cc573d6000803e3d6000fd5b505050506040513d601f19601f820116820180604052508101906105f0919061282b565b9050808061060857506002546001600160a01b031633145b6106245760405162461bcd60e51b81526004016101aa90612d16565b6001546040516371ec59fb60e11b81526001600160a01b039091169063e3d8b3f690610654908690600401612968565b60206040518083038186803b15801561066c57600080fd5b505afa158015610680573d6000803e3d6000fd5b505050506040513d601f19601f820116820180604052508101906106a4919061282b565b6106c05760405162461bcd60e51b81526004016101aa90612ef3565b6040517f23b872dd0000000000000000000000000000000000000000000000000000000081526001600160a01b038416906323b872dd9061070990339030908790600401612996565b602060405180830381600087803b15801561072357600080fd5b505af1158015610737573d6000803e3d6000fd5b505050506040513d601f19601f8201168201806040525081019061075b919061282b565b50600061076933858561047a565b905080156107c257336000818152600460208181526040808420805460038452828620908652835290842080546001600160a01b0319166001600160a01b038b1617815560019081018990559490935252805490910190555b336001600160a01b03167f5548c837ab068cf56a2c2479df0882a4922fd203edb7517321831d95078c5f6285856040516107fd9291906129ba565b60405180910390a2505060016006555050565b6002546001600160a01b031681565b6006546001146108415760405162461bcd60e51b81526004016101aa90612ad7565b60006006556002546001600160a01b031633146108705760405162461bcd60e51b81526004016101aa9061311f565b60005b81811015610a0e57600083838381811061088957fe5b905060200281019061089b91906131e9565b6108ac90604081019060200161284b565b60018111156108b757fe5b14156109675760008383838181106108cb57fe5b90506020028101906108dd91906131e9565b6108eb90602081019061284b565b60018111156108f657fe5b14156109315761092b83838381811061090b57fe5b905060200281019061091d91906131e9565b61092690613223565b6112a2565b50610962565b61096083838381811061094057fe5b905060200281019061095291906131e9565b61095b90613223565b6115f7565b505b610a06565b600083838381811061097557fe5b905060200281019061098791906131e9565b61099590602081019061284b565b60018111156109a057fe5b14156109d5576109608383838181106109b557fe5b90506020028101906109c791906131e9565b6109d090613223565b611941565b610a048383838181106109e457fe5b90506020028101906109f691906131e9565b6109ff90613223565b611c70565b505b600101610873565b5050600160065550565b6001600160a01b0381166000908152600460205260408120546060918167ffffffffffffffff81118015610a4b57600080fd5b50604051908082528060200260200182016040528015610a8557816020015b610a72612675565b815260200190600190039081610a6a5790505b50905060005b82811015610af5576001600160a01b038086166000908152600360209081526040808320858452825291829020825180840190935280549093168252600190920154918101919091528251839083908110610ae257fe5b6020908102919091010152600101610a8b565b509392505050565b60058181548110610b0d57600080fd5b6000918252602090912060029091020180546001909101546001600160a01b03909116915082565b6000805b6001600160a01b038416600090815260046020526040902054811015610bbe576001600160a01b03848116600090815260036020908152604080832085845290915290205481169084161415610bb6576001600160a01b038416600090815260036020908152604080832093835292905220600101549050610bc4565b600101610b39565b50600090505b92915050565b6003602090815260009283526040808420909152908252902080546001909101546001600160a01b039091169082565b6001546001600160a01b031681565b6001546001600160a01b03163314610c335760405162461bcd60e51b81526004016101aa90612b6b565b600280546001600160a01b0319166001600160a01b0383811691909117918290556040517f96b5b9b8a7193304150caccf9b80d150675fa3d6af57761d8d8ef1d6f9a1a90992610c8792309291169061297c565b60405180910390a150565b6002546060906001600160a01b03163314610cac57600080fd5b60055460009067ffffffffffffffff81118015610cc857600080fd5b50604051908082528060200260200182016040528015610d0257816020015b610cef612675565b815260200190600190039081610ce75790505b50905060005b600554811015610d735760058181548110610d1f57fe5b60009182526020918290206040805180820190915260029092020180546001600160a01b0316825260010154918101919091528251839083908110610d6057fe5b6020908102919091010152600101610d08565b50905090565b600654600114610d9b5760405162461bcd60e51b81526004016101aa90612ad7565b6000600681905560015460405163df4f1dfb60e01b81526001600160a01b039091169063df4f1dfb90610dd4903390309060040161297c565b60206040518083038186803b158015610dec57600080fd5b505afa158015610e00573d6000803e3d6000fd5b505050506040513d601f19601f82011682018060405250810190610e24919061282b565b90508080610e3c57506002546001600160a01b031633145b610e585760405162461bcd60e51b81526004016101aa9061309c565b610e63338484611f92565b610e7f5760405162461bcd60e51b81526004016101aa90612ddc565b600154604080517f1980553800000000000000000000000000000000000000000000000000000000815290516000926001600160a01b0316916319805538916004808301926020929190829003018186803b158015610edd57600080fd5b505afa158015610ef1573d6000803e3d6000fd5b505050506040513d601f19601f82011682018060405250810190610f15919061287f565b6002549091506001600160a01b03163314156110bf57610f3633858561203e565b506000546001600160a01b038581169116141561103857600054604051632e1a7d4d60e01b81526001600160a01b0390911690632e1a7d4d90610f7d9086906004016131e0565b600060405180830381600087803b158015610f9757600080fd5b505af1158015610fab573d6000803e3d6000fd5b5050604080516000808252602082019283905293503392508691610fcf919061294c565b60006040518083038185875af1925050503d806000811461100c576040519150601f19603f3d011682016040523d82523d6000602084013e611011565b606091505b50509050806110325760405162461bcd60e51b81526004016101aa9061303f565b506110ba565b60405163a9059cbb60e01b81526001600160a01b0385169063a9059cbb9061106690339087906004016129ba565b602060405180830381600087803b15801561108057600080fd5b505af1158015611094573d6000803e3d6000fd5b505050506040513d601f19601f820116820180604052508101906110b8919061282b565b505b611267565b6064818402046110d033868661203e565b506110db8582612117565b506000546001600160a01b03868116911614156111e157600054604051632e1a7d4d60e01b81526001600160a01b0390911690632e1a7d4d9061112490848803906004016131e0565b600060405180830381600087803b15801561113e57600080fd5b505af1158015611152573d6000803e3d6000fd5b50506040805160008082526020820192839052935033925084880391611178919061294c565b60006040518083038185875af1925050503d80600081146111b5576040519150601f19603f3d011682016040523d82523d6000602084013e6111ba565b606091505b50509050806111db5760405162461bcd60e51b81526004016101aa90612e96565b50611265565b60405163a9059cbb60e01b81526001600160a01b0386169063a9059cbb90611211903390858903906004016129ba565b602060405180830381600087803b15801561122b57600080fd5b505af115801561123f573d6000803e3d6000fd5b505050506040513d601f19601f82011682018060405250810190611263919061282b565b505b505b336001600160a01b03167f9b1bfa7fa9ee420a16e124f794c35ac9f90472acc99140eb2f6447c714cad8eb85856040516107fd9291906129ba565b60015460808201516040516371ec59fb60e11b81526000926001600160a01b03169163e3d8b3f6916112d79190600401612968565b60206040518083038186803b1580156112ef57600080fd5b505afa158015611303573d6000803e3d6000fd5b505050506040513d601f19601f82011682018060405250810190611327919061282b565b6113435760405162461bcd60e51b81526004016101aa90612f28565b600061135783604001518460600151610b35565b90508260e0015181101561137d5760405162461bcd60e51b81526004016101aa90612cb9565b6001546040805163f5c8ba9360e01b815290516000926001600160a01b03169163f5c8ba93916004808301926020929190829003018186803b1580156113c257600080fd5b505afa1580156113d6573d6000803e3d6000fd5b505050506040513d601f19601f820116820180604052508101906113fa919061273d565b905083606001516001600160a01b031663095ea7b3828660e001516040518363ffffffff1660e01b81526004016114329291906129ba565b602060405180830381600087803b15801561144c57600080fd5b505af1158015611460573d6000803e3d6000fd5b505050506040513d601f19601f82011682018060405250810190611484919061282b565b5060006040518060e0016040528086606001516001600160a01b0316815260200186608001516001600160a01b031681526020018660c0015162ffffff168152602001306001600160a01b031681526020018660e001518152602001866101400151815260200160006001600160a01b03168152509050816001600160a01b03166304e45aaf826040518263ffffffff1660e01b815260040161152791906131d2565b602060405180830381600087803b15801561154157600080fd5b505af1158015611555573d6000803e3d6000fd5b505050506040513d601f19601f82011682018060405250810190611579919061287f565b93506115988560400151866060015187608001518860e0015188612239565b84604001516001600160a01b03167fcd3829a3813dc3cdd188fd3d01dcf3268c16be2fdd2dd21d0665418816e46062866060015187608001518860e00151886040516115e794939291906129d3565b60405180910390a2505050919050565b60015460808201516040516371ec59fb60e11b81526000926001600160a01b03169163e3d8b3f69161162c9190600401612968565b60206040518083038186803b15801561164457600080fd5b505afa158015611658573d6000803e3d6000fd5b505050506040513d601f19601f8201168201806040525081019061167c919061282b565b6116985760405162461bcd60e51b81526004016101aa90612f85565b60006116ac83604001518460600151610b35565b90508261012001518110156116d35760405162461bcd60e51b81526004016101aa90612b0e565b6001546040805163f5c8ba9360e01b815290516000926001600160a01b03169163f5c8ba93916004808301926020929190829003018186803b15801561171857600080fd5b505afa15801561172c573d6000803e3d6000fd5b505050506040513d601f19601f82011682018060405250810190611750919061273d565b905083606001516001600160a01b031663095ea7b3828661012001516040518363ffffffff1660e01b81526004016117899291906129ba565b602060405180830381600087803b1580156117a357600080fd5b505af11580156117b7573d6000803e3d6000fd5b505050506040513d601f19601f820116820180604052508101906117db919061282b565b5060006040518060e0016040528086606001516001600160a01b0316815260200186608001516001600160a01b031681526020018660c0015162ffffff168152602001306001600160a01b031681526020018661010001518152602001866101200151815260200160006001600160a01b03168152509050816001600160a01b0316635023b4df826040518263ffffffff1660e01b815260040161187f91906131d2565b602060405180830381600087803b15801561189957600080fd5b505af11580156118ad573d6000803e3d6000fd5b505050506040513d601f19601f820116820180604052508101906118d1919061287f565b93506118f185604001518660600151876080015187896101000151612239565b84604001516001600160a01b03167fcd3829a3813dc3cdd188fd3d01dcf3268c16be2fdd2dd21d0665418816e4606286606001518760800151878961010001516040516115e794939291906129d3565b6000806119528361018001516122d9565b90506000611964846101800151612322565b50506001546040516371ec59fb60e11b81529192506001600160a01b03169063e3d8b3f690611997908590600401612968565b60206040518083038186803b1580156119af57600080fd5b505afa1580156119c3573d6000803e3d6000fd5b505050506040513d601f19601f820116820180604052508101906119e7919061282b565b611a035760405162461bcd60e51b81526004016101aa90612ba2565b6000611a13856040015183610b35565b90508460e00151811015611a395760405162461bcd60e51b81526004016101aa90612bff565b6001546040805163f5c8ba9360e01b815290516000926001600160a01b03169163f5c8ba93916004808301926020929190829003018186803b158015611a7e57600080fd5b505afa158015611a92573d6000803e3d6000fd5b505050506040513d601f19601f82011682018060405250810190611ab6919061273d565b60e087015160405163095ea7b360e01b81529192506001600160a01b0385169163095ea7b391611aeb918591906004016129ba565b602060405180830381600087803b158015611b0557600080fd5b505af1158015611b19573d6000803e3d6000fd5b505050506040513d601f19601f82011682018060405250810190611b3d919061282b565b5060408051608081018252610180880151815230602082015260e088015181830152610140880151606082015290517fb858183f0000000000000000000000000000000000000000000000000000000081526001600160a01b0383169063b858183f90611bae9084906004016131bf565b602060405180830381600087803b158015611bc857600080fd5b505af1158015611bdc573d6000803e3d6000fd5b505050506040513d601f19601f82011682018060405250810190611c00919061287f565b9550611c17876040015185878a60e001518a612239565b86604001516001600160a01b03167fcd3829a3813dc3cdd188fd3d01dcf3268c16be2fdd2dd21d0665418816e4606285878a60e001518a604051611c5e94939291906129d3565b60405180910390a25050505050919050565b600080611c818361018001516122d9565b90506000611c93846101800151612322565b50506001546040516371ec59fb60e11b81529192506001600160a01b03169063e3d8b3f690611cc6908490600401612968565b60206040518083038186803b158015611cde57600080fd5b505afa158015611cf2573d6000803e3d6000fd5b505050506040513d601f19601f82011682018060405250810190611d16919061282b565b611d325760405162461bcd60e51b81526004016101aa90612c5c565b6000611d42856040015184610b35565b9050846101200151811015611d695760405162461bcd60e51b81526004016101aa90612fe2565b6001546040805163f5c8ba9360e01b815290516000926001600160a01b03169163f5c8ba93916004808301926020929190829003018186803b158015611dae57600080fd5b505afa158015611dc2573d6000803e3d6000fd5b505050506040513d601f19601f82011682018060405250810190611de6919061273d565b61012087015160405163095ea7b360e01b81529192506001600160a01b0386169163095ea7b391611e1c918591906004016129ba565b602060405180830381600087803b158015611e3657600080fd5b505af1158015611e4a573d6000803e3d6000fd5b505050506040513d601f19601f82011682018060405250810190611e6e919061282b565b5060408051608081018252610180880151815230602082015261010088015181830152610120880151606082015290517f09b813460000000000000000000000000000000000000000000000000000000081526001600160a01b038316906309b8134690611ee09084906004016131bf565b602060405180830381600087803b158015611efa57600080fd5b505af1158015611f0e573d6000803e3d6000fd5b505050506040513d601f19601f82011682018060405250810190611f32919061287f565b9550611f4a87604001518686898b6101000151612239565b86604001516001600160a01b03167fcd3829a3813dc3cdd188fd3d01dcf3268c16be2fdd2dd21d0665418816e460628686898b6101000151604051611c5e94939291906129d3565b600080805b6001600160a01b03861660009081526004602052604090205481101561050b576001600160a01b03868116600090815260036020908152604080832085845290915290205481169086161415612036576001600160a01b038616600090815260036020908152604080832084845290915290206001015484111561202d5760405162461bcd60e51b81526004016101aa90612e39565b6001915061050b565b600101611f97565b60006001815b6001600160a01b03861660009081526004602052604090205481101561050b576001600160a01b0386811660009081526003602090815260408083208584529091529020548116908616141561210f576001600160a01b03861660009081526003602090815260408083208484529091528120600101549092508411156120dd5760405162461bcd60e51b81526004016101aa90612a54565b6001600160a01b038616600090815260036020908152604080832084845290915290206001018054859003905561050b565b600101612044565b60006001815b60055481101561219757846001600160a01b03166005828154811061213e57fe5b60009182526020909120600290910201546001600160a01b0316141561218f5760009150836005828154811061217057fe5b6000918252602090912060016002909202010180549091019055612197565b60010161211d565b50801561223257604080518082019091526001600160a01b038581168252602082018581526005805460018101825560009190915292517f036b6384b5eca791c62761152d0c79bb0604c104a5fb6f4eb0703f3154bb3db0600290940293840180546001600160a01b0319169190931617909155517f036b6384b5eca791c62761152d0c79bb0604c104a5fb6f4eb0703f3154bb3db1909101555b5092915050565b600061224686868561203e565b905080156122665760405162461bcd60e51b81526004016101aa90612d7f565b61227186858461047a565b905080156122d1576001600160a01b038681166000818152600460208181526040808420805460038452828620908652835290842080546001600160a01b031916968b169690961786556001958601889055939092529052805490910190555b505050505050565b6000805b60006122e884612353565b90508015612300576122f98461235b565b935061231c565b600080600061230e87612322565b509550610bc4945050505050565b506122dd565b600080806123308482612372565b925061233d84601461243e565b905061234a846017612372565b91509193909250565b516042111590565b8051606090610bc4908390601790601619016124fa565b6000818260140110156123cc576040805162461bcd60e51b815260206004820152601260248201527f746f416464726573735f6f766572666c6f770000000000000000000000000000604482015290519081900360640190fd5b8160140183511015612425576040805162461bcd60e51b815260206004820152601560248201527f746f416464726573735f6f75744f66426f756e64730000000000000000000000604482015290519081900360640190fd5b5001602001516c01000000000000000000000000900490565b600081826003011015612498576040805162461bcd60e51b815260206004820152601160248201527f746f55696e7432345f6f766572666c6f77000000000000000000000000000000604482015290519081900360640190fd5b81600301835110156124f1576040805162461bcd60e51b815260206004820152601460248201527f746f55696e7432345f6f75744f66426f756e6473000000000000000000000000604482015290519081900360640190fd5b50016003015190565b60608182601f011015612554576040805162461bcd60e51b815260206004820152600e60248201527f736c6963655f6f766572666c6f77000000000000000000000000000000000000604482015290519081900360640190fd5b8282840110156125ab576040805162461bcd60e51b815260206004820152600e60248201527f736c6963655f6f766572666c6f77000000000000000000000000000000000000604482015290519081900360640190fd5b81830184511015612603576040805162461bcd60e51b815260206004820152601160248201527f736c6963655f6f75744f66426f756e6473000000000000000000000000000000604482015290519081900360640190fd5b606082158015612622576040519150600082526020820160405261050b565b6040519150601f8416801560200281840101858101878315602002848b0101015b8183101561265b578051835260209283019201612643565b5050858452601f01601f1916604052505090509392505050565b604080518082019091526000808252602082015290565b803561052e81613354565b600082601f8301126126a7578081fd5b813567ffffffffffffffff8111156126bb57fe5b6126ce601f8201601f19166020016131ff565b8181528460208386010111156126e2578283fd5b816020850160208301379081016020019190915292915050565b803561052e8161336c565b803562ffffff8116811461052e57600080fd5b60006020828403121561272b578081fd5b813561273681613354565b9392505050565b60006020828403121561274e578081fd5b815161273681613354565b6000806040838503121561276b578081fd5b823561277681613354565b9150602083013561278681613354565b809150509250929050565b600080604083850312156127a3578182fd5b82356127ae81613354565b946020939093013593505050565b600080602083850312156127ce578182fd5b823567ffffffffffffffff808211156127e5578384fd5b818501915085601f8301126127f8578384fd5b813581811115612806578485fd5b8660208083028501011115612819578485fd5b60209290920196919550909350505050565b60006020828403121561283c578081fd5b81518015158114612736578182fd5b60006020828403121561285c578081fd5b81356127368161336c565b600060208284031215612878578081fd5b5035919050565b600060208284031215612890578081fd5b5051919050565b600081516080845280518060808601526128b88160a0870160208501613324565b6020848101516001600160a01b03169086015260408085015190860152606093840151938501939093525050601f01601f19160160a00190565b6001600160a01b0380825116835280602083015116602084015262ffffff60408301511660408401528060608301511660608401526080820151608084015260a082015160a08401528060c08301511660c0840152505050565b6000825161295e818460208701613324565b9190910192915050565b6001600160a01b0391909116815260200190565b6001600160a01b0392831681529116602082015260400190565b6001600160a01b039384168152919092166020820152604081019190915260600190565b6001600160a01b03929092168252602082015260400190565b6001600160a01b0394851681529290931660208301526040820152606081019190915260800190565b602080825282518282018190526000919060409081850190868401855b82811015612a4757815180516001600160a01b03168552860151868501529284019290850190600101612a19565b5091979650505050505050565b60208082526044908201527f6465637265617365546f6b656e416d6f756e742829203d3e206465637265617360408201527f6520746f6b656e20616d6f756e74206973206d6f7265207468616e20796f752060608201527f6861766500000000000000000000000000000000000000000000000000000000608082015260a00190565b6020808252600b908201527f46756e64204c4f434b4544000000000000000000000000000000000000000000604082015260600190565b6020808252602a908201527f65786163744f757470757453696e676c652829203d3e20696e76616c6964206960408201527f6e707574416d6f756e7400000000000000000000000000000000000000000000606082015260800190565b60208082526019908201527f696e697469616c697a652829203d3e20464f5242494444454e00000000000000604082015260600190565b60208082526023908201527f6578616374496e7075742829203d3e206e6f742077686974656c69737420746f60408201527f6b656e0000000000000000000000000000000000000000000000000000000000606082015260800190565b60208082526023908201527f6578616374496e7075742829203d3e20696e76616c696420696e707574416d6f60408201527f756e740000000000000000000000000000000000000000000000000000000000606082015260800190565b60208082526024908201527f65786163744f75747075742829203d3e206e6f742077686974656c697374207460408201527f6f6b656e00000000000000000000000000000000000000000000000000000000606082015260800190565b60208082526029908201527f6578616374496e70757453696e676c652829203d3e20696e76616c696420696e60408201527f707574416d6f756e740000000000000000000000000000000000000000000000606082015260800190565b60208082526043908201527f6465706f7369742829203d3e206163636f756e74206973206e6f74206578697360408201527f7420696e206d616e61676572206c697374206e6f7220696e766573746f72206c6060820152621a5cdd60ea1b608082015260a00190565b60208082526037908201527f68616e646c65537761702829203d3e20496e76616c696420696e766573746f7260408201527f20746f6b656e20776974686472617720617474656d7074000000000000000000606082015260800190565b60208082526022908201527f77697468647261772829203d3e20696e76616c696420746f6b656e20616d6f7560408201527f6e74000000000000000000000000000000000000000000000000000000000000606082015260800190565b60208082526027908201527f77697468647261773a20496e76616c696420776974686472617720746f6b656e60408201527f20616d6f756e7400000000000000000000000000000000000000000000000000606082015260800190565b6020808252602c908201527f77697468647261772829203d3e2073656e64696e672045544820746f20696e7660408201527f6573746f72206661696c65640000000000000000000000000000000000000000606082015260800190565b6020808252818101527f6465706f7369742829203d3e206e6f742077686974656c69737420746f6b656e604082015260600190565b60208082526029908201527f6578616374496e70757453696e676c652829203d3e206e6f742077686974656c60408201527f69737420746f6b656e0000000000000000000000000000000000000000000000606082015260800190565b6020808252602a908201527f65786163744f757470757453696e676c652829203d3e206e6f7420776869746560408201527f6c69737420746f6b656e00000000000000000000000000000000000000000000606082015260800190565b60208082526024908201527f65786163744f75747075742829203d3e20696e76616c696420696e707574416d60408201527f6f756e7400000000000000000000000000000000000000000000000000000000606082015260800190565b6020808252602b908201527f77697468647261772829203d3e2073656e64696e672045544820746f206d616e60408201527f61676572206661696c6564000000000000000000000000000000000000000000606082015260800190565b60208082526044908201527f77697468647261772829203d3e206163636f756e74206973206e6f742065786960408201527f737420696e206d616e61676572206c697374206e6f7220696e766573746f722060608201527f6c69737400000000000000000000000000000000000000000000000000000000608082015260a00190565b60208082526018908201527f737761702829203d3e20696e76616c69642073656e6465720000000000000000604082015260600190565b60208082526043908201527f726563656976652829203d3e206163636f756e74206973206e6f74206578697360408201527f7420696e206d616e61676572206c697374206e6f7220696e766573746f72206c6060820152621a5cdd60ea1b608082015260a00190565b6000602082526127366020830184612897565b60e08101610bc482846128f2565b90815260200190565b6000823561019e1983360301811261295e578182fd5b60405181810167ffffffffffffffff8111828210171561321b57fe5b604052919050565b60006101a0808336031215613236578182fd5b61323f816131ff565b905061324a836126fc565b8152613258602084016126fc565b60208201526132696040840161268c565b604082015261327a6060840161268c565b606082015261328b6080840161268c565b608082015261329c60a0840161268c565b60a08201526132ad60c08401612707565b60c082015260e083810135908201526101008084013590820152610120808401359082015261014080840135908201526101606132eb81850161268c565b908201526101808381013567ffffffffffffffff81111561330a578384fd5b61331636828701612697565b918301919091525092915050565b60005b8381101561333f578181015183820152602001613327565b8381111561334e576000848401525b50505050565b6001600160a01b038116811461336957600080fd5b50565b6002811061336957600080fdfea26469706673582212207bd27e664cd4c9afa1c4ce11c5eff5b99ec323c5bb3bdbb11a1afb811845d80d64736f6c63430007060033a26469706673582212201becde454117926e02cd9a5e1df01d514fba45538e89b963612191b0e2e18a1c64736f6c63430007060033",
  "linkReferences": {},
  "deployedLinkReferences": {}
}