{
  "_format": "hh-sol-artifact-1",
  "contractName": "XXXFund",
  "sourceName": "contracts/XXXFund.sol",
  "abi": [
    {
      "inputs": [],
      "stateMutability": "nonpayable",
      "type": "constructor"
    },
    {
      "anonymous": false,
      "inputs": [
        {
          "indexed": true,
          "internalType": "address",
          "name": "investor",
          "type": "address"
        },
        {
          "indexed": false,
          "internalType": "address",
          "name": "_token",
          "type": "address"
        },
        {
          "indexed": false,
          "internalType": "uint256",
          "name": "_amount",
          "type": "uint256"
        }
      ],
      "name": "Deposit",
      "type": "event"
    },
    {
      "anonymous": false,
      "inputs": [
        {
          "indexed": true,
          "internalType": "address",
          "name": "manager",
          "type": "address"
        },
        {
          "indexed": false,
          "internalType": "address",
          "name": "tokenIn",
          "type": "address"
        },
        {
          "indexed": false,
          "internalType": "address",
          "name": "tokenOut",
          "type": "address"
        },
        {
          "indexed": false,
          "internalType": "uint256",
          "name": "amountIn",
          "type": "uint256"
        },
        {
          "indexed": false,
          "internalType": "uint256",
          "name": "amountOut",
          "type": "uint256"
        }
      ],
      "name": "Swap",
      "type": "event"
    },
    {
      "anonymous": false,
      "inputs": [
        {
          "indexed": true,
          "internalType": "address",
          "name": "investor",
          "type": "address"
        },
        {
          "indexed": false,
          "internalType": "address",
          "name": "_token",
          "type": "address"
        },
        {
          "indexed": false,
          "internalType": "uint256",
          "name": "_amount",
          "type": "uint256"
        }
      ],
      "name": "Withdraw",
      "type": "event"
    },
    {
      "inputs": [
        {
          "internalType": "address",
          "name": "investor",
          "type": "address"
        },
        {
          "internalType": "address",
          "name": "_token",
          "type": "address"
        },
        {
          "internalType": "uint256",
          "name": "_amount",
          "type": "uint256"
        }
      ],
      "name": "deposit",
      "outputs": [],
      "stateMutability": "nonpayable",
      "type": "function"
    },
    {
      "inputs": [],
      "name": "factory",
      "outputs": [
        {
          "internalType": "address",
          "name": "",
          "type": "address"
        }
      ],
      "stateMutability": "view",
      "type": "function"
    },
    {
      "inputs": [
        {
          "internalType": "address",
          "name": "_manager",
          "type": "address"
        }
      ],
      "name": "initialize",
      "outputs": [],
      "stateMutability": "nonpayable",
      "type": "function"
    },
    {
      "inputs": [
        {
          "internalType": "address",
          "name": "",
          "type": "address"
        }
      ],
      "name": "investorTokenCount",
      "outputs": [
        {
          "internalType": "uint256",
          "name": "",
          "type": "uint256"
        }
      ],
      "stateMutability": "view",
      "type": "function"
    },
    {
      "inputs": [
        {
          "internalType": "address",
          "name": "",
          "type": "address"
        },
        {
          "internalType": "uint256",
          "name": "",
          "type": "uint256"
        }
      ],
      "name": "investorTokens",
      "outputs": [
        {
          "internalType": "address",
          "name": "tokenAddress",
          "type": "address"
        },
        {
          "internalType": "uint256",
          "name": "amount",
          "type": "uint256"
        }
      ],
      "stateMutability": "view",
      "type": "function"
    },
    {
      "inputs": [],
      "name": "manager",
      "outputs": [
        {
          "internalType": "address",
          "name": "",
          "type": "address"
        }
      ],
      "stateMutability": "view",
      "type": "function"
    },
    {
      "inputs": [],
      "name": "rewardTokenCount",
      "outputs": [
        {
          "internalType": "uint256",
          "name": "",
          "type": "uint256"
        }
      ],
      "stateMutability": "view",
      "type": "function"
    },
    {
      "inputs": [
        {
          "internalType": "uint256",
          "name": "",
          "type": "uint256"
        }
      ],
      "name": "rewardTokens",
      "outputs": [
        {
          "internalType": "address",
          "name": "tokenAddress",
          "type": "address"
        },
        {
          "internalType": "uint256",
          "name": "amount",
          "type": "uint256"
        }
      ],
      "stateMutability": "view",
      "type": "function"
    },
    {
      "inputs": [
        {
          "internalType": "address",
          "name": "invester",
          "type": "address"
        },
        {
          "components": [
            {
              "internalType": "enum IXXXFund.V3TradeType",
              "name": "tradeType",
              "type": "uint8"
            },
            {
              "internalType": "enum IXXXFund.V3SwapType",
              "name": "swapType",
              "type": "uint8"
            },
            {
              "internalType": "address",
              "name": "input",
              "type": "address"
            },
            {
              "internalType": "address",
              "name": "output",
              "type": "address"
            },
            {
              "internalType": "bytes",
              "name": "path",
              "type": "bytes"
            },
            {
              "internalType": "uint256",
              "name": "inputAmount",
              "type": "uint256"
            },
            {
              "internalType": "uint256",
              "name": "outputAmount",
              "type": "uint256"
            },
            {
              "internalType": "uint256",
              "name": "amountInMaximum",
              "type": "uint256"
            },
            {
              "internalType": "uint256",
              "name": "amountOutMinimum",
              "type": "uint256"
            }
          ],
          "internalType": "struct IXXXFund.V3Trade[]",
          "name": "trades",
          "type": "tuple[]"
        },
        {
          "components": [
            {
              "internalType": "uint256",
              "name": "slippageTolerance",
              "type": "uint256"
            },
            {
              "internalType": "address",
              "name": "recipient",
              "type": "address"
            },
            {
              "internalType": "uint256",
              "name": "deadlineOrPreviousBlockhash",
              "type": "uint256"
            },
            {
              "internalType": "uint256",
              "name": "inputTokenPermit",
              "type": "uint256"
            },
            {
              "internalType": "uint24",
              "name": "fee",
              "type": "uint24"
            }
          ],
          "internalType": "struct IXXXFund.SwapOptions",
          "name": "options",
          "type": "tuple"
        }
      ],
      "name": "swap",
      "outputs": [
        {
          "internalType": "uint256",
          "name": "",
          "type": "uint256"
        }
      ],
      "stateMutability": "payable",
      "type": "function"
    },
    {
      "inputs": [
        {
          "internalType": "address",
          "name": "investor",
          "type": "address"
        },
        {
          "internalType": "address",
          "name": "_token",
          "type": "address"
        },
        {
          "internalType": "uint256",
          "name": "_amount",
          "type": "uint256"
        }
      ],
      "name": "withdraw",
      "outputs": [],
      "stateMutability": "nonpayable",
      "type": "function"
    }
  ],
  "bytecode": "0x60806040526000600555600160065534801561001a57600080fd5b50600080546001600160a01b03191633179055611e128061003c6000396000f3fe6080604052600436106100b15760003560e01c8063bc40f3bf11610069578063c4d66de81161004e578063c4d66de8146101a8578063d62e5da4146101c8578063d9caed12146101db576100b1565b8063bc40f3bf14610173578063c45a015514610193576100b1565b80637bb7bed11161009a5780637bb7bed11461010e5780638340f5491461013c578063abb06b951461015e576100b1565b806318324c11146100b6578063481c6a75146100ec575b600080fd5b3480156100c257600080fd5b506100d66100d136600461169d565b6101fb565b6040516100e39190611d20565b60405180910390f35b3480156100f857600080fd5b5061010161020d565b6040516100e39190611943565b34801561011a57600080fd5b5061012e610129366004611842565b61021c565b6040516100e39291906119a4565b34801561014857600080fd5b5061015c6101573660046116dc565b610241565b005b34801561016a57600080fd5b506100d6610457565b34801561017f57600080fd5b5061012e61018e3660046117b8565b61045d565b34801561019f57600080fd5b5061010161048d565b3480156101b457600080fd5b5061015c6101c336600461169d565b61049c565b6100d66101d636600461171c565b6104f5565b3480156101e757600080fd5b5061015c6101f63660046116dc565b61108e565b60036020526000908152604090205481565b6001546001600160a01b031681565b600460205260009081526040902080546001909101546001600160a01b039091169082565b60065460011461026c5760405162461bcd60e51b815260040161026390611c0d565b60405180910390fd5b6000600655336001600160a01b0384161461028657600080fd5b6000546040517fe3d8b3f60000000000000000000000000000000000000000000000000000000081526001600160a01b039091169063e3d8b3f6906102cf908590600401611943565b602060405180830381600087803b1580156102e957600080fd5b505af11580156102fd573d6000803e3d6000fd5b505050506040513d601f19601f8201168201806040525081019061032191906117e3565b61033d5760405162461bcd60e51b815260040161026390611b1c565b816001600160a01b03166323b872dd60e01b84308460405160240161036493929190611957565b60408051601f198184030181529181526020820180516001600160e01b03167fffffffff000000000000000000000000000000000000000000000000000000009094169390931790925290516103ba9190611927565b6000604051808303816000865af19150503d80600081146103f7576040519150601f19603f3d011682016040523d82523d6000602084013e6103fc565b606091505b50505061040a8383836111f1565b826001600160a01b03167f5548c837ab068cf56a2c2479df0882a4922fd203edb7517321831d95078c5f6283836040516104459291906119a4565b60405180910390a25050600160065550565b60055481565b6002602090815260009283526040808420909152908252902080546001909101546001600160a01b039091169082565b6000546001600160a01b031681565b6000546001600160a01b031633146104c65760405162461bcd60e51b815260040161026390611aae565b6001805473ffffffffffffffffffffffffffffffffffffffff19166001600160a01b0392909216919091179055565b6001546000906001600160a01b031633146105225760405162461bcd60e51b815260040161026390611ae5565b600080546001600160a01b03169063e3d8b3f690869086908161054157fe5b90506020028101906105539190611d75565b61056490608081019060600161169d565b6040518263ffffffff1660e01b81526004016105809190611943565b602060405180830381600087803b15801561059a57600080fd5b505af11580156105ae573d6000803e3d6000fd5b505050506040513d601f19601f820116820180604052508101906105d291906117e3565b6105ee5760405162461bcd60e51b8152600401610263906119bd565b60008060009054906101000a90046001600160a01b03166001600160a01b031663f5c8ba936040518163ffffffff1660e01b8152600401602060405180830381600087803b15801561063f57600080fd5b505af1158015610653573d6000803e3d6000fd5b505050506040513d601f19601f8201168201806040525081019061067791906116c0565b90508484600081811061068657fe5b90506020028101906106989190611d75565b6106a990606081019060400161169d565b6001600160a01b03167f095ea7b3000000000000000000000000000000000000000000000000000000008287876000816106df57fe5b90506020028101906106f19190611d75565b60e001356040516024016107069291906119a4565b60408051601f198184030181529181526020820180516001600160e01b03167fffffffff0000000000000000000000000000000000000000000000000000000090941693909317909252905161075c9190611927565b6000604051808303816000865af19150503d8060008114610799576040519150601f19603f3d011682016040523d82523d6000602084013e61079e565b606091505b50505060006107dc87878760008181106107b457fe5b90506020028101906107c69190611d75565b6107d790606081019060400161169d565b611271565b90506000805b86811015610819578787828181106107f657fe5b90506020028101906108089190611d75565b60a0013591909101906001016107e2565b508082116108395760405162461bcd60e51b815260040161026390611a77565b60008060005b8881101561107d5760008a8a8381811061085557fe5b90506020028101906108679190611d75565b610878906040810190602001611803565b600181111561088357fe5b1415610c305760008a8a8381811061089757fe5b90506020028101906108a99190611d75565b6108b7906020810190611803565b60018111156108c257fe5b1415610a6f5760006040518060e001604052808c8c858181106108e157fe5b90506020028101906108f39190611d75565b61090490606081019060400161169d565b6001600160a01b031681526020018c8c8581811061091e57fe5b90506020028101906109309190611d75565b61094190608081019060600161169d565b6001600160a01b0316815260200161095f60a08c0160808d0161181f565b62ffffff1681523360208201526040018c8c8581811061097b57fe5b905060200281019061098d9190611d75565b60a0013581526020018c8c858181106109a257fe5b90506020028101906109b49190611d75565b61010001358152600060209091015290508a8a838181106109d157fe5b90506020028101906109e39190611d75565b60a001359350866001600160a01b03166304e45aaf826040518263ffffffff1660e01b8152600401610a159190611d12565b602060405180830381600087803b158015610a2f57600080fd5b505af1158015610a43573d6000803e3d6000fd5b505050506040513d601f19601f82011682018060405250810190610a67919061185a565b925050610c2b565b60006040518060e001604052808c8c85818110610a8857fe5b9050602002810190610a9a9190611d75565b610aab90606081019060400161169d565b6001600160a01b031681526020018c8c85818110610ac557fe5b9050602002810190610ad79190611d75565b610ae890608081019060600161169d565b6001600160a01b03168152602001610b0660a08c0160808d0161181f565b62ffffff1681523360208201526040018c8c85818110610b2257fe5b9050602002810190610b349190611d75565b60c0013581526020018c8c85818110610b4957fe5b9050602002810190610b5b9190611d75565b60e00135815260006020909101526040517f5023b4df0000000000000000000000000000000000000000000000000000000081529091506001600160a01b03881690635023b4df90610bb1908490600401611d12565b602060405180830381600087803b158015610bcb57600080fd5b505af1158015610bdf573d6000803e3d6000fd5b505050506040513d601f19601f82011682018060405250810190610c03919061185a565b93508a8a83818110610c1157fe5b9050602002810190610c239190611d75565b60c001359250505b610f65565b60008a8a83818110610c3e57fe5b9050602002810190610c509190611d75565b610c5e906020810190611803565b6001811115610c6957fe5b1415610ddf57600060405180608001604052808c8c85818110610c8857fe5b9050602002810190610c9a9190611d75565b610ca8906080810190611d29565b8080601f0160208091040260200160405190810160405280939291908181526020018383808284376000920191909152505050908252503360208201526040018c8c85818110610cf457fe5b9050602002810190610d069190611d75565b60a0013581526020018c8c85818110610d1b57fe5b9050602002810190610d2d9190611d75565b60c00135905290508a8a83818110610d4157fe5b9050602002810190610d539190611d75565b60a001359350866001600160a01b031663b858183f826040518263ffffffff1660e01b8152600401610d859190611cff565b602060405180830381600087803b158015610d9f57600080fd5b505af1158015610db3573d6000803e3d6000fd5b505050506040513d601f19601f82011682018060405250810190610dd7919061185a565b925050610f65565b600060405180608001604052808c8c85818110610df857fe5b9050602002810190610e0a9190611d75565b610e18906080810190611d29565b8080601f0160208091040260200160405190810160405280939291908181526020018383808284376000920191909152505050908252503360208201526040018c8c85818110610e6457fe5b9050602002810190610e769190611d75565b60c0013581526020018c8c85818110610e8b57fe5b9050602002810190610e9d9190611d75565b60a0013590526040517f09b813460000000000000000000000000000000000000000000000000000000081529091506001600160a01b038816906309b8134690610eeb908490600401611cff565b602060405180830381600087803b158015610f0557600080fd5b505af1158015610f19573d6000803e3d6000fd5b505050506040513d601f19601f82011682018060405250810190610f3d919061185a565b93508a8a83818110610f4b57fe5b9050602002810190610f5d9190611d75565b60c001359250505b610fd08b8b8b6000818110610f7657fe5b9050602002810190610f889190611d75565b610f9990606081019060400161169d565b8c8c6000818110610fa657fe5b9050602002810190610fb89190611d75565b610fc990608081019060600161169d565b8686611306565b8a6001600160a01b03167fcd3829a3813dc3cdd188fd3d01dcf3268c16be2fdd2dd21d0665418816e460628b8b600081811061100857fe5b905060200281019061101a9190611d75565b61102b90606081019060400161169d565b8c8c600081811061103857fe5b905060200281019061104a9190611d75565b61105b90608081019060600161169d565b868660405161106d949392919061197b565b60405180910390a260010161083f565b5060019a9950505050505050505050565b6006546001146110b05760405162461bcd60e51b815260040161026390611c0d565b6000600655336001600160a01b038416146110ca57600080fd5b6110d583838361147e565b15156001146110f65760405162461bcd60e51b815260040161026390611bd6565b816001600160a01b031663a9059cbb60e01b848360405160240161111b9291906119a4565b60408051601f198184030181529181526020820180516001600160e01b03167fffffffff000000000000000000000000000000000000000000000000000000009094169390931790925290516111719190611927565b6000604051808303816000865af19150503d80600081146111ae576040519150601f19603f3d011682016040523d82523d6000602084013e6111b3565b606091505b505050826001600160a01b03167f9b1bfa7fa9ee420a16e124f794c35ac9f90472acc99140eb2f6447c714cad8eb83836040516104459291906119a4565b60006111fe848484611533565b9050801561126b576001600160a01b0384811660008181526003602081815260408084208054600284528286209086528352908420805473ffffffffffffffffffffffffffffffffffffffff1916968a169690961786556001958601889055939092529052805490910190555b50505050565b6000805b6001600160a01b0384166000908152600360205260409020548110156112fa576001600160a01b038481166000908152600260209081526040808320858452909152902054811690841614156112f2576001600160a01b038416600090815260026020908152604080832093835292905220600101549050611300565b600101611275565b50600090505b92915050565b6000546040517fb42c1d400000000000000000000000000000000000000000000000000000000081526001600160a01b039091169063b42c1d409061134f903390600401611943565b602060405180830381600087803b15801561136957600080fd5b505af115801561137d573d6000803e3d6000fd5b505050506040513d601f19601f820116820180604052508101906113a191906116c0565b6001600160a01b0316306001600160a01b0316146113d15760405162461bcd60e51b815260040161026390611c44565b60006113de8686856115c4565b905080156113fe5760405162461bcd60e51b815260040161026390611a1a565b611409868584611533565b90508015611476576001600160a01b0386811660008181526003602081815260408084208054600284528286209086528352908420805473ffffffffffffffffffffffffffffffffffffffff1916968b169690961786556001958601889055939092529052805490910190555b505050505050565b600080805b6001600160a01b03861660009081526003602052604090205481101561152a576001600160a01b03868116600090815260026020908152604080832085845290915290205481169086161415611522576001600160a01b03861660009081526002602090815260408083208484529091529020600101548411156115195760405162461bcd60e51b815260040161026390611b79565b6001915061152a565b600101611483565b50949350505050565b60006001815b6001600160a01b03861660009081526003602052604090205481101561152a576001600160a01b038681166000908152600260209081526040808320858452909152902054811690861614156115bc576001600160a01b03861660009081526002602090815260408083208484529091528120600101805486019055915061152a565b600101611539565b60006001815b6001600160a01b03861660009081526003602052604090205481101561152a576001600160a01b03868116600090815260026020908152604080832085845290915290205481169086161415611695576001600160a01b03861660009081526002602090815260408083208484529091528120600101549092508411156116635760405162461bcd60e51b815260040161026390611ca1565b6001600160a01b038616600090815260026020908152604080832084845290915290206001018054859003905561152a565b6001016115ca565b6000602082840312156116ae578081fd5b81356116b981611db7565b9392505050565b6000602082840312156116d1578081fd5b81516116b981611db7565b6000806000606084860312156116f0578182fd5b83356116fb81611db7565b9250602084013561170b81611db7565b929592945050506040919091013590565b60008060008084860360e0811215611732578182fd5b853561173d81611db7565b9450602086013567ffffffffffffffff80821115611759578384fd5b818801915088601f83011261176c578384fd5b81358181111561177a578485fd5b896020808302850101111561178d578485fd5b60209290920195509093505060a0603f19820112156117aa578182fd5b509295919450926040019150565b600080604083850312156117ca578182fd5b82356117d581611db7565b946020939093013593505050565b6000602082840312156117f4578081fd5b815180151581146116b9578182fd5b600060208284031215611814578081fd5b81356116b981611dcf565b600060208284031215611830578081fd5b813562ffffff811681146116b9578182fd5b600060208284031215611853578081fd5b5035919050565b60006020828403121561186b578081fd5b5051919050565b600081516080845280518060808601526118938160a0870160208501611d8b565b6020848101516001600160a01b03169086015260408085015190860152606093840151938501939093525050601f01601f19160160a00190565b6001600160a01b0380825116835280602083015116602084015262ffffff60408301511660408401528060608301511660608401526080820151608084015260a082015160a08401528060c08301511660c0840152505050565b60008251611939818460208701611d8b565b9190910192915050565b6001600160a01b0391909116815260200190565b6001600160a01b039384168152919092166020820152604081019190915260600190565b6001600160a01b0394851681529290931660208301526040820152606081019190915260800190565b6001600160a01b03929092168252602082015260400190565b60208082526032908201527f58585846756e64207377617045786163744f757470757453696e676c653a206e60408201527f6f742077686974656c69737420746f6b656e0000000000000000000000000000606082015260800190565b60208082526037908201527f75706461746553776170496e666f3a20496e76616c696420696e766573746f7260408201527f20746f6b656e20776974686472617720617474656d7074000000000000000000606082015260800190565b6020808252601f908201527f73776170526f757465723a20696e76616c696420696e707574416d6f756e7400604082015260600190565b6020808252601d908201527f58585846756e6420696e697469616c697a653a20464f5242494444454e000000604082015260600190565b6020808252601a908201527f73776170526f757465723a20696e76616c69642073656e646572000000000000604082015260600190565b60208082526027908201527f58585846756e6420696e697469616c697a653a206e6f742077686974656c697360408201527f7420746f6b656e00000000000000000000000000000000000000000000000000606082015260800190565b60208082526027908201527f77697468647261773a20496e76616c696420776974686472617720746f6b656e60408201527f20616d6f756e7400000000000000000000000000000000000000000000000000606082015260800190565b6020808252601e908201527f77697468647261773a20696e76616c696420746f6b656e20616d6f756e740000604082015260600190565b6020808252600f908201527f58585846756e643a204c4f434b45440000000000000000000000000000000000604082015260600190565b60208082526022908201527f75706461746553776170496e666f3a20696e76616c69642073776170526f757460408201527f6572000000000000000000000000000000000000000000000000000000000000606082015260800190565b602080825260409082018190527f6465637265617365546f6b656e416d6f756e743a20646563726561736520746f908201527f6b656e20616d6f756e74206973206d6f7265207468616e20796f752068617665606082015260800190565b6000602082526116b96020830184611872565b60e0810161130082846118cd565b90815260200190565b6000808335601e19843603018112611d3f578283fd5b83018035915067ffffffffffffffff821115611d59578283fd5b602001915036819003821315611d6e57600080fd5b9250929050565b6000823561011e19833603018112611939578182fd5b60005b83811015611da6578181015183820152602001611d8e565b8381111561126b5750506000910152565b6001600160a01b0381168114611dcc57600080fd5b50565b60028110611dcc57600080fdfea2646970667358221220395faed99745029a60873a5e1b625d9f18d60f62266ca8ac0bbb0fe5eed9505b64736f6c63430007060033",
  "linkReferences": {},
  "deployedLinkReferences": {}
}