{
  "_format": "hh-sol-artifact-1",
  "contractName": "XXXFactory",
  "sourceName": "contracts/XXXFactory.sol",
  "abi": [
    {
      "inputs": [],
      "stateMutability": "nonpayable",
      "type": "constructor"
    },
    {
      "anonymous": false,
      "inputs": [
        {
          "indexed": false,
          "internalType": "address",
          "name": "fund",
          "type": "address"
        },
        {
          "indexed": false,
          "internalType": "address",
          "name": "manager",
          "type": "address"
        }
      ],
      "name": "Create",
      "type": "event"
    },
    {
      "anonymous": false,
      "inputs": [
        {
          "indexed": true,
          "internalType": "address",
          "name": "oldOwner",
          "type": "address"
        },
        {
          "indexed": true,
          "internalType": "address",
          "name": "newOwner",
          "type": "address"
        }
      ],
      "name": "OwnerChanged",
      "type": "event"
    },
    {
      "inputs": [
        {
          "internalType": "address",
          "name": "_token",
          "type": "address"
        }
      ],
      "name": "addWhiteListToken",
      "outputs": [],
      "stateMutability": "nonpayable",
      "type": "function"
    },
    {
      "inputs": [
        {
          "internalType": "address",
          "name": "manager",
          "type": "address"
        }
      ],
      "name": "createFund",
      "outputs": [
        {
          "internalType": "address",
          "name": "fund",
          "type": "address"
        }
      ],
      "stateMutability": "nonpayable",
      "type": "function"
    },
    {
      "inputs": [],
      "name": "fundCount",
      "outputs": [
        {
          "internalType": "uint256",
          "name": "",
          "type": "uint256"
        }
      ],
      "stateMutability": "view",
      "type": "function"
    },
    {
      "inputs": [
        {
          "internalType": "address",
          "name": "",
          "type": "address"
        }
      ],
      "name": "getFund",
      "outputs": [
        {
          "internalType": "address",
          "name": "",
          "type": "address"
        }
      ],
      "stateMutability": "view",
      "type": "function"
    },
    {
      "inputs": [],
      "name": "getManagerFee",
      "outputs": [
        {
          "internalType": "uint256",
          "name": "",
          "type": "uint256"
        }
      ],
      "stateMutability": "nonpayable",
      "type": "function"
    },
    {
      "inputs": [],
      "name": "getSwapRouterAddress",
      "outputs": [
        {
          "internalType": "address",
          "name": "",
          "type": "address"
        }
      ],
      "stateMutability": "nonpayable",
      "type": "function"
    },
    {
      "inputs": [],
      "name": "getWhiteListTokens",
      "outputs": [
        {
          "internalType": "address[]",
          "name": "",
          "type": "address[]"
        }
      ],
      "stateMutability": "nonpayable",
      "type": "function"
    },
    {
      "inputs": [
        {
          "internalType": "address",
          "name": "_token",
          "type": "address"
        }
      ],
      "name": "isWhiteListToken",
      "outputs": [
        {
          "internalType": "bool",
          "name": "",
          "type": "bool"
        }
      ],
      "stateMutability": "nonpayable",
      "type": "function"
    },
    {
      "inputs": [],
      "name": "owner",
      "outputs": [
        {
          "internalType": "address",
          "name": "",
          "type": "address"
        }
      ],
      "stateMutability": "view",
      "type": "function"
    },
    {
      "inputs": [
        {
          "internalType": "address",
          "name": "_token",
          "type": "address"
        }
      ],
      "name": "removeWhiteListToken",
      "outputs": [],
      "stateMutability": "nonpayable",
      "type": "function"
    },
    {
      "inputs": [
        {
          "internalType": "uint256",
          "name": "_managerFee",
          "type": "uint256"
        }
      ],
      "name": "setManagerFee",
      "outputs": [],
      "stateMutability": "nonpayable",
      "type": "function"
    },
    {
      "inputs": [
        {
          "internalType": "address",
          "name": "_owner",
          "type": "address"
        }
      ],
      "name": "setOwner",
      "outputs": [],
      "stateMutability": "nonpayable",
      "type": "function"
    },
    {
      "inputs": [
        {
          "internalType": "address",
          "name": "_swapRouterAddress",
          "type": "address"
        }
      ],
      "name": "setSwapRouterAddress",
      "outputs": [],
      "stateMutability": "nonpayable",
      "type": "function"
    }
  ],
  "bytecode": "0x6080604052600180546001600160a01b03191673e592427a0aece92de3edee1f18e0157c0586156417815560025534801561003957600080fd5b50600080546001600160a01b03191633908117825560058290556040519091907fb532073b38c83145e3e5135377a08bf9aab55bc0fd7c1179cd4fb995d2a5159c908290a3600380546001818101835560008390527fc2575a0e9e593c00f959f8c92f12db2869c3395a3b0502d05e2516446f71f85b91820180546001600160a01b031990811673c02aaa39b223fe8d0a0e5c4f27ead9083c756cc21790915583548083018555830180548216732260fac5e5542a773aa44fbcfedf7c193bc2c5991790558354808301855583018054821673a0b86991c6218b36c1d19d4a2e9eb0ce3606eb4817905583548083018555830180548216736b175474e89094c44da98b954eedeac495271d0f17905583548083018555830180548216731f9840a85d5af5bf1d1762f925bdaddc4201f98417905583549182019093550180549091167364f0131a028293d160a172b29f10d8a457406a84179055613362806101a26000396000f3fe608060405234801561001057600080fd5b50600436106100df5760003560e01c80638da5cb5b1161008c578063d7772da211610066578063d7772da2146101bb578063e3d8b3f6146101ce578063f217c929146101f1578063f5c8ba931461020457600080fd5b80638da5cb5b14610152578063b42c1d401461017d578063c72c5be2146101a657600080fd5b80633f936ff5116100bd5780633f936ff5146101235780635249961b1461012c578063827a5a251461013f57600080fd5b8063013e9fdd146100e457806313af4035146100f9578063198055381461010c575b600080fd5b6100f76100f2366004610846565b610215565b005b6100f7610107366004610846565b610288565b6002545b6040519081526020015b60405180910390f35b61011060055481565b6100f761013a366004610846565b6102fa565b6100f761014d366004610846565b610333565b600054610165906001600160a01b031681565b6040516001600160a01b03909116815260200161011a565b61016561018b366004610846565b6004602052600090815260409020546001600160a01b031681565b6101ae61048b565b60405161011a919061088c565b6101656101c9366004610846565b610581565b6101e16101dc366004610846565b6107a5565b604051901515815260200161011a565b6100f76101ff366004610874565b61081d565b6001546001600160a01b0316610165565b6000546001600160a01b0316331461022c57600080fd5b610235816107a5565b61028557600380546001810182556000919091527fc2575a0e9e593c00f959f8c92f12db2869c3395a3b0502d05e2516446f71f85b0180546001600160a01b0319166001600160a01b0383161790555b50565b6000546001600160a01b0316331461029f57600080fd5b600080546040516001600160a01b03808516939216917fb532073b38c83145e3e5135377a08bf9aab55bc0fd7c1179cd4fb995d2a5159c91a3600080546001600160a01b0319166001600160a01b0392909216919091179055565b6000546001600160a01b0316331461031157600080fd5b600180546001600160a01b0319166001600160a01b0392909216919091179055565b6000546001600160a01b0316331461034a57600080fd5b60005b60035481101561048757816001600160a01b03166003828154811061038257634e487b7160e01b600052603260045260246000fd5b6000918252602090912001546001600160a01b0316141561047557600380546103ad906001906108f1565b815481106103cb57634e487b7160e01b600052603260045260246000fd5b600091825260209091200154600380546001600160a01b03909216918390811061040557634e487b7160e01b600052603260045260246000fd5b9060005260206000200160006101000a8154816001600160a01b0302191690836001600160a01b03160217905550600380548061045257634e487b7160e01b600052603160045260246000fd5b600082815260209020810160001990810180546001600160a01b03191690550190555b8061047f81610908565b91505061034d565b5050565b60035460609060008167ffffffffffffffff8111156104ba57634e487b7160e01b600052604160045260246000fd5b6040519080825280602002602001820160405280156104e3578160200160208202803683370190505b50905060005b8281101561057a576003818154811061051257634e487b7160e01b600052603260045260246000fd5b9060005260206000200160009054906101000a90046001600160a01b031682828151811061055057634e487b7160e01b600052603260045260246000fd5b6001600160a01b03909216602092830291909101909101528061057281610908565b9150506104e9565b5092915050565b6000336001600160a01b038316146105e05760405162461bcd60e51b815260206004820152601f60248201527f585858466163746f72793a204944454e544943414c5f4144445245535345530060448201526064015b60405180910390fd5b6001600160a01b0382811660009081526004602052604090205416156106485760405162461bcd60e51b815260206004820152601760248201527f585858466163746f72793a2046554e445f45584953545300000000000000000060448201526064016105d7565b604080513060208201526001600160a01b038416918101919091526060016040516020818303038152906040528051906020012060405161068890610839565b8190604051809103906000f59050801580156106a8573d6000803e3d6000fd5b506001600160a01b0383811660008181526004602081905260409182902080546001600160a01b031916948616948517905590517fc4d66de8000000000000000000000000000000000000000000000000000000008152908101919091529192509063c4d66de890602401600060405180830381600087803b15801561072d57600080fd5b505af1158015610741573d6000803e3d6000fd5b5050505060016005600082825461075891906108d9565b9091555050604080516001600160a01b038084168252841660208201527f96b5b9b8a7193304150caccf9b80d150675fa3d6af57761d8d8ef1d6f9a1a909910160405180910390a1919050565b6000805b60035481101561081457826001600160a01b0316600382815481106107de57634e487b7160e01b600052603260045260246000fd5b6000918252602090912001546001600160a01b031614156108025750600192915050565b8061080c81610908565b9150506107a9565b50600092915050565b6000546001600160a01b0316331461083457600080fd5b600255565b6129f38061093a83390190565b600060208284031215610857578081fd5b81356001600160a01b038116811461086d578182fd5b9392505050565b600060208284031215610885578081fd5b5035919050565b6020808252825182820181905260009190848201906040850190845b818110156108cd5783516001600160a01b0316835292840192918401916001016108a8565b50909695505050505050565b600082198211156108ec576108ec610923565b500190565b60008282101561090357610903610923565b500390565b600060001982141561091c5761091c610923565b5060010190565b634e487b7160e01b600052601160045260246000fdfe6080604052600060045560006006556000600b556001600c5534801561002457600080fd5b50600080546001600160a01b031916331790556129ad806100466000396000f3fe608060405234801561001057600080fd5b50600436106101365760003560e01c8063abb06b95116100b2578063d9caed1211610081578063f32b7b7911610066578063f32b7b79146102ee578063f9fbdc0f146102f6578063fff1939c1461030957600080fd5b8063d9caed12146102d3578063f03527b0146102e657600080fd5b8063abb06b9514610266578063bc40f3bf1461026f578063c45a0155146102ad578063c4d66de8146102c057600080fd5b80637bb7bed1116101095780638f45244a116100ee5780638f45244a14610229578063914ac1e01461023e57806392106f051461025157600080fd5b80637bb7bed1146101c25780638340f5491461021457600080fd5b80630c4c1eba1461013b57806318324c111461016e578063201718401461018e578063481c6a7514610197575b600080fd5b61015b610149366004612540565b60076020526000908152604090205481565b6040519081526020015b60405180910390f35b61015b61017c366004612540565b60096020526000908152604090205481565b61015b60065481565b6001546101aa906001600160a01b031681565b6040516001600160a01b039091168152602001610165565b6101f56101d0366004612666565b600a60205260009081526040902080546001909101546001600160a01b039091169082565b604080516001600160a01b039093168352602083019190915201610165565b61022761022236600461257f565b61033c565b005b610231610511565b60405161016591906126de565b61015b61024c36600461260a565b6106ea565b610259610b68565b6040516101659190612772565b61015b600b5481565b6101f561027d3660046125bf565b6008602090815260009283526040808420909152908252902080546001909101546001600160a01b039091169082565b6000546101aa906001600160a01b031681565b6102276102ce366004612540565b610d2d565b6102276102e136600461257f565b610da9565b610227610f98565b610227611089565b61015b61030436600461260a565b611172565b6101f5610317366004612666565b600560205260009081526040902080546001909101546001600160a01b039091169082565b600c546001146103855760405162461bcd60e51b815260206004820152600f60248201526e161616119d5b990e881313d0d2d151608a1b60448201526064015b60405180910390fd5b6000600c55336001600160a01b0384161461039f57600080fd5b6000546040517fe3d8b3f60000000000000000000000000000000000000000000000000000000081526001600160a01b0384811660048301529091169063e3d8b3f690602401602060405180830381600087803b1580156103ff57600080fd5b505af1158015610413573d6000803e3d6000fd5b505050506040513d601f19601f8201168201806040525081019061043791906125ea565b6104a95760405162461bcd60e51b815260206004820152602760248201527f58585846756e6420696e697469616c697a653a206e6f742077686974656c697360448201527f7420746f6b656e00000000000000000000000000000000000000000000000000606482015260840161037c565b6104b582843084611595565b6104c08383836116d2565b604080516001600160a01b038481168252602082018490528516917f5548c837ab068cf56a2c2479df0882a4922fd203edb7517321831d95078c5f6291015b60405180910390a250506001600c5550565b60035460609060008167ffffffffffffffff81111561054057634e487b7160e01b600052604160045260246000fd5b6040519080825280602002602001820160405280156105a357816020015b6105906040518060a0016040528060608152602001600081526020016000815260200160008152602001600081525090565b81526020019060019003908161055e5790505b50905060005b828110156106e357600381815481106105d257634e487b7160e01b600052603260045260246000fd5b90600052602060002090600502016040518060a00160405290816000820180546105fb906128f9565b80601f0160208091040260200160405190810160405280929190818152602001828054610627906128f9565b80156106745780601f1061064957610100808354040283529160200191610674565b820191906000526020600020905b81548152906001019060200180831161065757829003601f168201915b505050505081526020016001820154815260200160028201548152602001600382015481526020016004820154815250508282815181106106c557634e487b7160e01b600052603260045260246000fd5b602002602001018190525080806106db9061292e565b9150506105a9565b5092915050565b6000600c546001146107305760405162461bcd60e51b815260206004820152600f60248201526e161616119d5b990e881313d0d2d151608a1b604482015260640161037c565b6000600c556001546001600160a01b0316331461077d5760405162461bcd60e51b815260206004820152600b60248201526a2737ba1036b0b730b3b2b960a91b604482015260640161037c565b6000546001600160a01b031663e3d8b3f661079e6040860160208701612540565b6040517fffffffff0000000000000000000000000000000000000000000000000000000060e084901b1681526001600160a01b039091166004820152602401602060405180830381600087803b1580156107f757600080fd5b505af115801561080b573d6000803e3d6000fd5b505050506040513d601f19601f8201168201806040525081019061082f91906125ea565b6108a15760405162461bcd60e51b815260206004820152603260248201527f58585846756e64207377617045786163744f757470757453696e676c653a206e60448201527f6f742077686974656c69737420746f6b656e0000000000000000000000000000606482015260840161037c565b60008060009054906101000a90046001600160a01b03166001600160a01b031663f5c8ba936040518163ffffffff1660e01b8152600401602060405180830381600087803b1580156108f257600080fd5b505af1158015610906573d6000803e3d6000fd5b505050506040513d601f19601f8201168201806040525081019061092a9190612563565b905061094761093c6020860186612540565b828660c00135611810565b604080516101008101909152600090806109646020880188612540565b6001600160a01b031681526020018660200160208101906109859190612540565b6001600160a01b031681526020016109a36060880160408901612643565b62ffffff168152602001306001600160a01b03168152602001866080013581526020018660a0013581526020018660c00135815260200160006001600160a01b03168152509050816001600160a01b031663db3e2198826040518263ffffffff1660e01b8152600401610a1691906127ed565b602060405180830381600087803b158015610a3057600080fd5b505af1158015610a44573d6000803e3d6000fd5b505050506040513d601f19601f82011682018060405250810190610a68919061267e565b92508460c00135831015610ab257610a8e610a866020870187612540565b836000611810565b610ab2610a9e6020870187612540565b33610aad8660c08a01356128b2565b611944565b610ade84610ac36020880188612540565b610ad36040890160208a01612540565b868960a00135611a71565b6001600160a01b0384167fcd3829a3813dc3cdd188fd3d01dcf3268c16be2fdd2dd21d0665418816e46062610b166020880188612540565b610b266040890160208a01612540565b604080516001600160a01b039384168152929091166020830152810186905260a088013560608201526080015b60405180910390a250506001600c5592915050565b60025460609060008167ffffffffffffffff811115610b9757634e487b7160e01b600052604160045260246000fd5b604051908082528060200260200182016040528015610bf557816020015b610be260405180606001604052806060815260200160006001600160a01b03168152602001600081525090565b815260200190600190039081610bb55790505b50905060005b828110156106e35760028181548110610c2457634e487b7160e01b600052603260045260246000fd5b9060005260206000209060030201604051806060016040529081600082018054610c4d906128f9565b80601f0160208091040260200160405190810160405280929190818152602001828054610c79906128f9565b8015610cc65780601f10610c9b57610100808354040283529160200191610cc6565b820191906000526020600020905b815481529060010190602001808311610ca957829003601f168201915b505050918352505060018201546001600160a01b031660208201526002909101546040909101528251839083908110610d0f57634e487b7160e01b600052603260045260246000fd5b60200260200101819052508080610d259061292e565b915050610bfb565b6000546001600160a01b03163314610d875760405162461bcd60e51b815260206004820152601d60248201527f58585846756e6420696e697469616c697a653a20464f5242494444454e000000604482015260640161037c565b600180546001600160a01b0319166001600160a01b0392909216919091179055565b600c54600114610ded5760405162461bcd60e51b815260206004820152600f60248201526e161616119d5b990e881313d0d2d151608a1b604482015260640161037c565b6000600c55336001600160a01b03841614610e0757600080fd5b610e12838383611ca6565b1515600114610e635760405162461bcd60e51b815260206004820152601760248201527f77697468647261773a20496e76616c696420746f6b656e000000000000000000604482015260640161037c565b6001546001600160a01b0384811691161415610e9457610e84828483611944565b610e8f838383611dbb565b610f55565b6000610ea1848484611f5c565b90508015610f3d576000610eb58183612873565b90506000610ec385836120cb565b90508015610f1c57600b80546000908152600a602052604080822080546001600160a01b0319166001600160a01b038a161790558254825281206001908101859055825490929190610f1690849061285b565b90915550505b610f2b8587610aad85886128b2565b610f36868686611dbb565b5050610f53565b610f48838584611944565b610f53848484611dbb565b505b604080516001600160a01b038481168252602082018490528516917f9b1bfa7fa9ee420a16e124f794c35ac9f90472acc99140eb2f6447c714cad8eb91016104ff565b610fc560405180606001604052806060815260200160006001600160a01b03168152602001600081525090565b604080518082018252600a8152690323032322d30382d31360b41b60208083019190915290835273e592427a0aece92de3edee1f18e0157c058615648382015260009183018290526002805460018101825592528251805184936003027f405787fa12a823e0f2b7631cc41b3ba8828b3321ca811111fa75cd3aa3bb5ace019261105392849291019061248f565b5060208201516001820180546001600160a01b0319166001600160a01b0390921691909117905560409091015160029091015550565b6110bb6040518060a0016040528060608152602001600081526020016000815260200160008152602001600081525090565b604080518082018252600a8152690323032322d30382d31360b41b602080830191909152908352600083820181905291830182905260608301829052608083018290526003805460018101825592528251805184936005027fc2575a0e9e593c00f959f8c92f12db2869c3395a3b0502d05e2516446f71f85b019261114492849291019061248f565b5060208201518160010155604082015181600201556060820151816003015560808201518160040155505050565b6000600c546001146111b85760405162461bcd60e51b815260206004820152600f60248201526e161616119d5b990e881313d0d2d151608a1b604482015260640161037c565b6000600c556001546001600160a01b031633146112055760405162461bcd60e51b815260206004820152600b60248201526a2737ba1036b0b730b3b2b960a91b604482015260640161037c565b6000546001600160a01b031663e3d8b3f66112266040860160208701612540565b6040517fffffffff0000000000000000000000000000000000000000000000000000000060e084901b1681526001600160a01b039091166004820152602401602060405180830381600087803b15801561127f57600080fd5b505af1158015611293573d6000803e3d6000fd5b505050506040513d601f19601f820116820180604052508101906112b791906125ea565b6113295760405162461bcd60e51b815260206004820152603160248201527f58585846756e6420737761704578616374496e70757453696e676c653a206e6f60448201527f742077686974656c69737420746f6b656e000000000000000000000000000000606482015260840161037c565b60008060009054906101000a90046001600160a01b03166001600160a01b031663f5c8ba936040518163ffffffff1660e01b8152600401602060405180830381600087803b15801561137a57600080fd5b505af115801561138e573d6000803e3d6000fd5b505050506040513d601f19601f820116820180604052508101906113b29190612563565b90506113cf6113c46020860186612540565b828660a00135611810565b604080516101008101909152600090806113ec6020880188612540565b6001600160a01b0316815260200186602001602081019061140d9190612540565b6001600160a01b0316815260200161142b6060880160408901612643565b62ffffff168152602001306001600160a01b03168152602001866080013581526020018660a0013581526020016000815260200160006001600160a01b03168152509050816001600160a01b031663414bf389826040518263ffffffff1660e01b815260040161149b91906127ed565b602060405180830381600087803b1580156114b557600080fd5b505af11580156114c9573d6000803e3d6000fd5b505050506040513d601f19601f820116820180604052508101906114ed919061267e565b925061151b846115006020880188612540565b6115106040890160208a01612540565b8860a0013587611a71565b6001600160a01b0384167fcd3829a3813dc3cdd188fd3d01dcf3268c16be2fdd2dd21d0665418816e460626115536020880188612540565b6115636040890160208a01612540565b604080516001600160a01b03938416815292909116602083015260a08901359082015260608101869052608001610b53565b604080516001600160a01b0385811660248301528481166044830152606480830185905283518084039091018152608490920183526020820180516001600160e01b03167f23b872dd00000000000000000000000000000000000000000000000000000000179052915160009283929088169161161291906126c2565b6000604051808303816000865af19150503d806000811461164f576040519150601f19603f3d011682016040523d82523d6000602084013e611654565b606091505b509150915081801561167e57508051158061167e57508080602001905181019061167e91906125ea565b6116ca5760405162461bcd60e51b815260206004820152600360248201527f5354460000000000000000000000000000000000000000000000000000000000604482015260640161037c565b505050505050565b60006116de8383612149565b90508015611737576006805460009081526005602052604080822080546001600160a01b0319166001600160a01b038816179055825482528120600190810185905582549092919061173190849061285b565b90915550505b60006117438382612893565b90508060046000828254611757919061285b565b909155506000905061176a8686866121b2565b905080156117db576001600160a01b038681166000818152600960208181526040808420805460088452828620818752845291852080546001600160a01b031916978d1697909717875560019687018b9055948452919052825490939291906117d490849061285b565b9091555050505b6001600160a01b0386166000908152600760205260408120805484929061180390849061285b565b9091555050505050505050565b604080516001600160a01b038481166024830152604480830185905283518084039091018152606490920183526020820180516001600160e01b03167f095ea7b300000000000000000000000000000000000000000000000000000000179052915160009283929087169161188591906126c2565b6000604051808303816000865af19150503d80600081146118c2576040519150601f19603f3d011682016040523d82523d6000602084013e6118c7565b606091505b50915091508180156118f15750805115806118f15750808060200190518101906118f191906125ea565b61193d5760405162461bcd60e51b815260206004820152600260248201527f5341000000000000000000000000000000000000000000000000000000000000604482015260640161037c565b5050505050565b604080516001600160a01b038481166024830152604480830185905283518084039091018152606490920183526020820180516001600160e01b03167fa9059cbb0000000000000000000000000000000000000000000000000000000017905291516000928392908716916119b991906126c2565b6000604051808303816000865af19150503d80600081146119f6576040519150601f19603f3d011682016040523d82523d6000602084013e6119fb565b606091505b5091509150818015611a25575080511580611a25575080806020019051810190611a2591906125ea565b61193d5760405162461bcd60e51b815260206004820152600260248201527f5354000000000000000000000000000000000000000000000000000000000000604482015260640161037c565b6001546001600160a01b03163314611ab95760405162461bcd60e51b815260206004820152600b60248201526a2737ba1036b0b730b3b2b960a91b604482015260640161037c565b6000611ac5858461225f565b90508015611b3b5760405162461bcd60e51b815260206004820152602f60248201527f75706461746553776170496e666f3a20496e76616c69642066756e6420746f6b60448201527f656e207377617020617474656d70740000000000000000000000000000000000606482015260840161037c565b611b458483612149565b90508015611b9e576006805460009081526005602052604080822080546001600160a01b0319166001600160a01b0389161790558254825281206001908101859055825490929190611b9890849061285b565b90915550505b6000611bab878786612350565b90508015611c215760405162461bcd60e51b815260206004820152603760248201527f75706461746553776170496e666f3a20496e76616c696420696e766573746f7260448201527f20746f6b656e20776974686472617720617474656d7074000000000000000000606482015260840161037c565b611c2c8786856121b2565b90508015611c9d576001600160a01b038781166000818152600960208181526040808420805460088452828620818752845291852080546001600160a01b031916978d1697909717875560019687018a905594845291905282549093929190611c9690849061285b565b9091555050505b50505050505050565b600080805b6001600160a01b038616600090815260096020526040902054811015611db2576001600160a01b03868116600090815260086020908152604080832085845290915290205481169086161415611da0576001600160a01b0386166000908152600860209081526040808320848452909152902060010154841115611d975760405162461bcd60e51b815260206004820152602760248201527f77697468647261773a20496e76616c696420776974686472617720746f6b656e60448201527f20616d6f756e7400000000000000000000000000000000000000000000000000606482015260840161037c565b60019150611db2565b80611daa8161292e565b915050611cab565b50949350505050565b6000611dc7838361225f565b90508015611e3d5760405162461bcd60e51b815260206004820152603760248201527f7570646174655769746864726177496e666f3a20496e76616c69642066756e6460448201527f20746f6b656e20776974686472617720617474656d7074000000000000000000606482015260840161037c565b6000611e498382612893565b90506000611e578183612873565b905080600454611e679190612893565b60046000828254611e7891906128b2565b9091555060009050611e8b878787612350565b90508015611f015760405162461bcd60e51b815260206004820152603b60248201527f7570646174655769746864726177496e666f3a20496e76616c696420696e766560448201527f73746f7220746f6b656e20776974686472617720617474656d70740000000000606482015260840161037c565b6000611f0d8185612873565b6001600160a01b038916600090815260076020526040902054909150611f34908290612893565b6001600160a01b03891660009081526007602052604081208054909190611c969084906128b2565b600080611f698382612893565b90506001600160a01b038516611fe75760405162461bcd60e51b815260206004820152602a60248201527f6765744d616e616765725265776172643a20496e76616c696420696e7665737460448201527f6f72206164647265737300000000000000000000000000000000000000000000606482015260840161037c565b6001600160a01b0385166000908152600760205260408120548190819061200e90826128b2565b905080156120bf57818460008054906101000a90046001600160a01b03166001600160a01b031663198055386040518163ffffffff1660e01b8152600401602060405180830381600087803b15801561206657600080fd5b505af115801561207a573d6000803e3d6000fd5b505050506040513d601f19601f8201168201806040525081019061209e919061267e565b6120a89084612893565b6120b29190612893565b6120bc9190612873565b92505b50909695505050505050565b60006001815b600b5481101561213f576000818152600a60205260409020546001600160a01b038681169116141561212d576000818152600a6020526040812060010180549193508591849061212290849061285b565b9091555061213f9050565b806121378161292e565b9150506120d1565b5090505b92915050565b60006001815b60065481101561213f576000818152600560205260409020546001600160a01b03868116911614156121a057600081815260056020526040812060010180549193508591849061212290849061285b565b806121aa8161292e565b91505061214f565b60006001815b6001600160a01b038616600090815260096020526040902054811015611db2576001600160a01b0386811660009081526008602090815260408083208584529091529020548116908616141561224d576001600160a01b0386166000908152600860209081526040808320848452909152812060010180549193508591849061224290849061285b565b90915550611db29050565b806122578161292e565b9150506121b8565b60006001815b60065481101561213f576000818152600560205260409020546001600160a01b038681169116141561233e5760008181526005602052604081206001015490925084111561231d576040805162461bcd60e51b81526020600482015260248101919091527f6465637265617365546f6b656e416d6f756e743a20646563726561736520746f60448201527f6b656e20616d6f756e74206973206d6f7265207468616e20796f752068617665606482015260840161037c565b600081815260056020526040812060010180548692906121229084906128b2565b806123488161292e565b915050612265565b60006001815b6001600160a01b038616600090815260096020526040902054811015611db2576001600160a01b0386811660009081526008602090815260408083208584529091529020548116908616141561247d576001600160a01b0386166000908152600860209081526040808320848452909152812060010154909250841115612447576040805162461bcd60e51b81526020600482015260248101919091527f6465637265617365546f6b656e416d6f756e743a20646563726561736520746f60448201527f6b656e20616d6f756e74206973206d6f7265207468616e20796f752068617665606482015260840161037c565b6001600160a01b0386166000908152600860209081526040808320848452909152812060010180548692906122429084906128b2565b806124878161292e565b915050612356565b82805461249b906128f9565b90600052602060002090601f0160209004810192826124bd5760008555612503565b82601f106124d657805160ff1916838001178555612503565b82800160010185558215612503579182015b828111156125035782518255916020019190600101906124e8565b5061250f929150612513565b5090565b5b8082111561250f5760008155600101612514565b6000610100828403121561253a578081fd5b50919050565b600060208284031215612551578081fd5b813561255c8161295f565b9392505050565b600060208284031215612574578081fd5b815161255c8161295f565b600080600060608486031215612593578182fd5b833561259e8161295f565b925060208401356125ae8161295f565b929592945050506040919091013590565b600080604083850312156125d1578182fd5b82356125dc8161295f565b946020939093013593505050565b6000602082840312156125fb578081fd5b8151801515811461255c578182fd5b600080610120838503121561261d578182fd5b6126278484612528565b91506101008301356126388161295f565b809150509250929050565b600060208284031215612654578081fd5b813562ffffff8116811461255c578182fd5b600060208284031215612677578081fd5b5035919050565b60006020828403121561268f578081fd5b5051919050565b600081518084526126ae8160208601602086016128c9565b601f01601f19169290920160200192915050565b600082516126d48184602087016128c9565b9190910192915050565b60006020808301818452808551808352604092508286019150828160051b870101848801865b8381101561276457603f19898403018552815160a0815181865261272a82870182612696565b838b0151878c0152898401518a88015260608085015190880152608093840151939096019290925250509386019390860190600101612704565b509098975050505050505050565b60006020808301818452808551808352604092508286019150828160051b870101848801865b8381101561276457603f198984030185528151606081518186526127be82870182612696565b838b01516001600160a01b0316878c015292890151958901959095525094870194925090860190600101612798565b610100810161214382846001600160a01b0380825116835280602083015116602084015262ffffff60408301511660408401528060608301511660608401526080820151608084015260a082015160a084015260c082015160c08401528060e08301511660e0840152505050565b6000821982111561286e5761286e612949565b500190565b60008261288e57634e487b7160e01b81526012600452602481fd5b500490565b60008160001904831182151516156128ad576128ad612949565b500290565b6000828210156128c4576128c4612949565b500390565b60005b838110156128e45781810151838201526020016128cc565b838111156128f3576000848401525b50505050565b600181811c9082168061290d57607f821691505b6020821081141561253a57634e487b7160e01b600052602260045260246000fd5b600060001982141561294257612942612949565b5060010190565b634e487b7160e01b600052601160045260246000fd5b6001600160a01b038116811461297457600080fd5b5056fea264697066735822122022974256a801da1092f7c3955c90df409534d92a94fdacb12276fb3ae5511c9f64736f6c63430008040033a2646970667358221220e916dabe05dfd1be92545429aa2aef0046e19e2ea1cb3f33051001edeb8c703964736f6c63430008040033",
  "linkReferences": {},
  "deployedLinkReferences": {}
}