{
  "_format": "hh-sol-artifact-1",
  "contractName": "XXXFund",
  "sourceName": "contracts/XXXFund.sol",
  "abi": [
    {
      "inputs": [],
      "stateMutability": "nonpayable",
      "type": "constructor"
    },
    {
      "anonymous": false,
      "inputs": [
        {
          "indexed": true,
          "internalType": "address",
          "name": "investor",
          "type": "address"
        },
        {
          "indexed": false,
          "internalType": "address",
          "name": "_token",
          "type": "address"
        },
        {
          "indexed": false,
          "internalType": "uint256",
          "name": "_amount",
          "type": "uint256"
        }
      ],
      "name": "Deposit",
      "type": "event"
    },
    {
      "anonymous": false,
      "inputs": [
        {
          "indexed": true,
          "internalType": "address",
          "name": "manager",
          "type": "address"
        },
        {
          "indexed": false,
          "internalType": "address",
          "name": "tokenIn",
          "type": "address"
        },
        {
          "indexed": false,
          "internalType": "address",
          "name": "tokenOut",
          "type": "address"
        },
        {
          "indexed": false,
          "internalType": "uint256",
          "name": "amountIn",
          "type": "uint256"
        },
        {
          "indexed": false,
          "internalType": "uint256",
          "name": "amountOut",
          "type": "uint256"
        }
      ],
      "name": "Swap",
      "type": "event"
    },
    {
      "anonymous": false,
      "inputs": [
        {
          "indexed": true,
          "internalType": "address",
          "name": "investor",
          "type": "address"
        },
        {
          "indexed": false,
          "internalType": "address",
          "name": "_token",
          "type": "address"
        },
        {
          "indexed": false,
          "internalType": "uint256",
          "name": "_amount",
          "type": "uint256"
        }
      ],
      "name": "Withdraw",
      "type": "event"
    },
    {
      "inputs": [],
      "name": "addManagerHistory",
      "outputs": [],
      "stateMutability": "nonpayable",
      "type": "function"
    },
    {
      "inputs": [],
      "name": "addReservedTokenHistory",
      "outputs": [],
      "stateMutability": "nonpayable",
      "type": "function"
    },
    {
      "inputs": [
        {
          "internalType": "address",
          "name": "investor",
          "type": "address"
        },
        {
          "internalType": "address",
          "name": "_token",
          "type": "address"
        },
        {
          "internalType": "uint256",
          "name": "_amount",
          "type": "uint256"
        }
      ],
      "name": "deposit",
      "outputs": [],
      "stateMutability": "nonpayable",
      "type": "function"
    },
    {
      "inputs": [],
      "name": "factory",
      "outputs": [
        {
          "internalType": "address",
          "name": "",
          "type": "address"
        }
      ],
      "stateMutability": "view",
      "type": "function"
    },
    {
      "inputs": [],
      "name": "fundTokenCount",
      "outputs": [
        {
          "internalType": "uint256",
          "name": "",
          "type": "uint256"
        }
      ],
      "stateMutability": "view",
      "type": "function"
    },
    {
      "inputs": [
        {
          "internalType": "uint256",
          "name": "",
          "type": "uint256"
        }
      ],
      "name": "fundTokens",
      "outputs": [
        {
          "internalType": "address",
          "name": "tokenAddress",
          "type": "address"
        },
        {
          "internalType": "uint256",
          "name": "amount",
          "type": "uint256"
        }
      ],
      "stateMutability": "view",
      "type": "function"
    },
    {
      "inputs": [],
      "name": "getManagerHistory",
      "outputs": [
        {
          "components": [
            {
              "internalType": "string",
              "name": "date",
              "type": "string"
            },
            {
              "internalType": "uint256",
              "name": "fundPrincipalUSD",
              "type": "uint256"
            },
            {
              "internalType": "uint256",
              "name": "totalValueUSD",
              "type": "uint256"
            },
            {
              "internalType": "uint256",
              "name": "totalValueETH",
              "type": "uint256"
            },
            {
              "internalType": "uint256",
              "name": "profitRate",
              "type": "uint256"
            }
          ],
          "internalType": "struct IXXXFund.ManagerHistory[]",
          "name": "",
          "type": "tuple[]"
        }
      ],
      "stateMutability": "nonpayable",
      "type": "function"
    },
    {
      "inputs": [],
      "name": "getReservedTokenHistory",
      "outputs": [
        {
          "components": [
            {
              "internalType": "string",
              "name": "date",
              "type": "string"
            },
            {
              "internalType": "address",
              "name": "tokenAddress",
              "type": "address"
            },
            {
              "internalType": "uint256",
              "name": "amount",
              "type": "uint256"
            }
          ],
          "internalType": "struct IXXXFund.ReservedTokenHistory[]",
          "name": "",
          "type": "tuple[]"
        }
      ],
      "stateMutability": "nonpayable",
      "type": "function"
    },
    {
      "inputs": [
        {
          "internalType": "address",
          "name": "_manager",
          "type": "address"
        }
      ],
      "name": "initialize",
      "outputs": [],
      "stateMutability": "nonpayable",
      "type": "function"
    },
    {
      "inputs": [
        {
          "internalType": "address",
          "name": "",
          "type": "address"
        }
      ],
      "name": "investorPrincipalUSD",
      "outputs": [
        {
          "internalType": "uint256",
          "name": "",
          "type": "uint256"
        }
      ],
      "stateMutability": "view",
      "type": "function"
    },
    {
      "inputs": [
        {
          "internalType": "address",
          "name": "",
          "type": "address"
        }
      ],
      "name": "investorTokenCount",
      "outputs": [
        {
          "internalType": "uint256",
          "name": "",
          "type": "uint256"
        }
      ],
      "stateMutability": "view",
      "type": "function"
    },
    {
      "inputs": [
        {
          "internalType": "address",
          "name": "",
          "type": "address"
        },
        {
          "internalType": "uint256",
          "name": "",
          "type": "uint256"
        }
      ],
      "name": "investorTokens",
      "outputs": [
        {
          "internalType": "address",
          "name": "tokenAddress",
          "type": "address"
        },
        {
          "internalType": "uint256",
          "name": "amount",
          "type": "uint256"
        }
      ],
      "stateMutability": "view",
      "type": "function"
    },
    {
      "inputs": [],
      "name": "manager",
      "outputs": [
        {
          "internalType": "address",
          "name": "",
          "type": "address"
        }
      ],
      "stateMutability": "view",
      "type": "function"
    },
    {
      "inputs": [],
      "name": "rewardTokenCount",
      "outputs": [
        {
          "internalType": "uint256",
          "name": "",
          "type": "uint256"
        }
      ],
      "stateMutability": "view",
      "type": "function"
    },
    {
      "inputs": [
        {
          "internalType": "uint256",
          "name": "",
          "type": "uint256"
        }
      ],
      "name": "rewardTokens",
      "outputs": [
        {
          "internalType": "address",
          "name": "tokenAddress",
          "type": "address"
        },
        {
          "internalType": "uint256",
          "name": "amount",
          "type": "uint256"
        }
      ],
      "stateMutability": "view",
      "type": "function"
    },
    {
      "inputs": [
        {
          "components": [
            {
              "internalType": "address",
              "name": "tokenIn",
              "type": "address"
            },
            {
              "internalType": "address",
              "name": "tokenOut",
              "type": "address"
            },
            {
              "internalType": "uint24",
              "name": "fee",
              "type": "uint24"
            },
            {
              "internalType": "address",
              "name": "recipient",
              "type": "address"
            },
            {
              "internalType": "uint256",
              "name": "deadline",
              "type": "uint256"
            },
            {
              "internalType": "uint256",
              "name": "amountIn",
              "type": "uint256"
            },
            {
              "internalType": "uint256",
              "name": "amountOutMinimum",
              "type": "uint256"
            },
            {
              "internalType": "uint160",
              "name": "sqrtPriceLimitX96",
              "type": "uint160"
            }
          ],
          "internalType": "struct ISwapRouter.ExactInputSingleParams",
          "name": "_params",
          "type": "tuple"
        }
      ],
      "name": "swapExactInputSingle",
      "outputs": [
        {
          "internalType": "uint256",
          "name": "amountOut",
          "type": "uint256"
        }
      ],
      "stateMutability": "nonpayable",
      "type": "function"
    },
    {
      "inputs": [
        {
          "components": [
            {
              "internalType": "address",
              "name": "tokenIn",
              "type": "address"
            },
            {
              "internalType": "address",
              "name": "tokenOut",
              "type": "address"
            },
            {
              "internalType": "uint24",
              "name": "fee",
              "type": "uint24"
            },
            {
              "internalType": "address",
              "name": "recipient",
              "type": "address"
            },
            {
              "internalType": "uint256",
              "name": "deadline",
              "type": "uint256"
            },
            {
              "internalType": "uint256",
              "name": "amountOut",
              "type": "uint256"
            },
            {
              "internalType": "uint256",
              "name": "amountInMaximum",
              "type": "uint256"
            },
            {
              "internalType": "uint160",
              "name": "sqrtPriceLimitX96",
              "type": "uint160"
            }
          ],
          "internalType": "struct ISwapRouter.ExactOutputSingleParams",
          "name": "_params",
          "type": "tuple"
        }
      ],
      "name": "swapExactOutputSingle",
      "outputs": [
        {
          "internalType": "uint256",
          "name": "amountIn",
          "type": "uint256"
        }
      ],
      "stateMutability": "nonpayable",
      "type": "function"
    },
    {
      "inputs": [
        {
          "internalType": "address",
          "name": "investor",
          "type": "address"
        },
        {
          "internalType": "address",
          "name": "_token",
          "type": "address"
        },
        {
          "internalType": "uint256",
          "name": "_amount",
          "type": "uint256"
        }
      ],
      "name": "withdraw",
      "outputs": [],
      "stateMutability": "nonpayable",
      "type": "function"
    }
  ],
  "bytecode": "0x6080604052600060045560006006556000600b556001600c5534801561002457600080fd5b50600080546001600160a01b0319163317905561288d806100466000396000f3fe608060405234801561001057600080fd5b50600436106101365760003560e01c8063abb06b95116100b2578063c4d66de811610081578063f03527b011610066578063f03527b0146102f9578063f32b7b7914610301578063fff1939c1461030957600080fd5b8063c4d66de8146102d3578063d9caed12146102e657600080fd5b8063abb06b9514610266578063bc40f3bf1461026f578063bfba6b22146102ad578063c45a0155146102c057600080fd5b80637bb7bed1116101095780638f45244a116100ee5780638f45244a1461022957806392106f051461023e578063a8c9ed671461025357600080fd5b80637bb7bed1146101c25780638340f5491461021457600080fd5b80630c4c1eba1461013b57806318324c111461016e578063201718401461018e578063481c6a7514610197575b600080fd5b61015b61014936600461243d565b60076020526000908152604090205481565b6040519081526020015b60405180910390f35b61015b61017c36600461243d565b60096020526000908152604090205481565b61015b60065481565b6001546101aa906001600160a01b031681565b6040516001600160a01b039091168152602001610165565b6101f56101d0366004612546565b600a60205260009081526040902080546001909101546001600160a01b039091169082565b604080516001600160a01b039093168352602083019190915201610165565b61022761022236600461247c565b61033c565b005b610231610505565b60405161016591906125be565b6102466106de565b6040516101659190612652565b61015b610261366004612507565b6108a3565b61015b600b5481565b6101f561027d3660046124bc565b6008602090815260009283526040808420909152908252902080546001909101546001600160a01b039091169082565b61015b6102bb366004612507565b610ce5565b6000546101aa906001600160a01b031681565b6102276102e136600461243d565b611160565b6102276102f436600461247c565b6111dc565b6102276113cb565b6102276114bc565b6101f5610317366004612546565b600560205260009081526040902080546001909101546001600160a01b039091169082565b600c546001146103855760405162461bcd60e51b815260206004820152600f60248201526e161616119d5b990e881313d0d2d151608a1b60448201526064015b60405180910390fd5b6000600c55336001600160a01b0384161461039f57600080fd5b6000546040517fe3d8b3f60000000000000000000000000000000000000000000000000000000081526001600160a01b0384811660048301529091169063e3d8b3f690602401602060405180830381600087803b1580156103ff57600080fd5b505af1158015610413573d6000803e3d6000fd5b505050506040513d601f19601f8201168201806040525081019061043791906124e7565b6104a95760405162461bcd60e51b815260206004820152602760248201527f58585846756e6420696e697469616c697a653a206e6f742077686974656c697360448201527f7420746f6b656e00000000000000000000000000000000000000000000000000606482015260840161037c565b6104b48383836115a5565b604080516001600160a01b038481168252602082018490528516917f5548c837ab068cf56a2c2479df0882a4922fd203edb7517321831d95078c5f6291015b60405180910390a250506001600c5550565b60035460609060008167ffffffffffffffff81111561053457634e487b7160e01b600052604160045260246000fd5b60405190808252806020026020018201604052801561059757816020015b6105846040518060a0016040528060608152602001600081526020016000815260200160008152602001600081525090565b8152602001906001900390816105525790505b50905060005b828110156106d757600381815481106105c657634e487b7160e01b600052603260045260246000fd5b90600052602060002090600502016040518060a00160405290816000820180546105ef906127d9565b80601f016020809104026020016040519081016040528092919081815260200182805461061b906127d9565b80156106685780601f1061063d57610100808354040283529160200191610668565b820191906000526020600020905b81548152906001019060200180831161064b57829003601f168201915b505050505081526020016001820154815260200160028201548152602001600382015481526020016004820154815250508282815181106106b957634e487b7160e01b600052603260045260246000fd5b602002602001018190525080806106cf9061280e565b91505061059d565b5092915050565b60025460609060008167ffffffffffffffff81111561070d57634e487b7160e01b600052604160045260246000fd5b60405190808252806020026020018201604052801561076b57816020015b61075860405180606001604052806060815260200160006001600160a01b03168152602001600081525090565b81526020019060019003908161072b5790505b50905060005b828110156106d7576002818154811061079a57634e487b7160e01b600052603260045260246000fd5b90600052602060002090600302016040518060600160405290816000820180546107c3906127d9565b80601f01602080910402602001604051908101604052809291908181526020018280546107ef906127d9565b801561083c5780601f106108115761010080835404028352916020019161083c565b820191906000526020600020905b81548152906001019060200180831161081f57829003601f168201915b505050918352505060018201546001600160a01b03166020820152600290910154604090910152825183908390811061088557634e487b7160e01b600052603260045260246000fd5b6020026020010181905250808061089b9061280e565b915050610771565b6000600c546001146108e95760405162461bcd60e51b815260206004820152600f60248201526e161616119d5b990e881313d0d2d151608a1b604482015260640161037c565b6000600c556001546001600160a01b031633146109365760405162461bcd60e51b815260206004820152600b60248201526a2737ba1036b0b730b3b2b960a91b604482015260640161037c565b6000546001600160a01b031663e3d8b3f6610957604085016020860161243d565b6040517fffffffff0000000000000000000000000000000000000000000000000000000060e084901b1681526001600160a01b039091166004820152602401602060405180830381600087803b1580156109b057600080fd5b505af11580156109c4573d6000803e3d6000fd5b505050506040513d601f19601f820116820180604052508101906109e891906124e7565b610a5a5760405162461bcd60e51b815260206004820152603160248201527f58585846756e6420737761704578616374496e70757453696e676c653a206e6f60448201527f742077686974656c69737420746f6b656e000000000000000000000000000000606482015260840161037c565b60008060009054906101000a90046001600160a01b03166001600160a01b031663f5c8ba936040518163ffffffff1660e01b8152600401602060405180830381600087803b158015610aab57600080fd5b505af1158015610abf573d6000803e3d6000fd5b505050506040513d601f19601f82011682018060405250810190610ae39190612460565b9050610b00610af5602085018561243d565b828560a001356116e3565b60408051610100810190915260009080610b1d602087018761243d565b6001600160a01b03168152602001856020016020810190610b3e919061243d565b6001600160a01b03168152602001610b5c6060870160408801612523565b62ffffff168152602001306001600160a01b03168152602001856080013581526020018560a0013581526020016000815260200160006001600160a01b03168152509050816001600160a01b031663414bf389826040518263ffffffff1660e01b8152600401610bcc91906126cd565b602060405180830381600087803b158015610be657600080fd5b505af1158015610bfa573d6000803e3d6000fd5b505050506040513d601f19601f82011682018060405250810190610c1e919061255e565b600154909350610c59906001600160a01b0316610c3e602087018761243d565b610c4e604088016020890161243d565b8760a001358761182c565b6001546001600160a01b03167fcd3829a3813dc3cdd188fd3d01dcf3268c16be2fdd2dd21d0665418816e46062610c93602087018761243d565b610ca3604088016020890161243d565b604080516001600160a01b03938416815292909116602083015260a088013590820152606081018690526080015b60405180910390a250506001600c55919050565b6000600c54600114610d2b5760405162461bcd60e51b815260206004820152600f60248201526e161616119d5b990e881313d0d2d151608a1b604482015260640161037c565b6000600c556001546001600160a01b03163314610d785760405162461bcd60e51b815260206004820152600b60248201526a2737ba1036b0b730b3b2b960a91b604482015260640161037c565b6000546001600160a01b031663e3d8b3f6610d99604085016020860161243d565b6040517fffffffff0000000000000000000000000000000000000000000000000000000060e084901b1681526001600160a01b039091166004820152602401602060405180830381600087803b158015610df257600080fd5b505af1158015610e06573d6000803e3d6000fd5b505050506040513d601f19601f82011682018060405250810190610e2a91906124e7565b610e9c5760405162461bcd60e51b815260206004820152603260248201527f58585846756e64207377617045786163744f757470757453696e676c653a206e60448201527f6f742077686974656c69737420746f6b656e0000000000000000000000000000606482015260840161037c565b60008060009054906101000a90046001600160a01b03166001600160a01b031663f5c8ba936040518163ffffffff1660e01b8152600401602060405180830381600087803b158015610eed57600080fd5b505af1158015610f01573d6000803e3d6000fd5b505050506040513d601f19601f82011682018060405250810190610f259190612460565b9050610f42610f37602085018561243d565b828560c001356116e3565b60408051610100810190915260009080610f5f602087018761243d565b6001600160a01b03168152602001856020016020810190610f80919061243d565b6001600160a01b03168152602001610f9e6060870160408801612523565b62ffffff168152602001306001600160a01b03168152602001856080013581526020018560a0013581526020018560c00135815260200160006001600160a01b03168152509050816001600160a01b031663db3e2198826040518263ffffffff1660e01b815260040161101191906126cd565b602060405180830381600087803b15801561102b57600080fd5b505af115801561103f573d6000803e3d6000fd5b505050506040513d601f19601f82011682018060405250810190611063919061255e565b92508360c001358310156110ad57611089611081602086018661243d565b8360006116e3565b6110ad611099602086018661243d565b336110a88660c0890135612792565b611a61565b6001546110e5906001600160a01b03166110ca602087018761243d565b6110da604088016020890161243d565b868860a0013561182c565b6001546001600160a01b03167fcd3829a3813dc3cdd188fd3d01dcf3268c16be2fdd2dd21d0665418816e4606261111f602087018761243d565b61112f604088016020890161243d565b604080516001600160a01b039384168152929091166020830152810186905260a08701356060820152608001610cd1565b6000546001600160a01b031633146111ba5760405162461bcd60e51b815260206004820152601d60248201527f58585846756e6420696e697469616c697a653a20464f5242494444454e000000604482015260640161037c565b600180546001600160a01b0319166001600160a01b0392909216919091179055565b600c546001146112205760405162461bcd60e51b815260206004820152600f60248201526e161616119d5b990e881313d0d2d151608a1b604482015260640161037c565b6000600c55336001600160a01b0384161461123a57600080fd5b611245838383611ba3565b15156001146112965760405162461bcd60e51b815260206004820152601760248201527f77697468647261773a20496e76616c696420746f6b656e000000000000000000604482015260640161037c565b6001546001600160a01b03848116911614156112c7576112b7828483611a61565b6112c2838383611cb8565b611388565b60006112d4848484611e59565b905080156113705760006112e88183612753565b905060006112f68583611fc8565b9050801561134f57600b80546000908152600a602052604080822080546001600160a01b0319166001600160a01b038a16179055825482528120600190810185905582549092919061134990849061273b565b90915550505b61135e85876110a88588612792565b611369868686611cb8565b5050611386565b61137b838584611a61565b611386848484611cb8565b505b604080516001600160a01b038481168252602082018490528516917f9b1bfa7fa9ee420a16e124f794c35ac9f90472acc99140eb2f6447c714cad8eb91016104f3565b6113f860405180606001604052806060815260200160006001600160a01b03168152602001600081525090565b604080518082018252600a8152690323032322d30382d31360b41b60208083019190915290835273e592427a0aece92de3edee1f18e0157c058615648382015260009183018290526002805460018101825592528251805184936003027f405787fa12a823e0f2b7631cc41b3ba8828b3321ca811111fa75cd3aa3bb5ace019261148692849291019061238c565b5060208201516001820180546001600160a01b0319166001600160a01b0390921691909117905560409091015160029091015550565b6114ee6040518060a0016040528060608152602001600081526020016000815260200160008152602001600081525090565b604080518082018252600a8152690323032322d30382d31360b41b602080830191909152908352600083820181905291830182905260608301829052608083018290526003805460018101825592528251805184936005027fc2575a0e9e593c00f959f8c92f12db2869c3395a3b0502d05e2516446f71f85b019261157792849291019061238c565b5060208201518160010155604082015181600201556060820151816003015560808201518160040155505050565b60006115b18383612046565b9050801561160a576006805460009081526005602052604080822080546001600160a01b0319166001600160a01b038816179055825482528120600190810185905582549092919061160490849061273b565b90915550505b60006116168382612773565b9050806004600082825461162a919061273b565b909155506000905061163d8686866120af565b905080156116ae576001600160a01b038681166000818152600960208181526040808420805460088452828620818752845291852080546001600160a01b031916978d1697909717875560019687018b9055948452919052825490939291906116a790849061273b565b9091555050505b6001600160a01b038616600090815260076020526040812080548492906116d690849061273b565b9091555050505050505050565b604080516001600160a01b038481166024830152604480830185905283518084039091018152606490920183526020820180517bffffffffffffffffffffffffffffffffffffffffffffffffffffffff167f095ea7b300000000000000000000000000000000000000000000000000000000179052915160009283929087169161176d91906125a2565b6000604051808303816000865af19150503d80600081146117aa576040519150601f19603f3d011682016040523d82523d6000602084013e6117af565b606091505b50915091508180156117d95750805115806117d95750808060200190518101906117d991906124e7565b6118255760405162461bcd60e51b815260206004820152600260248201527f5341000000000000000000000000000000000000000000000000000000000000604482015260640161037c565b5050505050565b6001546001600160a01b031633146118745760405162461bcd60e51b815260206004820152600b60248201526a2737ba1036b0b730b3b2b960a91b604482015260640161037c565b6000611880858461215c565b905080156118f65760405162461bcd60e51b815260206004820152602f60248201527f75706461746553776170496e666f3a20496e76616c69642066756e6420746f6b60448201527f656e207377617020617474656d70740000000000000000000000000000000000606482015260840161037c565b6119008483612046565b90508015611959576006805460009081526005602052604080822080546001600160a01b0319166001600160a01b038916179055825482528120600190810185905582549092919061195390849061273b565b90915550505b600061196687878661224d565b905080156119dc5760405162461bcd60e51b815260206004820152603760248201527f75706461746553776170496e666f3a20496e76616c696420696e766573746f7260448201527f20746f6b656e20776974686472617720617474656d7074000000000000000000606482015260840161037c565b6119e78786856120af565b90508015611a58576001600160a01b038781166000818152600960208181526040808420805460088452828620818752845291852080546001600160a01b031916978d1697909717875560019687018a905594845291905282549093929190611a5190849061273b565b9091555050505b50505050505050565b604080516001600160a01b038481166024830152604480830185905283518084039091018152606490920183526020820180517bffffffffffffffffffffffffffffffffffffffffffffffffffffffff167fa9059cbb000000000000000000000000000000000000000000000000000000001790529151600092839290871691611aeb91906125a2565b6000604051808303816000865af19150503d8060008114611b28576040519150601f19603f3d011682016040523d82523d6000602084013e611b2d565b606091505b5091509150818015611b57575080511580611b57575080806020019051810190611b5791906124e7565b6118255760405162461bcd60e51b815260206004820152600260248201527f5354000000000000000000000000000000000000000000000000000000000000604482015260640161037c565b600080805b6001600160a01b038616600090815260096020526040902054811015611caf576001600160a01b03868116600090815260086020908152604080832085845290915290205481169086161415611c9d576001600160a01b0386166000908152600860209081526040808320848452909152902060010154841115611c945760405162461bcd60e51b815260206004820152602760248201527f77697468647261773a20496e76616c696420776974686472617720746f6b656e60448201527f20616d6f756e7400000000000000000000000000000000000000000000000000606482015260840161037c565b60019150611caf565b80611ca78161280e565b915050611ba8565b50949350505050565b6000611cc4838361215c565b90508015611d3a5760405162461bcd60e51b815260206004820152603760248201527f7570646174655769746864726177496e666f3a20496e76616c69642066756e6460448201527f20746f6b656e20776974686472617720617474656d7074000000000000000000606482015260840161037c565b6000611d468382612773565b90506000611d548183612753565b905080600454611d649190612773565b60046000828254611d759190612792565b9091555060009050611d8887878761224d565b90508015611dfe5760405162461bcd60e51b815260206004820152603b60248201527f7570646174655769746864726177496e666f3a20496e76616c696420696e766560448201527f73746f7220746f6b656e20776974686472617720617474656d70740000000000606482015260840161037c565b6000611e0a8185612753565b6001600160a01b038916600090815260076020526040902054909150611e31908290612773565b6001600160a01b03891660009081526007602052604081208054909190611a51908490612792565b600080611e668382612773565b90506001600160a01b038516611ee45760405162461bcd60e51b815260206004820152602a60248201527f6765744d616e616765725265776172643a20496e76616c696420696e7665737460448201527f6f72206164647265737300000000000000000000000000000000000000000000606482015260840161037c565b6001600160a01b03851660009081526007602052604081205481908190611f0b9082612792565b90508015611fbc57818460008054906101000a90046001600160a01b03166001600160a01b031663198055386040518163ffffffff1660e01b8152600401602060405180830381600087803b158015611f6357600080fd5b505af1158015611f77573d6000803e3d6000fd5b505050506040513d601f19601f82011682018060405250810190611f9b919061255e565b611fa59084612773565b611faf9190612773565b611fb99190612753565b92505b50909695505050505050565b60006001815b600b5481101561203c576000818152600a60205260409020546001600160a01b038681169116141561202a576000818152600a6020526040812060010180549193508591849061201f90849061273b565b9091555061203c9050565b806120348161280e565b915050611fce565b5090505b92915050565b60006001815b60065481101561203c576000818152600560205260409020546001600160a01b038681169116141561209d57600081815260056020526040812060010180549193508591849061201f90849061273b565b806120a78161280e565b91505061204c565b60006001815b6001600160a01b038616600090815260096020526040902054811015611caf576001600160a01b0386811660009081526008602090815260408083208584529091529020548116908616141561214a576001600160a01b0386166000908152600860209081526040808320848452909152812060010180549193508591849061213f90849061273b565b90915550611caf9050565b806121548161280e565b9150506120b5565b60006001815b60065481101561203c576000818152600560205260409020546001600160a01b038681169116141561223b5760008181526005602052604081206001015490925084111561221a576040805162461bcd60e51b81526020600482015260248101919091527f6465637265617365546f6b656e416d6f756e743a20646563726561736520746f60448201527f6b656e20616d6f756e74206973206d6f7265207468616e20796f752068617665606482015260840161037c565b6000818152600560205260408120600101805486929061201f908490612792565b806122458161280e565b915050612162565b60006001815b6001600160a01b038616600090815260096020526040902054811015611caf576001600160a01b0386811660009081526008602090815260408083208584529091529020548116908616141561237a576001600160a01b0386166000908152600860209081526040808320848452909152812060010154909250841115612344576040805162461bcd60e51b81526020600482015260248101919091527f6465637265617365546f6b656e416d6f756e743a20646563726561736520746f60448201527f6b656e20616d6f756e74206973206d6f7265207468616e20796f752068617665606482015260840161037c565b6001600160a01b03861660009081526008602090815260408083208484529091528120600101805486929061213f908490612792565b806123848161280e565b915050612253565b828054612398906127d9565b90600052602060002090601f0160209004810192826123ba5760008555612400565b82601f106123d357805160ff1916838001178555612400565b82800160010185558215612400579182015b828111156124005782518255916020019190600101906123e5565b5061240c929150612410565b5090565b5b8082111561240c5760008155600101612411565b60006101008284031215612437578081fd5b50919050565b60006020828403121561244e578081fd5b81356124598161283f565b9392505050565b600060208284031215612471578081fd5b81516124598161283f565b600080600060608486031215612490578182fd5b833561249b8161283f565b925060208401356124ab8161283f565b929592945050506040919091013590565b600080604083850312156124ce578182fd5b82356124d98161283f565b946020939093013593505050565b6000602082840312156124f8578081fd5b81518015158114612459578182fd5b60006101008284031215612519578081fd5b6124598383612425565b600060208284031215612534578081fd5b813562ffffff81168114612459578182fd5b600060208284031215612557578081fd5b5035919050565b60006020828403121561256f578081fd5b5051919050565b6000815180845261258e8160208601602086016127a9565b601f01601f19169290920160200192915050565b600082516125b48184602087016127a9565b9190910192915050565b60006020808301818452808551808352604092508286019150828160051b870101848801865b8381101561264457603f19898403018552815160a0815181865261260a82870182612576565b838b0151878c0152898401518a880152606080850151908801526080938401519390960192909252505093860193908601906001016125e4565b509098975050505050505050565b60006020808301818452808551808352604092508286019150828160051b870101848801865b8381101561264457603f1989840301855281516060815181865261269e82870182612576565b838b01516001600160a01b0316878c015292890151958901959095525094870194925090860190600101612678565b610100810161204082846001600160a01b0380825116835280602083015116602084015262ffffff60408301511660408401528060608301511660608401526080820151608084015260a082015160a084015260c082015160c08401528060e08301511660e0840152505050565b6000821982111561274e5761274e612829565b500190565b60008261276e57634e487b7160e01b81526012600452602481fd5b500490565b600081600019048311821515161561278d5761278d612829565b500290565b6000828210156127a4576127a4612829565b500390565b60005b838110156127c45781810151838201526020016127ac565b838111156127d3576000848401525b50505050565b600181811c908216806127ed57607f821691505b6020821081141561243757634e487b7160e01b600052602260045260246000fd5b600060001982141561282257612822612829565b5060010190565b634e487b7160e01b600052601160045260246000fd5b6001600160a01b038116811461285457600080fd5b5056fea2646970667358221220e6745ef020763b8b358a42e45a0b4d7c65e8f9cf95b13b986e4d557ef7622f6764736f6c63430008040033",
  "linkReferences": {},
  "deployedLinkReferences": {}
}