{
  "_format": "hh-sol-artifact-1",
  "contractName": "XXXFund",
  "sourceName": "contracts/XXXFund.sol",
  "abi": [
    {
      "inputs": [],
      "stateMutability": "nonpayable",
      "type": "constructor"
    },
    {
      "anonymous": false,
      "inputs": [
        {
          "indexed": true,
          "internalType": "address",
          "name": "sender",
          "type": "address"
        },
        {
          "indexed": false,
          "internalType": "address",
          "name": "_token",
          "type": "address"
        },
        {
          "indexed": false,
          "internalType": "uint256",
          "name": "_amount",
          "type": "uint256"
        }
      ],
      "name": "Deposit",
      "type": "event"
    },
    {
      "anonymous": false,
      "inputs": [
        {
          "indexed": true,
          "internalType": "address",
          "name": "sender",
          "type": "address"
        },
        {
          "indexed": false,
          "internalType": "uint256",
          "name": "amount0In",
          "type": "uint256"
        },
        {
          "indexed": false,
          "internalType": "uint256",
          "name": "amount1In",
          "type": "uint256"
        },
        {
          "indexed": false,
          "internalType": "uint256",
          "name": "amount0Out",
          "type": "uint256"
        },
        {
          "indexed": false,
          "internalType": "uint256",
          "name": "amount1Out",
          "type": "uint256"
        },
        {
          "indexed": true,
          "internalType": "address",
          "name": "to",
          "type": "address"
        }
      ],
      "name": "Swap",
      "type": "event"
    },
    {
      "anonymous": false,
      "inputs": [
        {
          "indexed": true,
          "internalType": "address",
          "name": "sender",
          "type": "address"
        },
        {
          "indexed": false,
          "internalType": "address",
          "name": "_token",
          "type": "address"
        },
        {
          "indexed": false,
          "internalType": "uint256",
          "name": "_amount",
          "type": "uint256"
        }
      ],
      "name": "Withdraw",
      "type": "event"
    },
    {
      "inputs": [],
      "name": "addManagerHistory",
      "outputs": [],
      "stateMutability": "nonpayable",
      "type": "function"
    },
    {
      "inputs": [],
      "name": "addReservedTokenHistory",
      "outputs": [],
      "stateMutability": "nonpayable",
      "type": "function"
    },
    {
      "inputs": [
        {
          "internalType": "address",
          "name": "investor",
          "type": "address"
        },
        {
          "internalType": "address",
          "name": "_token",
          "type": "address"
        },
        {
          "internalType": "uint256",
          "name": "_amount",
          "type": "uint256"
        }
      ],
      "name": "deposit",
      "outputs": [],
      "stateMutability": "nonpayable",
      "type": "function"
    },
    {
      "inputs": [],
      "name": "factory",
      "outputs": [
        {
          "internalType": "address",
          "name": "",
          "type": "address"
        }
      ],
      "stateMutability": "view",
      "type": "function"
    },
    {
      "inputs": [],
      "name": "fundTokenCount",
      "outputs": [
        {
          "internalType": "uint256",
          "name": "",
          "type": "uint256"
        }
      ],
      "stateMutability": "view",
      "type": "function"
    },
    {
      "inputs": [
        {
          "internalType": "uint256",
          "name": "",
          "type": "uint256"
        }
      ],
      "name": "fundTokens",
      "outputs": [
        {
          "internalType": "address",
          "name": "tokenAddress",
          "type": "address"
        },
        {
          "internalType": "uint256",
          "name": "amount",
          "type": "uint256"
        }
      ],
      "stateMutability": "view",
      "type": "function"
    },
    {
      "inputs": [],
      "name": "getManagerHistory",
      "outputs": [
        {
          "components": [
            {
              "internalType": "string",
              "name": "date",
              "type": "string"
            },
            {
              "internalType": "uint256",
              "name": "fundPrincipalUSD",
              "type": "uint256"
            },
            {
              "internalType": "uint256",
              "name": "totalValueUSD",
              "type": "uint256"
            },
            {
              "internalType": "uint256",
              "name": "totalValueETH",
              "type": "uint256"
            },
            {
              "internalType": "uint256",
              "name": "profitRate",
              "type": "uint256"
            }
          ],
          "internalType": "struct IXXXFund.ManagerHistory[]",
          "name": "",
          "type": "tuple[]"
        }
      ],
      "stateMutability": "nonpayable",
      "type": "function"
    },
    {
      "inputs": [],
      "name": "getReservedTokenHistory",
      "outputs": [
        {
          "components": [
            {
              "internalType": "string",
              "name": "date",
              "type": "string"
            },
            {
              "internalType": "address",
              "name": "tokenAddress",
              "type": "address"
            },
            {
              "internalType": "uint256",
              "name": "amount",
              "type": "uint256"
            }
          ],
          "internalType": "struct IXXXFund.ReservedTokenHistory[]",
          "name": "",
          "type": "tuple[]"
        }
      ],
      "stateMutability": "nonpayable",
      "type": "function"
    },
    {
      "inputs": [
        {
          "internalType": "address",
          "name": "_manager",
          "type": "address"
        },
        {
          "internalType": "address",
          "name": "_token",
          "type": "address"
        },
        {
          "internalType": "uint256",
          "name": "_amount",
          "type": "uint256"
        }
      ],
      "name": "initialize",
      "outputs": [],
      "stateMutability": "nonpayable",
      "type": "function"
    },
    {
      "inputs": [
        {
          "internalType": "address",
          "name": "",
          "type": "address"
        }
      ],
      "name": "investorPrincipalUSD",
      "outputs": [
        {
          "internalType": "uint256",
          "name": "",
          "type": "uint256"
        }
      ],
      "stateMutability": "view",
      "type": "function"
    },
    {
      "inputs": [
        {
          "internalType": "address",
          "name": "",
          "type": "address"
        }
      ],
      "name": "investorTokenCount",
      "outputs": [
        {
          "internalType": "uint256",
          "name": "",
          "type": "uint256"
        }
      ],
      "stateMutability": "view",
      "type": "function"
    },
    {
      "inputs": [
        {
          "internalType": "address",
          "name": "",
          "type": "address"
        },
        {
          "internalType": "uint256",
          "name": "",
          "type": "uint256"
        }
      ],
      "name": "investorTokens",
      "outputs": [
        {
          "internalType": "address",
          "name": "tokenAddress",
          "type": "address"
        },
        {
          "internalType": "uint256",
          "name": "amount",
          "type": "uint256"
        }
      ],
      "stateMutability": "view",
      "type": "function"
    },
    {
      "inputs": [],
      "name": "manager",
      "outputs": [
        {
          "internalType": "address",
          "name": "",
          "type": "address"
        }
      ],
      "stateMutability": "view",
      "type": "function"
    },
    {
      "inputs": [],
      "name": "rewardTokenCount",
      "outputs": [
        {
          "internalType": "uint256",
          "name": "",
          "type": "uint256"
        }
      ],
      "stateMutability": "view",
      "type": "function"
    },
    {
      "inputs": [
        {
          "internalType": "uint256",
          "name": "",
          "type": "uint256"
        }
      ],
      "name": "rewardTokens",
      "outputs": [
        {
          "internalType": "address",
          "name": "tokenAddress",
          "type": "address"
        },
        {
          "internalType": "uint256",
          "name": "amount",
          "type": "uint256"
        }
      ],
      "stateMutability": "view",
      "type": "function"
    },
    {
      "inputs": [
        {
          "components": [
            {
              "internalType": "address",
              "name": "tokenIn",
              "type": "address"
            },
            {
              "internalType": "address",
              "name": "tokenOut",
              "type": "address"
            },
            {
              "internalType": "uint24",
              "name": "fee",
              "type": "uint24"
            },
            {
              "internalType": "address",
              "name": "recipient",
              "type": "address"
            },
            {
              "internalType": "uint256",
              "name": "deadline",
              "type": "uint256"
            },
            {
              "internalType": "uint256",
              "name": "amountIn",
              "type": "uint256"
            },
            {
              "internalType": "uint256",
              "name": "amountOutMinimum",
              "type": "uint256"
            },
            {
              "internalType": "uint160",
              "name": "sqrtPriceLimitX96",
              "type": "uint160"
            }
          ],
          "internalType": "struct ISwapRouter.ExactInputSingleParams",
          "name": "_params",
          "type": "tuple"
        },
        {
          "internalType": "address",
          "name": "investor",
          "type": "address"
        }
      ],
      "name": "swapExactInputSingle",
      "outputs": [
        {
          "internalType": "uint256",
          "name": "amountOut",
          "type": "uint256"
        }
      ],
      "stateMutability": "nonpayable",
      "type": "function"
    },
    {
      "inputs": [
        {
          "components": [
            {
              "internalType": "address",
              "name": "tokenIn",
              "type": "address"
            },
            {
              "internalType": "address",
              "name": "tokenOut",
              "type": "address"
            },
            {
              "internalType": "uint24",
              "name": "fee",
              "type": "uint24"
            },
            {
              "internalType": "address",
              "name": "recipient",
              "type": "address"
            },
            {
              "internalType": "uint256",
              "name": "deadline",
              "type": "uint256"
            },
            {
              "internalType": "uint256",
              "name": "amountOut",
              "type": "uint256"
            },
            {
              "internalType": "uint256",
              "name": "amountInMaximum",
              "type": "uint256"
            },
            {
              "internalType": "uint160",
              "name": "sqrtPriceLimitX96",
              "type": "uint160"
            }
          ],
          "internalType": "struct ISwapRouter.ExactOutputSingleParams",
          "name": "_params",
          "type": "tuple"
        },
        {
          "internalType": "address",
          "name": "investor",
          "type": "address"
        }
      ],
      "name": "swapExactOutputSingle",
      "outputs": [
        {
          "internalType": "uint256",
          "name": "amountIn",
          "type": "uint256"
        }
      ],
      "stateMutability": "nonpayable",
      "type": "function"
    },
    {
      "inputs": [
        {
          "internalType": "address",
          "name": "investor",
          "type": "address"
        },
        {
          "internalType": "address",
          "name": "_token",
          "type": "address"
        },
        {
          "internalType": "uint256",
          "name": "_amount",
          "type": "uint256"
        }
      ],
      "name": "withdraw",
      "outputs": [],
      "stateMutability": "nonpayable",
      "type": "function"
    }
  ],
  "bytecode": "0x6080604052600060045560006006556000600b556001600c5534801561002457600080fd5b50600080546001600160a01b03191633179055612bc3806100466000396000f3fe608060405234801561001057600080fd5b50600436106101365760003560e01c806392106f05116100b2578063d9caed1211610081578063f32b7b7911610066578063f32b7b79146102ee578063f9fbdc0f146102f6578063fff1939c1461030957600080fd5b8063d9caed12146102d3578063f03527b0146102e657600080fd5b806392106f0514610264578063abb06b9514610279578063bc40f3bf14610282578063c45a0155146102c057600080fd5b8063481c6a75116101095780638340f549116100ee5780638340f549146102295780638f45244a1461023c578063914ac1e01461025157600080fd5b8063481c6a75146101ac5780637bb7bed1146101d757600080fd5b80630c4c1eba1461013b5780631794bb3c1461016e57806318324c111461018357806320171840146101a3575b600080fd5b61015b610149366004612756565b60076020526000908152604090205481565b6040519081526020015b60405180910390f35b61018161017c366004612795565b61033c565b005b61015b610191366004612756565b60096020526000908152604090205481565b61015b60065481565b6001546101bf906001600160a01b031681565b6040516001600160a01b039091168152602001610165565b61020a6101e536600461287c565b600a60205260009081526040902080546001909101546001600160a01b039091169082565b604080516001600160a01b039093168352602083019190915201610165565b610181610237366004612795565b6106f9565b61024461089a565b60405161016591906128f4565b61015b61025f366004612820565b610a73565b61026c610e74565b6040516101659190612988565b61015b600b5481565b61020a6102903660046127d5565b6008602090815260009283526040808420909152908252902080546001909101546001600160a01b039091169082565b6000546101bf906001600160a01b031681565b6101816102e1366004612795565b611039565b610181611228565b610181611319565b61015b610304366004612820565b611402565b61020a61031736600461287c565b600560205260009081526040902080546001909101546001600160a01b039091169082565b6000546001600160a01b0316331461039b5760405162461bcd60e51b815260206004820152601d60248201527f58585846756e6420696e697469616c697a653a20464f5242494444454e00000060448201526064015b60405180910390fd5b600081116104115760405162461bcd60e51b815260206004820152603060248201527f58585846756e6420696e697469616c697a653a20746f6b656e20616d6f756e7460448201527f20697320696e73756666696369656e74000000000000000000000000000000006064820152608401610392565b6001600160a01b03821661048d5760405162461bcd60e51b815260206004820152602660248201527f58585846756e6420696e697469616c697a653a20746f6b656e2061646472657360448201527f73206973203000000000000000000000000000000000000000000000000000006064820152608401610392565b6000546040516371ec59fb60e11b81526001600160a01b0384811660048301529091169063e3d8b3f690602401602060405180830381600087803b1580156104d457600080fd5b505af11580156104e8573d6000803e3d6000fd5b505050506040513d601f19601f8201168201806040525081019061050c9190612800565b6105685760405162461bcd60e51b815260206004820152602760248201527f58585846756e6420696e697469616c697a653a206e6f742077686974656c69736044820152663a103a37b5b2b760c91b6064820152608401610392565b600180546001600160a01b0319166001600160a01b03851690811790915561059390839030846117ab565b6001546105aa906001600160a01b031683836118e8565b604080518082019091526001600160a01b03831681526020810182905260006105d38382612aa9565b6001600160a01b0386811660008181526008602090815260408083208380528252808320885181546001600160a01b03191696169590951785558782015160019095019490945591815260079091529081208054929350839290919061063a908490612a71565b90915550506006805460009081526005602090815260408220855181546001600160a01b0319166001600160a01b039091161781559085015160019182015582549092919061068a908490612a71565b9250508190555080600460008282546106a39190612a71565b9091555050600154604080516001600160a01b03878116825260208201879052909216917f5548c837ab068cf56a2c2479df0882a4922fd203edb7517321831d95078c5f62910160405180910390a25050505050565b600c5460011461073d5760405162461bcd60e51b815260206004820152600f60248201526e161616119d5b990e881313d0d2d151608a1b6044820152606401610392565b6000600c55336001600160a01b0384161461075757600080fd5b6000546040516371ec59fb60e11b81526001600160a01b0384811660048301529091169063e3d8b3f690602401602060405180830381600087803b15801561079e57600080fd5b505af11580156107b2573d6000803e3d6000fd5b505050506040513d601f19601f820116820180604052508101906107d69190612800565b6108325760405162461bcd60e51b815260206004820152602760248201527f58585846756e6420696e697469616c697a653a206e6f742077686974656c69736044820152663a103a37b5b2b760c91b6064820152608401610392565b61083e828430846117ab565b6108498383836118e8565b604080516001600160a01b038481168252602082018490528516917f5548c837ab068cf56a2c2479df0882a4922fd203edb7517321831d95078c5f6291015b60405180910390a250506001600c5550565b60035460609060008167ffffffffffffffff8111156108c957634e487b7160e01b600052604160045260246000fd5b60405190808252806020026020018201604052801561092c57816020015b6109196040518060a0016040528060608152602001600081526020016000815260200160008152602001600081525090565b8152602001906001900390816108e75790505b50905060005b82811015610a6c576003818154811061095b57634e487b7160e01b600052603260045260246000fd5b90600052602060002090600502016040518060a001604052908160008201805461098490612b0f565b80601f01602080910402602001604051908101604052809291908181526020018280546109b090612b0f565b80156109fd5780601f106109d2576101008083540402835291602001916109fd565b820191906000526020600020905b8154815290600101906020018083116109e057829003601f168201915b50505050508152602001600182015481526020016002820154815260200160038201548152602001600482015481525050828281518110610a4e57634e487b7160e01b600052603260045260246000fd5b60200260200101819052508080610a6490612b44565b915050610932565b5092915050565b6000600c54600114610ab95760405162461bcd60e51b815260206004820152600f60248201526e161616119d5b990e881313d0d2d151608a1b6044820152606401610392565b6000600c556001546001600160a01b03163314610b065760405162461bcd60e51b815260206004820152600b60248201526a2737ba1036b0b730b3b2b960a91b6044820152606401610392565b6000546001600160a01b031663e3d8b3f6610b276040860160208701612756565b6040517fffffffff0000000000000000000000000000000000000000000000000000000060e084901b1681526001600160a01b039091166004820152602401602060405180830381600087803b158015610b8057600080fd5b505af1158015610b94573d6000803e3d6000fd5b505050506040513d601f19601f82011682018060405250810190610bb89190612800565b610c2a5760405162461bcd60e51b815260206004820152603260248201527f58585846756e64207377617045786163744f757470757453696e676c653a206e60448201527f6f742077686974656c69737420746f6b656e00000000000000000000000000006064820152608401610392565b60008060009054906101000a90046001600160a01b03166001600160a01b031663f5c8ba936040518163ffffffff1660e01b8152600401602060405180830381600087803b158015610c7b57600080fd5b505af1158015610c8f573d6000803e3d6000fd5b505050506040513d601f19601f82011682018060405250810190610cb39190612779565b9050610cd0610cc56020860186612756565b828660c00135611a26565b60408051610100810190915260009080610ced6020880188612756565b6001600160a01b03168152602001866020016020810190610d0e9190612756565b6001600160a01b03168152602001610d2c6060880160408901612859565b62ffffff168152602001306001600160a01b03168152602001866080013581526020018660a0013581526020018660c00135815260200160006001600160a01b03168152509050816001600160a01b031663db3e2198826040518263ffffffff1660e01b8152600401610d9f9190612a03565b602060405180830381600087803b158015610db957600080fd5b505af1158015610dcd573d6000803e3d6000fd5b505050506040513d601f19601f82011682018060405250810190610df19190612894565b92508460c00135831015610e3b57610e17610e0f6020870187612756565b836000611a26565b610e3b610e276020870187612756565b33610e368660c08a0135612ac8565b611b5a565b610e6784610e4c6020880188612756565b610e5c6040890160208a01612756565b868960a00135611c87565b50506001600c5592915050565b60025460609060008167ffffffffffffffff811115610ea357634e487b7160e01b600052604160045260246000fd5b604051908082528060200260200182016040528015610f0157816020015b610eee60405180606001604052806060815260200160006001600160a01b03168152602001600081525090565b815260200190600190039081610ec15790505b50905060005b82811015610a6c5760028181548110610f3057634e487b7160e01b600052603260045260246000fd5b9060005260206000209060030201604051806060016040529081600082018054610f5990612b0f565b80601f0160208091040260200160405190810160405280929190818152602001828054610f8590612b0f565b8015610fd25780601f10610fa757610100808354040283529160200191610fd2565b820191906000526020600020905b815481529060010190602001808311610fb557829003601f168201915b505050918352505060018201546001600160a01b03166020820152600290910154604090910152825183908390811061101b57634e487b7160e01b600052603260045260246000fd5b6020026020010181905250808061103190612b44565b915050610f07565b600c5460011461107d5760405162461bcd60e51b815260206004820152600f60248201526e161616119d5b990e881313d0d2d151608a1b6044820152606401610392565b6000600c55336001600160a01b0384161461109757600080fd5b6110a2838383611ebc565b15156001146110f35760405162461bcd60e51b815260206004820152601760248201527f77697468647261773a20496e76616c696420746f6b656e0000000000000000006044820152606401610392565b6001546001600160a01b038481169116141561112457611114828483611b5a565b61111f838383611fd1565b6111e5565b6000611131848484612172565b905080156111cd5760006111458183612a89565b9050600061115385836122e1565b905080156111ac57600b80546000908152600a602052604080822080546001600160a01b0319166001600160a01b038a1617905582548252812060019081018590558254909291906111a6908490612a71565b90915550505b6111bb8587610e368588612ac8565b6111c6868686611fd1565b50506111e3565b6111d8838584611b5a565b6111e3848484611fd1565b505b604080516001600160a01b038481168252602082018490528516917f9b1bfa7fa9ee420a16e124f794c35ac9f90472acc99140eb2f6447c714cad8eb9101610888565b61125560405180606001604052806060815260200160006001600160a01b03168152602001600081525090565b604080518082018252600a8152690323032322d30382d31360b41b60208083019190915290835273e592427a0aece92de3edee1f18e0157c058615648382015260009183018290526002805460018101825592528251805184936003027f405787fa12a823e0f2b7631cc41b3ba8828b3321ca811111fa75cd3aa3bb5ace01926112e39284929101906126a5565b5060208201516001820180546001600160a01b0319166001600160a01b0390921691909117905560409091015160029091015550565b61134b6040518060a0016040528060608152602001600081526020016000815260200160008152602001600081525090565b604080518082018252600a8152690323032322d30382d31360b41b602080830191909152908352600083820181905291830182905260608301829052608083018290526003805460018101825592528251805184936005027fc2575a0e9e593c00f959f8c92f12db2869c3395a3b0502d05e2516446f71f85b01926113d49284929101906126a5565b5060208201518160010155604082015181600201556060820151816003015560808201518160040155505050565b6000600c546001146114485760405162461bcd60e51b815260206004820152600f60248201526e161616119d5b990e881313d0d2d151608a1b6044820152606401610392565b6000600c556001546001600160a01b031633146114955760405162461bcd60e51b815260206004820152600b60248201526a2737ba1036b0b730b3b2b960a91b6044820152606401610392565b6000546001600160a01b031663e3d8b3f66114b66040860160208701612756565b6040517fffffffff0000000000000000000000000000000000000000000000000000000060e084901b1681526001600160a01b039091166004820152602401602060405180830381600087803b15801561150f57600080fd5b505af1158015611523573d6000803e3d6000fd5b505050506040513d601f19601f820116820180604052508101906115479190612800565b6115b95760405162461bcd60e51b815260206004820152603160248201527f58585846756e6420737761704578616374496e70757453696e676c653a206e6f60448201527f742077686974656c69737420746f6b656e0000000000000000000000000000006064820152608401610392565b60008060009054906101000a90046001600160a01b03166001600160a01b031663f5c8ba936040518163ffffffff1660e01b8152600401602060405180830381600087803b15801561160a57600080fd5b505af115801561161e573d6000803e3d6000fd5b505050506040513d601f19601f820116820180604052508101906116429190612779565b905061165f6116546020860186612756565b828660a00135611a26565b6040805161010081019091526000908061167c6020880188612756565b6001600160a01b0316815260200186602001602081019061169d9190612756565b6001600160a01b031681526020016116bb6060880160408901612859565b62ffffff168152602001306001600160a01b03168152602001866080013581526020018660a0013581526020016000815260200160006001600160a01b03168152509050816001600160a01b031663414bf389826040518263ffffffff1660e01b815260040161172b9190612a03565b602060405180830381600087803b15801561174557600080fd5b505af1158015611759573d6000803e3d6000fd5b505050506040513d601f19601f8201168201806040525081019061177d9190612894565b9250610e67846117906020880188612756565b6117a06040890160208a01612756565b8860a0013587611c87565b604080516001600160a01b0385811660248301528481166044830152606480830185905283518084039091018152608490920183526020820180516001600160e01b03167f23b872dd00000000000000000000000000000000000000000000000000000000179052915160009283929088169161182891906128d8565b6000604051808303816000865af19150503d8060008114611865576040519150601f19603f3d011682016040523d82523d6000602084013e61186a565b606091505b50915091508180156118945750805115806118945750808060200190518101906118949190612800565b6118e05760405162461bcd60e51b815260206004820152600360248201527f53544600000000000000000000000000000000000000000000000000000000006044820152606401610392565b505050505050565b60006118f4838361235f565b9050801561194d576006805460009081526005602052604080822080546001600160a01b0319166001600160a01b0388161790558254825281206001908101859055825490929190611947908490612a71565b90915550505b60006119598382612aa9565b9050806004600082825461196d9190612a71565b90915550600090506119808686866123c8565b905080156119f1576001600160a01b038681166000818152600960208181526040808420805460088452828620818752845291852080546001600160a01b031916978d1697909717875560019687018b9055948452919052825490939291906119ea908490612a71565b9091555050505b6001600160a01b03861660009081526007602052604081208054849290611a19908490612a71565b9091555050505050505050565b604080516001600160a01b038481166024830152604480830185905283518084039091018152606490920183526020820180516001600160e01b03167f095ea7b3000000000000000000000000000000000000000000000000000000001790529151600092839290871691611a9b91906128d8565b6000604051808303816000865af19150503d8060008114611ad8576040519150601f19603f3d011682016040523d82523d6000602084013e611add565b606091505b5091509150818015611b07575080511580611b07575080806020019051810190611b079190612800565b611b535760405162461bcd60e51b815260206004820152600260248201527f53410000000000000000000000000000000000000000000000000000000000006044820152606401610392565b5050505050565b604080516001600160a01b038481166024830152604480830185905283518084039091018152606490920183526020820180516001600160e01b03167fa9059cbb000000000000000000000000000000000000000000000000000000001790529151600092839290871691611bcf91906128d8565b6000604051808303816000865af19150503d8060008114611c0c576040519150601f19603f3d011682016040523d82523d6000602084013e611c11565b606091505b5091509150818015611c3b575080511580611c3b575080806020019051810190611c3b9190612800565b611b535760405162461bcd60e51b815260206004820152600260248201527f53540000000000000000000000000000000000000000000000000000000000006044820152606401610392565b6001546001600160a01b03163314611ccf5760405162461bcd60e51b815260206004820152600b60248201526a2737ba1036b0b730b3b2b960a91b6044820152606401610392565b6000611cdb8584612475565b90508015611d515760405162461bcd60e51b815260206004820152602f60248201527f75706461746553776170496e666f3a20496e76616c69642066756e6420746f6b60448201527f656e207377617020617474656d707400000000000000000000000000000000006064820152608401610392565b611d5b848361235f565b90508015611db4576006805460009081526005602052604080822080546001600160a01b0319166001600160a01b0389161790558254825281206001908101859055825490929190611dae908490612a71565b90915550505b6000611dc1878786612566565b90508015611e375760405162461bcd60e51b815260206004820152603760248201527f75706461746553776170496e666f3a20496e76616c696420696e766573746f7260448201527f20746f6b656e20776974686472617720617474656d70740000000000000000006064820152608401610392565b611e428786856123c8565b90508015611eb3576001600160a01b038781166000818152600960208181526040808420805460088452828620818752845291852080546001600160a01b031916978d1697909717875560019687018a905594845291905282549093929190611eac908490612a71565b9091555050505b50505050505050565b600080805b6001600160a01b038616600090815260096020526040902054811015611fc8576001600160a01b03868116600090815260086020908152604080832085845290915290205481169086161415611fb6576001600160a01b0386166000908152600860209081526040808320848452909152902060010154841115611fad5760405162461bcd60e51b815260206004820152602760248201527f77697468647261773a20496e76616c696420776974686472617720746f6b656e60448201527f20616d6f756e74000000000000000000000000000000000000000000000000006064820152608401610392565b60019150611fc8565b80611fc081612b44565b915050611ec1565b50949350505050565b6000611fdd8383612475565b905080156120535760405162461bcd60e51b815260206004820152603760248201527f7570646174655769746864726177496e666f3a20496e76616c69642066756e6460448201527f20746f6b656e20776974686472617720617474656d70740000000000000000006064820152608401610392565b600061205f8382612aa9565b9050600061206d8183612a89565b90508060045461207d9190612aa9565b6004600082825461208e9190612ac8565b90915550600090506120a1878787612566565b905080156121175760405162461bcd60e51b815260206004820152603b60248201527f7570646174655769746864726177496e666f3a20496e76616c696420696e766560448201527f73746f7220746f6b656e20776974686472617720617474656d707400000000006064820152608401610392565b60006121238185612a89565b6001600160a01b03891660009081526007602052604090205490915061214a908290612aa9565b6001600160a01b03891660009081526007602052604081208054909190611eac908490612ac8565b60008061217f8382612aa9565b90506001600160a01b0385166121fd5760405162461bcd60e51b815260206004820152602a60248201527f6765744d616e616765725265776172643a20496e76616c696420696e7665737460448201527f6f722061646472657373000000000000000000000000000000000000000000006064820152608401610392565b6001600160a01b038516600090815260076020526040812054819081906122249082612ac8565b905080156122d557818460008054906101000a90046001600160a01b03166001600160a01b031663198055386040518163ffffffff1660e01b8152600401602060405180830381600087803b15801561227c57600080fd5b505af1158015612290573d6000803e3d6000fd5b505050506040513d601f19601f820116820180604052508101906122b49190612894565b6122be9084612aa9565b6122c89190612aa9565b6122d29190612a89565b92505b50909695505050505050565b60006001815b600b54811015612355576000818152600a60205260409020546001600160a01b0386811691161415612343576000818152600a60205260408120600101805491935085918490612338908490612a71565b909155506123559050565b8061234d81612b44565b9150506122e7565b5090505b92915050565b60006001815b600654811015612355576000818152600560205260409020546001600160a01b03868116911614156123b6576000818152600560205260408120600101805491935085918490612338908490612a71565b806123c081612b44565b915050612365565b60006001815b6001600160a01b038616600090815260096020526040902054811015611fc8576001600160a01b03868116600090815260086020908152604080832085845290915290205481169086161415612463576001600160a01b03861660009081526008602090815260408083208484529091528120600101805491935085918490612458908490612a71565b90915550611fc89050565b8061246d81612b44565b9150506123ce565b60006001815b600654811015612355576000818152600560205260409020546001600160a01b038681169116141561255457600081815260056020526040812060010154909250841115612533576040805162461bcd60e51b81526020600482015260248101919091527f6465637265617365546f6b656e416d6f756e743a20646563726561736520746f60448201527f6b656e20616d6f756e74206973206d6f7265207468616e20796f7520686176656064820152608401610392565b60008181526005602052604081206001018054869290612338908490612ac8565b8061255e81612b44565b91505061247b565b60006001815b6001600160a01b038616600090815260096020526040902054811015611fc8576001600160a01b03868116600090815260086020908152604080832085845290915290205481169086161415612693576001600160a01b038616600090815260086020908152604080832084845290915281206001015490925084111561265d576040805162461bcd60e51b81526020600482015260248101919091527f6465637265617365546f6b656e416d6f756e743a20646563726561736520746f60448201527f6b656e20616d6f756e74206973206d6f7265207468616e20796f7520686176656064820152608401610392565b6001600160a01b038616600090815260086020908152604080832084845290915281206001018054869290612458908490612ac8565b8061269d81612b44565b91505061256c565b8280546126b190612b0f565b90600052602060002090601f0160209004810192826126d35760008555612719565b82601f106126ec57805160ff1916838001178555612719565b82800160010185558215612719579182015b828111156127195782518255916020019190600101906126fe565b50612725929150612729565b5090565b5b80821115612725576000815560010161272a565b60006101008284031215612750578081fd5b50919050565b600060208284031215612767578081fd5b813561277281612b75565b9392505050565b60006020828403121561278a578081fd5b815161277281612b75565b6000806000606084860312156127a9578182fd5b83356127b481612b75565b925060208401356127c481612b75565b929592945050506040919091013590565b600080604083850312156127e7578182fd5b82356127f281612b75565b946020939093013593505050565b600060208284031215612811578081fd5b81518015158114612772578182fd5b6000806101208385031215612833578182fd5b61283d848461273e565b915061010083013561284e81612b75565b809150509250929050565b60006020828403121561286a578081fd5b813562ffffff81168114612772578182fd5b60006020828403121561288d578081fd5b5035919050565b6000602082840312156128a5578081fd5b5051919050565b600081518084526128c4816020860160208601612adf565b601f01601f19169290920160200192915050565b600082516128ea818460208701612adf565b9190910192915050565b60006020808301818452808551808352604092508286019150828160051b870101848801865b8381101561297a57603f19898403018552815160a08151818652612940828701826128ac565b838b0151878c0152898401518a8801526060808501519088015260809384015193909601929092525050938601939086019060010161291a565b509098975050505050505050565b60006020808301818452808551808352604092508286019150828160051b870101848801865b8381101561297a57603f198984030185528151606081518186526129d4828701826128ac565b838b01516001600160a01b0316878c0152928901519589019590955250948701949250908601906001016129ae565b610100810161235982846001600160a01b0380825116835280602083015116602084015262ffffff60408301511660408401528060608301511660608401526080820151608084015260a082015160a084015260c082015160c08401528060e08301511660e0840152505050565b60008219821115612a8457612a84612b5f565b500190565b600082612aa457634e487b7160e01b81526012600452602481fd5b500490565b6000816000190483118215151615612ac357612ac3612b5f565b500290565b600082821015612ada57612ada612b5f565b500390565b60005b83811015612afa578181015183820152602001612ae2565b83811115612b09576000848401525b50505050565b600181811c90821680612b2357607f821691505b6020821081141561275057634e487b7160e01b600052602260045260246000fd5b6000600019821415612b5857612b58612b5f565b5060010190565b634e487b7160e01b600052601160045260246000fd5b6001600160a01b0381168114612b8a57600080fd5b5056fea26469706673582212205ce7507684aa8c82e3345a3ae40802af1461c2d1e9036fd7171132d5c238706a64736f6c63430008040033",
  "linkReferences": {},
  "deployedLinkReferences": {}
}