{
  "_format": "hh-sol-artifact-1",
  "contractName": "XXXFactory",
  "sourceName": "contracts/XXXFactory.sol",
  "abi": [
    {
      "inputs": [],
      "stateMutability": "nonpayable",
      "type": "constructor"
    },
    {
      "anonymous": false,
      "inputs": [
        {
          "indexed": false,
          "internalType": "address",
          "name": "manager",
          "type": "address"
        },
        {
          "indexed": false,
          "internalType": "address",
          "name": "fund",
          "type": "address"
        },
        {
          "indexed": false,
          "internalType": "uint256",
          "name": "fundCount",
          "type": "uint256"
        }
      ],
      "name": "FundCreated",
      "type": "event"
    },
    {
      "anonymous": false,
      "inputs": [
        {
          "indexed": true,
          "internalType": "address",
          "name": "oldOwner",
          "type": "address"
        },
        {
          "indexed": true,
          "internalType": "address",
          "name": "newOwner",
          "type": "address"
        }
      ],
      "name": "OwnerChanged",
      "type": "event"
    },
    {
      "inputs": [
        {
          "internalType": "address",
          "name": "_token",
          "type": "address"
        }
      ],
      "name": "addWhiteListToken",
      "outputs": [],
      "stateMutability": "nonpayable",
      "type": "function"
    },
    {
      "inputs": [
        {
          "internalType": "address",
          "name": "manager",
          "type": "address"
        },
        {
          "internalType": "address",
          "name": "token",
          "type": "address"
        },
        {
          "internalType": "uint256",
          "name": "amount",
          "type": "uint256"
        }
      ],
      "name": "createFund",
      "outputs": [
        {
          "internalType": "address",
          "name": "fund",
          "type": "address"
        }
      ],
      "stateMutability": "nonpayable",
      "type": "function"
    },
    {
      "inputs": [],
      "name": "fundCount",
      "outputs": [
        {
          "internalType": "uint256",
          "name": "",
          "type": "uint256"
        }
      ],
      "stateMutability": "view",
      "type": "function"
    },
    {
      "inputs": [
        {
          "internalType": "address",
          "name": "",
          "type": "address"
        }
      ],
      "name": "getFund",
      "outputs": [
        {
          "internalType": "address",
          "name": "",
          "type": "address"
        }
      ],
      "stateMutability": "view",
      "type": "function"
    },
    {
      "inputs": [],
      "name": "getManagerFee",
      "outputs": [
        {
          "internalType": "uint256",
          "name": "",
          "type": "uint256"
        }
      ],
      "stateMutability": "nonpayable",
      "type": "function"
    },
    {
      "inputs": [],
      "name": "getSwapRouterAddress",
      "outputs": [
        {
          "internalType": "address",
          "name": "",
          "type": "address"
        }
      ],
      "stateMutability": "nonpayable",
      "type": "function"
    },
    {
      "inputs": [],
      "name": "getWhiteListTokens",
      "outputs": [
        {
          "internalType": "address[]",
          "name": "",
          "type": "address[]"
        }
      ],
      "stateMutability": "nonpayable",
      "type": "function"
    },
    {
      "inputs": [
        {
          "internalType": "address",
          "name": "_token",
          "type": "address"
        }
      ],
      "name": "isWhiteListToken",
      "outputs": [
        {
          "internalType": "bool",
          "name": "",
          "type": "bool"
        }
      ],
      "stateMutability": "nonpayable",
      "type": "function"
    },
    {
      "inputs": [],
      "name": "owner",
      "outputs": [
        {
          "internalType": "address",
          "name": "",
          "type": "address"
        }
      ],
      "stateMutability": "view",
      "type": "function"
    },
    {
      "inputs": [
        {
          "internalType": "address",
          "name": "_token",
          "type": "address"
        }
      ],
      "name": "removeWhiteListToken",
      "outputs": [],
      "stateMutability": "nonpayable",
      "type": "function"
    },
    {
      "inputs": [
        {
          "internalType": "uint256",
          "name": "_managerFee",
          "type": "uint256"
        }
      ],
      "name": "setManagerFee",
      "outputs": [],
      "stateMutability": "nonpayable",
      "type": "function"
    },
    {
      "inputs": [
        {
          "internalType": "address",
          "name": "_owner",
          "type": "address"
        }
      ],
      "name": "setOwner",
      "outputs": [],
      "stateMutability": "nonpayable",
      "type": "function"
    },
    {
      "inputs": [
        {
          "internalType": "address",
          "name": "_swapRouterAddress",
          "type": "address"
        }
      ],
      "name": "setSwapRouterAddress",
      "outputs": [],
      "stateMutability": "nonpayable",
      "type": "function"
    }
  ],
  "bytecode": "0x6080604052600180546001600160a01b03191673e592427a0aece92de3edee1f18e0157c0586156417815560025534801561003957600080fd5b50600080546001600160a01b03191633908117825560058290556040519091907fb532073b38c83145e3e5135377a08bf9aab55bc0fd7c1179cd4fb995d2a5159c908290a3600380546001818101835560008390527fc2575a0e9e593c00f959f8c92f12db2869c3395a3b0502d05e2516446f71f85b91820180546001600160a01b031990811673c02aaa39b223fe8d0a0e5c4f27ead9083c756cc21790915583548083018555830180548216732260fac5e5542a773aa44fbcfedf7c193bc2c5991790558354808301855583018054821673a0b86991c6218b36c1d19d4a2e9eb0ce3606eb4817905583548083018555830180548216736b175474e89094c44da98b954eedeac495271d0f17905583548083018555830180548216731f9840a85d5af5bf1d1762f925bdaddc4201f98417905583549182019093550180549091167364f0131a028293d160a172b29f10d8a457406a841790556135c7806101a26000396000f3fe608060405234801561001057600080fd5b50600436106100df5760003560e01c8063827a5a251161008c578063c72c5be211610066578063c72c5be2146101b9578063e3d8b3f6146101ce578063f217c929146101f1578063f5c8ba931461020457600080fd5b8063827a5a251461016a5780638da5cb5b1461017d578063b42c1d401461019057600080fd5b806319805538116100bd578063198055381461013c5780633f936ff51461014e5780635249961b1461015757600080fd5b8063013e9fdd146100e457806313af4035146100f9578063174446261461010c575b600080fd5b6100f76100f236600461087e565b610215565b005b6100f761010736600461087e565b610288565b61011f61011a36600461089f565b6102fa565b6040516001600160a01b0390911681526020015b60405180910390f35b6002545b604051908152602001610133565b61014060055481565b6100f761016536600461087e565b61053a565b6100f761017836600461087e565b610573565b60005461011f906001600160a01b031681565b61011f61019e36600461087e565b6004602052600090815260409020546001600160a01b031681565b6101c16106cb565b60405161013391906108f2565b6101e16101dc36600461087e565b6107c1565b6040519015158152602001610133565b6100f76101ff3660046108da565b610839565b6001546001600160a01b031661011f565b6000546001600160a01b0316331461022c57600080fd5b610235816107c1565b61028557600380546001810182556000919091527fc2575a0e9e593c00f959f8c92f12db2869c3395a3b0502d05e2516446f71f85b0180546001600160a01b0319166001600160a01b0383161790555b50565b6000546001600160a01b0316331461029f57600080fd5b600080546040516001600160a01b03808516939216917fb532073b38c83145e3e5135377a08bf9aab55bc0fd7c1179cd4fb995d2a5159c91a3600080546001600160a01b0319166001600160a01b0392909216919091179055565b6000336001600160a01b038516146103595760405162461bcd60e51b815260206004820152601f60248201527f585858466163746f72793a204944454e544943414c5f4144445245535345530060448201526064015b60405180910390fd5b6001600160a01b0384811660009081526004602052604090205416156103c15760405162461bcd60e51b815260206004820152601760248201527f585858466163746f72793a2046554e445f4558495354530000000000000000006044820152606401610350565b604080513060208201526001600160a01b038616918101919091526060016040516020818303038152906040528051906020012060405161040190610855565b8190604051809103906000f5905080158015610421573d6000803e3d6000fd5b506001600160a01b0385811660008181526004602081905260409182902080546001600160a01b03191686861690811790915591517f1794bb3c0000000000000000000000000000000000000000000000000000000081529081019290925291861660248201526044810185905291925090631794bb3c90606401600060405180830381600087803b1580156104b657600080fd5b505af11580156104ca573d6000803e3d6000fd5b505050506001600560008282546104e1919061093f565b9091555050600554604080516001600160a01b0387811682528416602082015280820192909252517f70890af59a1c61d7489da8e3724463160e14d24e026267fbcce52c5d03b0b03b9181900360600190a19392505050565b6000546001600160a01b0316331461055157600080fd5b600180546001600160a01b0319166001600160a01b0392909216919091179055565b6000546001600160a01b0316331461058a57600080fd5b60005b6003548110156106c757816001600160a01b0316600382815481106105c257634e487b7160e01b600052603260045260246000fd5b6000918252602090912001546001600160a01b031614156106b557600380546105ed90600190610957565b8154811061060b57634e487b7160e01b600052603260045260246000fd5b600091825260209091200154600380546001600160a01b03909216918390811061064557634e487b7160e01b600052603260045260246000fd5b9060005260206000200160006101000a8154816001600160a01b0302191690836001600160a01b03160217905550600380548061069257634e487b7160e01b600052603160045260246000fd5b600082815260209020810160001990810180546001600160a01b03191690550190555b806106bf8161096e565b91505061058d565b5050565b60035460609060008167ffffffffffffffff8111156106fa57634e487b7160e01b600052604160045260246000fd5b604051908082528060200260200182016040528015610723578160200160208202803683370190505b50905060005b828110156107ba576003818154811061075257634e487b7160e01b600052603260045260246000fd5b9060005260206000200160009054906101000a90046001600160a01b031682828151811061079057634e487b7160e01b600052603260045260246000fd5b6001600160a01b0390921660209283029190910190910152806107b28161096e565b915050610729565b5092915050565b6000805b60035481101561083057826001600160a01b0316600382815481106107fa57634e487b7160e01b600052603260045260246000fd5b6000918252602090912001546001600160a01b0316141561081e5750600192915050565b806108288161096e565b9150506107c5565b50600092915050565b6000546001600160a01b0316331461085057600080fd5b600255565b612bf2806109a083390190565b80356001600160a01b038116811461087957600080fd5b919050565b60006020828403121561088f578081fd5b61089882610862565b9392505050565b6000806000606084860312156108b3578182fd5b6108bc84610862565b92506108ca60208501610862565b9150604084013590509250925092565b6000602082840312156108eb578081fd5b5035919050565b6020808252825182820181905260009190848201906040850190845b818110156109335783516001600160a01b03168352928401929184019160010161090e565b50909695505050505050565b6000821982111561095257610952610989565b500190565b60008282101561096957610969610989565b500390565b600060001982141561098257610982610989565b5060010190565b634e487b7160e01b600052601160045260246000fdfe6080604052600060045560006006556000600b556001600c5534801561002457600080fd5b50600080546001600160a01b03191633179055612bac806100466000396000f3fe608060405234801561001057600080fd5b50600436106101365760003560e01c806392106f05116100b2578063d9caed1211610081578063f32b7b7911610066578063f32b7b79146102ee578063f9fbdc0f146102f6578063fff1939c1461030957600080fd5b8063d9caed12146102d3578063f03527b0146102e657600080fd5b806392106f0514610264578063abb06b9514610279578063bc40f3bf14610282578063c45a0155146102c057600080fd5b8063481c6a75116101095780638340f549116100ee5780638340f549146102295780638f45244a1461023c578063914ac1e01461025157600080fd5b8063481c6a75146101ac5780637bb7bed1146101d757600080fd5b80630c4c1eba1461013b5780631794bb3c1461016e57806318324c111461018357806320171840146101a3575b600080fd5b61015b61014936600461273f565b60076020526000908152604090205481565b6040519081526020015b60405180910390f35b61018161017c36600461277e565b61033c565b005b61015b61019136600461273f565b60096020526000908152604090205481565b61015b60065481565b6001546101bf906001600160a01b031681565b6040516001600160a01b039091168152602001610165565b61020a6101e5366004612865565b600a60205260009081526040902080546001909101546001600160a01b039091169082565b604080516001600160a01b039093168352602083019190915201610165565b61018161023736600461277e565b6106e2565b610244610883565b60405161016591906128dd565b61015b61025f366004612809565b610a5c565b61026c610e5d565b6040516101659190612971565b61015b600b5481565b61020a6102903660046127be565b6008602090815260009283526040808420909152908252902080546001909101546001600160a01b039091169082565b6000546101bf906001600160a01b031681565b6101816102e136600461277e565b611022565b610181611211565b610181611302565b61015b610304366004612809565b6113eb565b61020a610317366004612865565b600560205260009081526040902080546001909101546001600160a01b039091169082565b6000546001600160a01b0316331461039b5760405162461bcd60e51b815260206004820152601d60248201527f58585846756e6420696e697469616c697a653a20464f5242494444454e00000060448201526064015b60405180910390fd5b600081116104115760405162461bcd60e51b815260206004820152603060248201527f58585846756e6420696e697469616c697a653a20746f6b656e20616d6f756e7460448201527f20697320696e73756666696369656e74000000000000000000000000000000006064820152608401610392565b6001600160a01b03821661048d5760405162461bcd60e51b815260206004820152602660248201527f58585846756e6420696e697469616c697a653a20746f6b656e2061646472657360448201527f73206973203000000000000000000000000000000000000000000000000000006064820152608401610392565b6000546040516371ec59fb60e11b81526001600160a01b0384811660048301529091169063e3d8b3f690602401602060405180830381600087803b1580156104d457600080fd5b505af11580156104e8573d6000803e3d6000fd5b505050506040513d601f19601f8201168201806040525081019061050c91906127e9565b6105685760405162461bcd60e51b815260206004820152602760248201527f58585846756e6420696e697469616c697a653a206e6f742077686974656c69736044820152663a103a37b5b2b760c91b6064820152608401610392565b600180546001600160a01b0319166001600160a01b0385169081179091556105939083903084611794565b604080518082019091526001600160a01b03831681526020810182905260006105bc8382612a92565b6001600160a01b0386811660008181526008602090815260408083208380528252808320885181546001600160a01b031916961695909517855587820151600190950194909455918152600790915290812080549293508392909190610623908490612a5a565b90915550506006805460009081526005602090815260408220855181546001600160a01b0319166001600160a01b0390911617815590850151600191820155825490929190610673908490612a5a565b92505081905550806004600082825461068c9190612a5a565b9091555050600154604080516001600160a01b03878116825260208201879052909216917f5548c837ab068cf56a2c2479df0882a4922fd203edb7517321831d95078c5f62910160405180910390a25050505050565b600c546001146107265760405162461bcd60e51b815260206004820152600f60248201526e161616119d5b990e881313d0d2d151608a1b6044820152606401610392565b6000600c55336001600160a01b0384161461074057600080fd5b6000546040516371ec59fb60e11b81526001600160a01b0384811660048301529091169063e3d8b3f690602401602060405180830381600087803b15801561078757600080fd5b505af115801561079b573d6000803e3d6000fd5b505050506040513d601f19601f820116820180604052508101906107bf91906127e9565b61081b5760405162461bcd60e51b815260206004820152602760248201527f58585846756e6420696e697469616c697a653a206e6f742077686974656c69736044820152663a103a37b5b2b760c91b6064820152608401610392565b61082782843084611794565b6108328383836118d1565b604080516001600160a01b038481168252602082018490528516917f5548c837ab068cf56a2c2479df0882a4922fd203edb7517321831d95078c5f6291015b60405180910390a250506001600c5550565b60035460609060008167ffffffffffffffff8111156108b257634e487b7160e01b600052604160045260246000fd5b60405190808252806020026020018201604052801561091557816020015b6109026040518060a0016040528060608152602001600081526020016000815260200160008152602001600081525090565b8152602001906001900390816108d05790505b50905060005b82811015610a55576003818154811061094457634e487b7160e01b600052603260045260246000fd5b90600052602060002090600502016040518060a001604052908160008201805461096d90612af8565b80601f016020809104026020016040519081016040528092919081815260200182805461099990612af8565b80156109e65780601f106109bb576101008083540402835291602001916109e6565b820191906000526020600020905b8154815290600101906020018083116109c957829003601f168201915b50505050508152602001600182015481526020016002820154815260200160038201548152602001600482015481525050828281518110610a3757634e487b7160e01b600052603260045260246000fd5b60200260200101819052508080610a4d90612b2d565b91505061091b565b5092915050565b6000600c54600114610aa25760405162461bcd60e51b815260206004820152600f60248201526e161616119d5b990e881313d0d2d151608a1b6044820152606401610392565b6000600c556001546001600160a01b03163314610aef5760405162461bcd60e51b815260206004820152600b60248201526a2737ba1036b0b730b3b2b960a91b6044820152606401610392565b6000546001600160a01b031663e3d8b3f6610b10604086016020870161273f565b6040517fffffffff0000000000000000000000000000000000000000000000000000000060e084901b1681526001600160a01b039091166004820152602401602060405180830381600087803b158015610b6957600080fd5b505af1158015610b7d573d6000803e3d6000fd5b505050506040513d601f19601f82011682018060405250810190610ba191906127e9565b610c135760405162461bcd60e51b815260206004820152603260248201527f58585846756e64207377617045786163744f757470757453696e676c653a206e60448201527f6f742077686974656c69737420746f6b656e00000000000000000000000000006064820152608401610392565b60008060009054906101000a90046001600160a01b03166001600160a01b031663f5c8ba936040518163ffffffff1660e01b8152600401602060405180830381600087803b158015610c6457600080fd5b505af1158015610c78573d6000803e3d6000fd5b505050506040513d601f19601f82011682018060405250810190610c9c9190612762565b9050610cb9610cae602086018661273f565b828660c00135611a0f565b60408051610100810190915260009080610cd6602088018861273f565b6001600160a01b03168152602001866020016020810190610cf7919061273f565b6001600160a01b03168152602001610d156060880160408901612842565b62ffffff168152602001306001600160a01b03168152602001866080013581526020018660a0013581526020018660c00135815260200160006001600160a01b03168152509050816001600160a01b031663db3e2198826040518263ffffffff1660e01b8152600401610d8891906129ec565b602060405180830381600087803b158015610da257600080fd5b505af1158015610db6573d6000803e3d6000fd5b505050506040513d601f19601f82011682018060405250810190610dda919061287d565b92508460c00135831015610e2457610e00610df8602087018761273f565b836000611a0f565b610e24610e10602087018761273f565b33610e1f8660c08a0135612ab1565b611b43565b610e5084610e35602088018861273f565b610e456040890160208a0161273f565b868960a00135611c70565b50506001600c5592915050565b60025460609060008167ffffffffffffffff811115610e8c57634e487b7160e01b600052604160045260246000fd5b604051908082528060200260200182016040528015610eea57816020015b610ed760405180606001604052806060815260200160006001600160a01b03168152602001600081525090565b815260200190600190039081610eaa5790505b50905060005b82811015610a555760028181548110610f1957634e487b7160e01b600052603260045260246000fd5b9060005260206000209060030201604051806060016040529081600082018054610f4290612af8565b80601f0160208091040260200160405190810160405280929190818152602001828054610f6e90612af8565b8015610fbb5780601f10610f9057610100808354040283529160200191610fbb565b820191906000526020600020905b815481529060010190602001808311610f9e57829003601f168201915b505050918352505060018201546001600160a01b03166020820152600290910154604090910152825183908390811061100457634e487b7160e01b600052603260045260246000fd5b6020026020010181905250808061101a90612b2d565b915050610ef0565b600c546001146110665760405162461bcd60e51b815260206004820152600f60248201526e161616119d5b990e881313d0d2d151608a1b6044820152606401610392565b6000600c55336001600160a01b0384161461108057600080fd5b61108b838383611ea5565b15156001146110dc5760405162461bcd60e51b815260206004820152601760248201527f77697468647261773a20496e76616c696420746f6b656e0000000000000000006044820152606401610392565b6001546001600160a01b038481169116141561110d576110fd828483611b43565b611108838383611fba565b6111ce565b600061111a84848461215b565b905080156111b657600061112e8183612a72565b9050600061113c85836122ca565b9050801561119557600b80546000908152600a602052604080822080546001600160a01b0319166001600160a01b038a16179055825482528120600190810185905582549092919061118f908490612a5a565b90915550505b6111a48587610e1f8588612ab1565b6111af868686611fba565b50506111cc565b6111c1838584611b43565b6111cc848484611fba565b505b604080516001600160a01b038481168252602082018490528516917f9b1bfa7fa9ee420a16e124f794c35ac9f90472acc99140eb2f6447c714cad8eb9101610871565b61123e60405180606001604052806060815260200160006001600160a01b03168152602001600081525090565b604080518082018252600a8152690323032322d30382d31360b41b60208083019190915290835273e592427a0aece92de3edee1f18e0157c058615648382015260009183018290526002805460018101825592528251805184936003027f405787fa12a823e0f2b7631cc41b3ba8828b3321ca811111fa75cd3aa3bb5ace01926112cc92849291019061268e565b5060208201516001820180546001600160a01b0319166001600160a01b0390921691909117905560409091015160029091015550565b6113346040518060a0016040528060608152602001600081526020016000815260200160008152602001600081525090565b604080518082018252600a8152690323032322d30382d31360b41b602080830191909152908352600083820181905291830182905260608301829052608083018290526003805460018101825592528251805184936005027fc2575a0e9e593c00f959f8c92f12db2869c3395a3b0502d05e2516446f71f85b01926113bd92849291019061268e565b5060208201518160010155604082015181600201556060820151816003015560808201518160040155505050565b6000600c546001146114315760405162461bcd60e51b815260206004820152600f60248201526e161616119d5b990e881313d0d2d151608a1b6044820152606401610392565b6000600c556001546001600160a01b0316331461147e5760405162461bcd60e51b815260206004820152600b60248201526a2737ba1036b0b730b3b2b960a91b6044820152606401610392565b6000546001600160a01b031663e3d8b3f661149f604086016020870161273f565b6040517fffffffff0000000000000000000000000000000000000000000000000000000060e084901b1681526001600160a01b039091166004820152602401602060405180830381600087803b1580156114f857600080fd5b505af115801561150c573d6000803e3d6000fd5b505050506040513d601f19601f8201168201806040525081019061153091906127e9565b6115a25760405162461bcd60e51b815260206004820152603160248201527f58585846756e6420737761704578616374496e70757453696e676c653a206e6f60448201527f742077686974656c69737420746f6b656e0000000000000000000000000000006064820152608401610392565b60008060009054906101000a90046001600160a01b03166001600160a01b031663f5c8ba936040518163ffffffff1660e01b8152600401602060405180830381600087803b1580156115f357600080fd5b505af1158015611607573d6000803e3d6000fd5b505050506040513d601f19601f8201168201806040525081019061162b9190612762565b905061164861163d602086018661273f565b828660a00135611a0f565b60408051610100810190915260009080611665602088018861273f565b6001600160a01b03168152602001866020016020810190611686919061273f565b6001600160a01b031681526020016116a46060880160408901612842565b62ffffff168152602001306001600160a01b03168152602001866080013581526020018660a0013581526020016000815260200160006001600160a01b03168152509050816001600160a01b031663414bf389826040518263ffffffff1660e01b815260040161171491906129ec565b602060405180830381600087803b15801561172e57600080fd5b505af1158015611742573d6000803e3d6000fd5b505050506040513d601f19601f82011682018060405250810190611766919061287d565b9250610e5084611779602088018861273f565b6117896040890160208a0161273f565b8860a0013587611c70565b604080516001600160a01b0385811660248301528481166044830152606480830185905283518084039091018152608490920183526020820180516001600160e01b03167f23b872dd00000000000000000000000000000000000000000000000000000000179052915160009283929088169161181191906128c1565b6000604051808303816000865af19150503d806000811461184e576040519150601f19603f3d011682016040523d82523d6000602084013e611853565b606091505b509150915081801561187d57508051158061187d57508080602001905181019061187d91906127e9565b6118c95760405162461bcd60e51b815260206004820152600360248201527f53544600000000000000000000000000000000000000000000000000000000006044820152606401610392565b505050505050565b60006118dd8383612348565b90508015611936576006805460009081526005602052604080822080546001600160a01b0319166001600160a01b0388161790558254825281206001908101859055825490929190611930908490612a5a565b90915550505b60006119428382612a92565b905080600460008282546119569190612a5a565b90915550600090506119698686866123b1565b905080156119da576001600160a01b038681166000818152600960208181526040808420805460088452828620818752845291852080546001600160a01b031916978d1697909717875560019687018b9055948452919052825490939291906119d3908490612a5a565b9091555050505b6001600160a01b03861660009081526007602052604081208054849290611a02908490612a5a565b9091555050505050505050565b604080516001600160a01b038481166024830152604480830185905283518084039091018152606490920183526020820180516001600160e01b03167f095ea7b3000000000000000000000000000000000000000000000000000000001790529151600092839290871691611a8491906128c1565b6000604051808303816000865af19150503d8060008114611ac1576040519150601f19603f3d011682016040523d82523d6000602084013e611ac6565b606091505b5091509150818015611af0575080511580611af0575080806020019051810190611af091906127e9565b611b3c5760405162461bcd60e51b815260206004820152600260248201527f53410000000000000000000000000000000000000000000000000000000000006044820152606401610392565b5050505050565b604080516001600160a01b038481166024830152604480830185905283518084039091018152606490920183526020820180516001600160e01b03167fa9059cbb000000000000000000000000000000000000000000000000000000001790529151600092839290871691611bb891906128c1565b6000604051808303816000865af19150503d8060008114611bf5576040519150601f19603f3d011682016040523d82523d6000602084013e611bfa565b606091505b5091509150818015611c24575080511580611c24575080806020019051810190611c2491906127e9565b611b3c5760405162461bcd60e51b815260206004820152600260248201527f53540000000000000000000000000000000000000000000000000000000000006044820152606401610392565b6001546001600160a01b03163314611cb85760405162461bcd60e51b815260206004820152600b60248201526a2737ba1036b0b730b3b2b960a91b6044820152606401610392565b6000611cc4858461245e565b90508015611d3a5760405162461bcd60e51b815260206004820152602f60248201527f75706461746553776170496e666f3a20496e76616c69642066756e6420746f6b60448201527f656e207377617020617474656d707400000000000000000000000000000000006064820152608401610392565b611d448483612348565b90508015611d9d576006805460009081526005602052604080822080546001600160a01b0319166001600160a01b0389161790558254825281206001908101859055825490929190611d97908490612a5a565b90915550505b6000611daa87878661254f565b90508015611e205760405162461bcd60e51b815260206004820152603760248201527f75706461746553776170496e666f3a20496e76616c696420696e766573746f7260448201527f20746f6b656e20776974686472617720617474656d70740000000000000000006064820152608401610392565b611e2b8786856123b1565b90508015611e9c576001600160a01b038781166000818152600960208181526040808420805460088452828620818752845291852080546001600160a01b031916978d1697909717875560019687018a905594845291905282549093929190611e95908490612a5a565b9091555050505b50505050505050565b600080805b6001600160a01b038616600090815260096020526040902054811015611fb1576001600160a01b03868116600090815260086020908152604080832085845290915290205481169086161415611f9f576001600160a01b0386166000908152600860209081526040808320848452909152902060010154841115611f965760405162461bcd60e51b815260206004820152602760248201527f77697468647261773a20496e76616c696420776974686472617720746f6b656e60448201527f20616d6f756e74000000000000000000000000000000000000000000000000006064820152608401610392565b60019150611fb1565b80611fa981612b2d565b915050611eaa565b50949350505050565b6000611fc6838361245e565b9050801561203c5760405162461bcd60e51b815260206004820152603760248201527f7570646174655769746864726177496e666f3a20496e76616c69642066756e6460448201527f20746f6b656e20776974686472617720617474656d70740000000000000000006064820152608401610392565b60006120488382612a92565b905060006120568183612a72565b9050806004546120669190612a92565b600460008282546120779190612ab1565b909155506000905061208a87878761254f565b905080156121005760405162461bcd60e51b815260206004820152603b60248201527f7570646174655769746864726177496e666f3a20496e76616c696420696e766560448201527f73746f7220746f6b656e20776974686472617720617474656d707400000000006064820152608401610392565b600061210c8185612a72565b6001600160a01b038916600090815260076020526040902054909150612133908290612a92565b6001600160a01b03891660009081526007602052604081208054909190611e95908490612ab1565b6000806121688382612a92565b90506001600160a01b0385166121e65760405162461bcd60e51b815260206004820152602a60248201527f6765744d616e616765725265776172643a20496e76616c696420696e7665737460448201527f6f722061646472657373000000000000000000000000000000000000000000006064820152608401610392565b6001600160a01b0385166000908152600760205260408120548190819061220d9082612ab1565b905080156122be57818460008054906101000a90046001600160a01b03166001600160a01b031663198055386040518163ffffffff1660e01b8152600401602060405180830381600087803b15801561226557600080fd5b505af1158015612279573d6000803e3d6000fd5b505050506040513d601f19601f8201168201806040525081019061229d919061287d565b6122a79084612a92565b6122b19190612a92565b6122bb9190612a72565b92505b50909695505050505050565b60006001815b600b5481101561233e576000818152600a60205260409020546001600160a01b038681169116141561232c576000818152600a60205260408120600101805491935085918490612321908490612a5a565b9091555061233e9050565b8061233681612b2d565b9150506122d0565b5090505b92915050565b60006001815b60065481101561233e576000818152600560205260409020546001600160a01b038681169116141561239f576000818152600560205260408120600101805491935085918490612321908490612a5a565b806123a981612b2d565b91505061234e565b60006001815b6001600160a01b038616600090815260096020526040902054811015611fb1576001600160a01b0386811660009081526008602090815260408083208584529091529020548116908616141561244c576001600160a01b03861660009081526008602090815260408083208484529091528120600101805491935085918490612441908490612a5a565b90915550611fb19050565b8061245681612b2d565b9150506123b7565b60006001815b60065481101561233e576000818152600560205260409020546001600160a01b038681169116141561253d5760008181526005602052604081206001015490925084111561251c576040805162461bcd60e51b81526020600482015260248101919091527f6465637265617365546f6b656e416d6f756e743a20646563726561736520746f60448201527f6b656e20616d6f756e74206973206d6f7265207468616e20796f7520686176656064820152608401610392565b60008181526005602052604081206001018054869290612321908490612ab1565b8061254781612b2d565b915050612464565b60006001815b6001600160a01b038616600090815260096020526040902054811015611fb1576001600160a01b0386811660009081526008602090815260408083208584529091529020548116908616141561267c576001600160a01b0386166000908152600860209081526040808320848452909152812060010154909250841115612646576040805162461bcd60e51b81526020600482015260248101919091527f6465637265617365546f6b656e416d6f756e743a20646563726561736520746f60448201527f6b656e20616d6f756e74206973206d6f7265207468616e20796f7520686176656064820152608401610392565b6001600160a01b038616600090815260086020908152604080832084845290915281206001018054869290612441908490612ab1565b8061268681612b2d565b915050612555565b82805461269a90612af8565b90600052602060002090601f0160209004810192826126bc5760008555612702565b82601f106126d557805160ff1916838001178555612702565b82800160010185558215612702579182015b828111156127025782518255916020019190600101906126e7565b5061270e929150612712565b5090565b5b8082111561270e5760008155600101612713565b60006101008284031215612739578081fd5b50919050565b600060208284031215612750578081fd5b813561275b81612b5e565b9392505050565b600060208284031215612773578081fd5b815161275b81612b5e565b600080600060608486031215612792578182fd5b833561279d81612b5e565b925060208401356127ad81612b5e565b929592945050506040919091013590565b600080604083850312156127d0578182fd5b82356127db81612b5e565b946020939093013593505050565b6000602082840312156127fa578081fd5b8151801515811461275b578182fd5b600080610120838503121561281c578182fd5b6128268484612727565b915061010083013561283781612b5e565b809150509250929050565b600060208284031215612853578081fd5b813562ffffff8116811461275b578182fd5b600060208284031215612876578081fd5b5035919050565b60006020828403121561288e578081fd5b5051919050565b600081518084526128ad816020860160208601612ac8565b601f01601f19169290920160200192915050565b600082516128d3818460208701612ac8565b9190910192915050565b60006020808301818452808551808352604092508286019150828160051b870101848801865b8381101561296357603f19898403018552815160a0815181865261292982870182612895565b838b0151878c0152898401518a88015260608085015190880152608093840151939096019290925250509386019390860190600101612903565b509098975050505050505050565b60006020808301818452808551808352604092508286019150828160051b870101848801865b8381101561296357603f198984030185528151606081518186526129bd82870182612895565b838b01516001600160a01b0316878c015292890151958901959095525094870194925090860190600101612997565b610100810161234282846001600160a01b0380825116835280602083015116602084015262ffffff60408301511660408401528060608301511660608401526080820151608084015260a082015160a084015260c082015160c08401528060e08301511660e0840152505050565b60008219821115612a6d57612a6d612b48565b500190565b600082612a8d57634e487b7160e01b81526012600452602481fd5b500490565b6000816000190483118215151615612aac57612aac612b48565b500290565b600082821015612ac357612ac3612b48565b500390565b60005b83811015612ae3578181015183820152602001612acb565b83811115612af2576000848401525b50505050565b600181811c90821680612b0c57607f821691505b6020821081141561273957634e487b7160e01b600052602260045260246000fd5b6000600019821415612b4157612b41612b48565b5060010190565b634e487b7160e01b600052601160045260246000fd5b6001600160a01b0381168114612b7357600080fd5b5056fea26469706673582212209912838505b2cae8256a7aa742247c635990dba360baedf930b64b5924e6348964736f6c63430008040033a2646970667358221220c95bb67493af4ed85774850b7b3f35f892275c06d3460b01acd6e222d4d349e964736f6c63430008040033",
  "linkReferences": {},
  "deployedLinkReferences": {}
}