{
  "_format": "hh-sol-artifact-1",
  "contractName": "XXXFund2",
  "sourceName": "contracts/XXXFund2.sol",
  "abi": [
    {
      "inputs": [],
      "stateMutability": "nonpayable",
      "type": "constructor"
    },
    {
      "anonymous": false,
      "inputs": [
        {
          "indexed": false,
          "internalType": "address",
          "name": "fund",
          "type": "address"
        },
        {
          "indexed": false,
          "internalType": "address",
          "name": "manager",
          "type": "address"
        }
      ],
      "name": "Create",
      "type": "event"
    },
    {
      "anonymous": false,
      "inputs": [
        {
          "indexed": true,
          "internalType": "address",
          "name": "investor",
          "type": "address"
        },
        {
          "indexed": false,
          "internalType": "address",
          "name": "_token",
          "type": "address"
        },
        {
          "indexed": false,
          "internalType": "uint256",
          "name": "_amount",
          "type": "uint256"
        }
      ],
      "name": "Deposit",
      "type": "event"
    },
    {
      "anonymous": false,
      "inputs": [
        {
          "indexed": true,
          "internalType": "address",
          "name": "manager",
          "type": "address"
        },
        {
          "indexed": false,
          "internalType": "address",
          "name": "tokenIn",
          "type": "address"
        },
        {
          "indexed": false,
          "internalType": "address",
          "name": "tokenOut",
          "type": "address"
        },
        {
          "indexed": false,
          "internalType": "uint256",
          "name": "amountIn",
          "type": "uint256"
        },
        {
          "indexed": false,
          "internalType": "uint256",
          "name": "amountOut",
          "type": "uint256"
        }
      ],
      "name": "Swap",
      "type": "event"
    },
    {
      "anonymous": false,
      "inputs": [
        {
          "indexed": true,
          "internalType": "address",
          "name": "investor",
          "type": "address"
        },
        {
          "indexed": false,
          "internalType": "address",
          "name": "_token",
          "type": "address"
        },
        {
          "indexed": false,
          "internalType": "uint256",
          "name": "_amount",
          "type": "uint256"
        }
      ],
      "name": "Withdraw",
      "type": "event"
    },
    {
      "inputs": [
        {
          "internalType": "address",
          "name": "investor",
          "type": "address"
        },
        {
          "internalType": "address",
          "name": "_token",
          "type": "address"
        },
        {
          "internalType": "uint256",
          "name": "_amount",
          "type": "uint256"
        }
      ],
      "name": "deposit",
      "outputs": [],
      "stateMutability": "payable",
      "type": "function"
    },
    {
      "inputs": [],
      "name": "factory",
      "outputs": [
        {
          "internalType": "address",
          "name": "",
          "type": "address"
        }
      ],
      "stateMutability": "view",
      "type": "function"
    },
    {
      "inputs": [
        {
          "internalType": "address",
          "name": "investor",
          "type": "address"
        }
      ],
      "name": "getInvestorTokens",
      "outputs": [
        {
          "components": [
            {
              "internalType": "address",
              "name": "tokenAddress",
              "type": "address"
            },
            {
              "internalType": "uint256",
              "name": "amount",
              "type": "uint256"
            }
          ],
          "internalType": "struct IXXXFund2.Token[]",
          "name": "",
          "type": "tuple[]"
        }
      ],
      "stateMutability": "view",
      "type": "function"
    },
    {
      "inputs": [
        {
          "internalType": "address",
          "name": "_manager",
          "type": "address"
        }
      ],
      "name": "initialize",
      "outputs": [],
      "stateMutability": "nonpayable",
      "type": "function"
    },
    {
      "inputs": [
        {
          "internalType": "address",
          "name": "",
          "type": "address"
        }
      ],
      "name": "investorTokenCount",
      "outputs": [
        {
          "internalType": "uint256",
          "name": "",
          "type": "uint256"
        }
      ],
      "stateMutability": "view",
      "type": "function"
    },
    {
      "inputs": [
        {
          "internalType": "address",
          "name": "",
          "type": "address"
        },
        {
          "internalType": "uint256",
          "name": "",
          "type": "uint256"
        }
      ],
      "name": "investorTokens",
      "outputs": [
        {
          "internalType": "address",
          "name": "tokenAddress",
          "type": "address"
        },
        {
          "internalType": "uint256",
          "name": "amount",
          "type": "uint256"
        }
      ],
      "stateMutability": "view",
      "type": "function"
    },
    {
      "inputs": [],
      "name": "manager",
      "outputs": [
        {
          "internalType": "address",
          "name": "",
          "type": "address"
        }
      ],
      "stateMutability": "view",
      "type": "function"
    },
    {
      "inputs": [],
      "name": "rewardTokenCount",
      "outputs": [
        {
          "internalType": "uint256",
          "name": "",
          "type": "uint256"
        }
      ],
      "stateMutability": "view",
      "type": "function"
    },
    {
      "inputs": [
        {
          "internalType": "uint256",
          "name": "",
          "type": "uint256"
        }
      ],
      "name": "rewardTokens",
      "outputs": [
        {
          "internalType": "address",
          "name": "tokenAddress",
          "type": "address"
        },
        {
          "internalType": "uint256",
          "name": "amount",
          "type": "uint256"
        }
      ],
      "stateMutability": "view",
      "type": "function"
    },
    {
      "inputs": [
        {
          "components": [
            {
              "internalType": "enum IXXXFund2.V3TradeType",
              "name": "tradeType",
              "type": "uint8"
            },
            {
              "internalType": "enum IXXXFund2.V3SwapType",
              "name": "swapType",
              "type": "uint8"
            },
            {
              "internalType": "address",
              "name": "investor",
              "type": "address"
            },
            {
              "internalType": "address",
              "name": "tokenIn",
              "type": "address"
            },
            {
              "internalType": "address",
              "name": "tokenOut",
              "type": "address"
            },
            {
              "internalType": "address",
              "name": "recipient",
              "type": "address"
            },
            {
              "internalType": "uint24",
              "name": "fee",
              "type": "uint24"
            },
            {
              "internalType": "uint256",
              "name": "amountIn",
              "type": "uint256"
            },
            {
              "internalType": "uint256",
              "name": "amountOut",
              "type": "uint256"
            },
            {
              "internalType": "uint256",
              "name": "amountInMaximum",
              "type": "uint256"
            },
            {
              "internalType": "uint256",
              "name": "amountOutMinimum",
              "type": "uint256"
            },
            {
              "internalType": "uint160",
              "name": "sqrtPriceLimitX96",
              "type": "uint160"
            },
            {
              "internalType": "bytes",
              "name": "path",
              "type": "bytes"
            }
          ],
          "internalType": "struct IXXXFund2.V3TradeParams[]",
          "name": "trades",
          "type": "tuple[]"
        }
      ],
      "name": "swap",
      "outputs": [
        {
          "internalType": "uint256",
          "name": "",
          "type": "uint256"
        }
      ],
      "stateMutability": "payable",
      "type": "function"
    },
    {
      "inputs": [
        {
          "internalType": "address",
          "name": "investor",
          "type": "address"
        },
        {
          "internalType": "address",
          "name": "_token",
          "type": "address"
        },
        {
          "internalType": "uint256",
          "name": "_amount",
          "type": "uint256"
        }
      ],
      "name": "withdraw",
      "outputs": [],
      "stateMutability": "payable",
      "type": "function"
    }
  ],
  "bytecode": "0x60806040526000600555600160065534801561001a57600080fd5b50600080546001600160a01b031916331790556132748061003c6000396000f3fe6080604052600436106100bc5760003560e01c80638340f54911610074578063c45a01551161004e578063c45a0155146101d1578063c4d66de8146101e6578063d9caed1214610206576100bc565b80638340f54914610187578063abb06b951461019c578063bc40f3bf146101b1576100bc565b806350ac1dd9116100a557806350ac1dd914610119578063696c56391461012c5780637bb7bed114610159576100bc565b806318324c11146100c1578063481c6a75146100f7575b600080fd5b3480156100cd57600080fd5b506100e16100dc3660046129c7565b610219565b6040516100ee9190613060565b60405180910390f35b34801561010357600080fd5b5061010c61022b565b6040516100ee9190612c37565b6100e1610127366004612a71565b61023a565b34801561013857600080fd5b5061014c6101473660046129c7565b610a09565b6040516100ee9190612ccb565b34801561016557600080fd5b50610179610174366004612b36565b610af0565b6040516100ee929190612cb2565b61019a610195366004612a06565b610b15565b005b3480156101a857600080fd5b506100e1610ddc565b3480156101bd57600080fd5b506101796101cc366004612a46565b610de2565b3480156101dd57600080fd5b5061010c610e12565b3480156101f257600080fd5b5061019a6102013660046129c7565b610e21565b61019a610214366004612a06565b610eb7565b60036020526000908152604090205481565b6001546001600160a01b031681565b60006006546001146102675760405162461bcd60e51b815260040161025e90612f4d565b60405180910390fd5b600060065560408051808201909152601481527f73776170282920706172616d65746572203d3e2000000000000000000000000060208201526102a990610fc3565b61031f6040518060400160405280601081526020017f20202020747261646554797065203a2000000000000000000000000000000000815250848460008181106102ef57fe5b905060200281019061030191906130b5565b61030f906020810190612b00565b600181111561031a57fe5b611085565b6103886040518060400160405280600f81526020017f202020207377617054797065203a2000000000000000000000000000000000008152508484600081811061036557fe5b905060200281019061037791906130b5565b61030f906040810190602001612b00565b6103f66040518060400160405280600f81526020017f20202020696e766573746f72203a200000000000000000000000000000000000815250848460008181106103ce57fe5b90506020028101906103e091906130b5565b6103f19060608101906040016129c7565b611150565b61045f6040518060400160405280600e81526020017f20202020746f6b656e496e203a200000000000000000000000000000000000008152508484600081811061043c57fe5b905060200281019061044e91906130b5565b6103f19060808101906060016129c7565b6104c86040518060400160405280600f81526020017f20202020746f6b656e4f7574203a200000000000000000000000000000000000815250848460008181106104a557fe5b90506020028101906104b791906130b5565b6103f19060a08101906080016129c7565b6105316040518060400160405280601081526020017f20202020726563697069656e74203a20000000000000000000000000000000008152508484600081811061050e57fe5b905060200281019061052091906130b5565b6103f19060c081019060a0016129c7565b6105a46040518060400160405280600a81526020017f20202020666565203a20000000000000000000000000000000000000000000008152508484600081811061057757fe5b905060200281019061058991906130b5565b61059a9060e081019060c001612b1c565b62ffffff16611085565b6106056040518060400160405280600f81526020017f20202020616d6f756e74496e203a200000000000000000000000000000000000815250848460008181106105ea57fe5b90506020028101906105fc91906130b5565b60e00135611085565b6106676040518060400160405280601081526020017f20202020616d6f756e744f7574203a20000000000000000000000000000000008152508484600081811061064b57fe5b905060200281019061065d91906130b5565b6101000135611085565b6106c96040518060400160405280601681526020017f20202020616d6f756e74496e4d6178696d756d203a2000000000000000000000815250848460008181106106ad57fe5b90506020028101906106bf91906130b5565b6101400135611085565b61070f6040518060400160405280601781526020017f20202020616d6f756e744f75744d696e696d756d203a20000000000000000000815250848460008181106106ad57fe5b6107886040518060400160405280601881526020017f202020207371727450726963654c696d6974583936203a2000000000000000008152508484600081811061075557fe5b905060200281019061076791906130b5565b61077a90610180810190610160016129c7565b6001600160a01b0316611085565b6107c66040518060400160405280600b81526020017f2020202070617468203a20000000000000000000000000000000000000000000815250610fc3565b610831838360008181106107d657fe5b90506020028101906107e891906130b5565b6107f790610180810190613069565b8080601f01602080910402602001604051908101604052809392919081815260200183838082843760009201919091525061122092505050565b6001546001600160a01b0316331461085b5760405162461bcd60e51b815260040161025e90612dee565b60005b828110156109f957600084848381811061087457fe5b905060200281019061088691906130b5565b610897906040810190602001612b00565b60018111156108a257fe5b14156109525760008484838181106108b657fe5b90506020028101906108c891906130b5565b6108d6906020810190612b00565b60018111156108e157fe5b141561091c576109168484838181106108f657fe5b905060200281019061090891906130b5565b610911906130ef565b6112df565b5061094d565b61094b84848381811061092b57fe5b905060200281019061093d91906130b5565b610946906130ef565b611664565b505b6109f1565b600084848381811061096057fe5b905060200281019061097291906130b5565b610980906020810190612b00565b600181111561098b57fe5b14156109c05761094b8484838181106109a057fe5b90506020028101906109b291906130b5565b6109bb906130ef565b6119de565b6109ef8484838181106109cf57fe5b90506020028101906109e191906130b5565b6109ea906130ef565b611d53565b505b60010161085e565b5060019050600160065592915050565b6001600160a01b0381166000908152600360205260408120546060918167ffffffffffffffff81118015610a3c57600080fd5b50604051908082528060200260200182016040528015610a7657816020015b610a63612922565b815260200190600190039081610a5b5790505b50905060005b82811015610ae6576001600160a01b038086166000908152600260209081526040808320858452825291829020825180840190935280549093168252600190920154918101919091528251839083908110610ad357fe5b6020908102919091010152600101610a7c565b509150505b919050565b600460205260009081526040902080546001909101546001600160a01b039091169082565b600654600114610b375760405162461bcd60e51b815260040161025e90612f4d565b6000600655336001600160a01b03841614610b5157600080fd5b6000546040516371ec59fb60e11b81526001600160a01b039091169063e3d8b3f690610b81908590600401612c37565b60206040518083038186803b158015610b9957600080fd5b505afa158015610bad573d6000803e3d6000fd5b505050506040513d601f19601f82011682018060405250810190610bd19190612ae0565b610bed5760405162461bcd60e51b815260040161025e90612e25565b6040517f23b872dd0000000000000000000000000000000000000000000000000000000081526001600160a01b038316906323b872dd90610c3690869030908690600401612c65565b602060405180830381600087803b158015610c5057600080fd5b505af1158015610c64573d6000803e3d6000fd5b505050506040513d601f19601f82011682018060405250810190610c889190612ae0565b50610c948383836120bb565b610cd26040518060400160405280600d81526020017f6465706f7369742829203d3e2000000000000000000000000000000000000000815250610fc3565b610d116040518060400160405280600f81526020017f20202020696e766573746f72203a20000000000000000000000000000000000081525084611150565b610d506040518060400160405280600d81526020017f202020205f746f6b656e203a200000000000000000000000000000000000000081525083611150565b610d8f6040518060400160405280600e81526020017f202020205f616d6f756e74203a2000000000000000000000000000000000000081525082611085565b826001600160a01b03167f5548c837ab068cf56a2c2479df0882a4922fd203edb7517321831d95078c5f628383604051610dca929190612cb2565b60405180910390a25050600160065550565b60055481565b6002602090815260009283526040808420909152908252902080546001909101546001600160a01b039091169082565b6000546001600160a01b031681565b6000546001600160a01b03163314610e4b5760405162461bcd60e51b815260040161025e90612db7565b6001805473ffffffffffffffffffffffffffffffffffffffff19166001600160a01b0383811691909117918290556040517f96b5b9b8a7193304150caccf9b80d150675fa3d6af57761d8d8ef1d6f9a1a90992610eac923092911690612c4b565b60405180910390a150565b600654600114610ed95760405162461bcd60e51b815260040161025e90612f4d565b6000600655336001600160a01b03841614610ef357600080fd5b610efe83838361213b565b1515600114610f1f5760405162461bcd60e51b815260040161025e90612f16565b6040517fa9059cbb0000000000000000000000000000000000000000000000000000000081526001600160a01b0383169063a9059cbb90610f669086908590600401612cb2565b602060405180830381600087803b158015610f8057600080fd5b505af1158015610f94573d6000803e3d6000fd5b505050506040513d601f19601f82011682018060405250810190610fb89190612ae0565b505060016006555050565b611082816040516024018080602001828103825283818151815260200191508051906020019080838360005b83811015611007578181015183820152602001610fef565b50505050905090810190601f1680156110345780820380516001836020036101000a031916815260200191505b5060408051601f198184030181529190526020810180516001600160e01b03167f41304fac0000000000000000000000000000000000000000000000000000000017905292506121f0915050565b50565b61114c82826040516024018080602001838152602001828103825284818151815260200191508051906020019080838360005b838110156110d05781810151838201526020016110b8565b50505050905090810190601f1680156110fd5780820380516001836020036101000a031916815260200191505b5060408051601f198184030181529190526020810180516001600160e01b03167f9710a9d00000000000000000000000000000000000000000000000000000000017905293506121f092505050565b5050565b61114c82826040516024018080602001836001600160a01b03168152602001828103825284818151815260200191508051906020019080838360005b838110156111a457818101518382015260200161118c565b50505050905090810190601f1680156111d15780820380516001836020036101000a031916815260200191505b5060408051601f198184030181529190526020810180516001600160e01b03167f319af3330000000000000000000000000000000000000000000000000000000017905293506121f092505050565b611082816040516024018080602001828103825283818151815260200191508051906020019080838360005b8381101561126457818101518382015260200161124c565b50505050905090810190601f1680156112915780820380516001836020036101000a031916815260200191505b5060408051601f198184030181529190526020810180516001600160e01b03167f0be77f560000000000000000000000000000000000000000000000000000000017905292506121f0915050565b6000805460808301516040516371ec59fb60e11b81526001600160a01b039092169163e3d8b3f69161131391600401612c37565b60206040518083038186803b15801561132b57600080fd5b505afa15801561133f573d6000803e3d6000fd5b505050506040513d601f19601f820116820180604052508101906113639190612ae0565b61137f5760405162461bcd60e51b815260040161025e90612edf565b600061139383604001518460600151612211565b90508260e001518110156113b95760405162461bcd60e51b815260040161025e90612d23565b60008060009054906101000a90046001600160a01b03166001600160a01b031663f5c8ba936040518163ffffffff1660e01b815260040160206040518083038186803b15801561140857600080fd5b505afa15801561141c573d6000803e3d6000fd5b505050506040513d601f19601f8201168201806040525081019061144091906129ea565b905083606001516001600160a01b031663095ea7b360e01b828660e0015160405160240161146f929190612cb2565b60408051601f198184030181529181526020820180516001600160e01b03166001600160e01b03199094169390931790925290516114ad9190612c1b565b6000604051808303816000865af19150503d80600081146114ea576040519150601f19603f3d011682016040523d82523d6000602084013e6114ef565b606091505b50505060006040518060e0016040528086606001516001600160a01b0316815260200186608001516001600160a01b031681526020018660c0015162ffffff168152602001306001600160a01b031681526020018660e001518152602001866101400151815260200160006001600160a01b03168152509050816001600160a01b03166304e45aaf826040518263ffffffff1660e01b81526004016115949190613052565b602060405180830381600087803b1580156115ae57600080fd5b505af11580156115c2573d6000803e3d6000fd5b505050506040513d601f19601f820116820180604052508101906115e69190612b4e565b93506116058560400151866060015187608001518860e00151886122a6565b84604001516001600160a01b03167fcd3829a3813dc3cdd188fd3d01dcf3268c16be2fdd2dd21d0665418816e46062866060015187608001518860e00151886040516116549493929190612c89565b60405180910390a2505050919050565b6000805460808301516040516371ec59fb60e11b81526001600160a01b039092169163e3d8b3f69161169891600401612c37565b60206040518083038186803b1580156116b057600080fd5b505afa1580156116c4573d6000803e3d6000fd5b505050506040513d601f19601f820116820180604052508101906116e89190612ae0565b6117045760405162461bcd60e51b815260040161025e90612edf565b600061171883604001518460600151612211565b905082610120015181101561173f5760405162461bcd60e51b815260040161025e90612d23565b60008060009054906101000a90046001600160a01b03166001600160a01b031663f5c8ba936040518163ffffffff1660e01b815260040160206040518083038186803b15801561178e57600080fd5b505afa1580156117a2573d6000803e3d6000fd5b505050506040513d601f19601f820116820180604052508101906117c691906129ea565b905083606001516001600160a01b031663095ea7b360e01b828661012001516040516024016117f6929190612cb2565b60408051601f198184030181529181526020820180516001600160e01b03166001600160e01b03199094169390931790925290516118349190612c1b565b6000604051808303816000865af19150503d8060008114611871576040519150601f19603f3d011682016040523d82523d6000602084013e611876565b606091505b50505060006040518060e0016040528086606001516001600160a01b0316815260200186608001516001600160a01b031681526020018660c0015162ffffff168152602001306001600160a01b031681526020018661010001518152602001866101200151815260200160006001600160a01b03168152509050816001600160a01b0316635023b4df826040518263ffffffff1660e01b815260040161191c9190613052565b602060405180830381600087803b15801561193657600080fd5b505af115801561194a573d6000803e3d6000fd5b505050506040513d601f19601f8201168201806040525081019061196e9190612b4e565b935061198e856040015186606001518760800151878961010001516122a6565b84604001516001600160a01b03167fcd3829a3813dc3cdd188fd3d01dcf3268c16be2fdd2dd21d0665418816e4606286606001518760800151878961010001516040516116549493929190612c89565b6000806119ef83610180015161241c565b6000546040516371ec59fb60e11b81529192506001600160a01b03169063e3d8b3f690611a20908490600401612c37565b60206040518083038186803b158015611a3857600080fd5b505afa158015611a4c573d6000803e3d6000fd5b505050506040513d601f19601f82011682018060405250810190611a709190612ae0565b611a8c5760405162461bcd60e51b815260040161025e90612edf565b6000611a9c846101800151612465565b505090506000611ab0856040015183612211565b90508460e00151811015611ad65760405162461bcd60e51b815260040161025e90612d23565b60008060009054906101000a90046001600160a01b03166001600160a01b031663f5c8ba936040518163ffffffff1660e01b815260040160206040518083038186803b158015611b2557600080fd5b505afa158015611b39573d6000803e3d6000fd5b505050506040513d601f19601f82011682018060405250810190611b5d91906129ea565b905085606001516001600160a01b031663095ea7b360e01b828860e00151604051602401611b8c929190612cb2565b60408051601f198184030181529181526020820180516001600160e01b03166001600160e01b0319909416939093179092529051611bca9190612c1b565b6000604051808303816000865af19150503d8060008114611c07576040519150601f19603f3d011682016040523d82523d6000602084013e611c0c565b606091505b505060408051608081018252610180890151815230602082015260e089015181830152610140890151606082015290517fb858183f0000000000000000000000000000000000000000000000000000000081529091506001600160a01b0383169063b858183f90611c8190849060040161303f565b602060405180830381600087803b158015611c9b57600080fd5b505af1158015611caf573d6000803e3d6000fd5b505050506040513d601f19601f82011682018060405250810190611cd39190612b4e565b9550611cf28760400151886060015189608001518a60e001518a6122a6565b86604001516001600160a01b03167fcd3829a3813dc3cdd188fd3d01dcf3268c16be2fdd2dd21d0665418816e46062886060015189608001518a60e001518a604051611d419493929190612c89565b60405180910390a25050505050919050565b600080611d6483610180015161241c565b6000546040516371ec59fb60e11b81529192506001600160a01b03169063e3d8b3f690611d95908490600401612c37565b60206040518083038186803b158015611dad57600080fd5b505afa158015611dc1573d6000803e3d6000fd5b505050506040513d601f19601f82011682018060405250810190611de59190612ae0565b611e015760405162461bcd60e51b815260040161025e90612edf565b6000611e11846101800151612465565b505090506000611e25856040015183612211565b9050846101200151811015611e4c5760405162461bcd60e51b815260040161025e90612d23565b60008060009054906101000a90046001600160a01b03166001600160a01b031663f5c8ba936040518163ffffffff1660e01b815260040160206040518083038186803b158015611e9b57600080fd5b505afa158015611eaf573d6000803e3d6000fd5b505050506040513d601f19601f82011682018060405250810190611ed391906129ea565b905085606001516001600160a01b031663095ea7b360e01b82886101200151604051602401611f03929190612cb2565b60408051601f198184030181529181526020820180516001600160e01b03166001600160e01b0319909416939093179092529051611f419190612c1b565b6000604051808303816000865af19150503d8060008114611f7e576040519150601f19603f3d011682016040523d82523d6000602084013e611f83565b606091505b505060408051608081018252610180890151815230602082015261010089015181830152610120890151606082015290517f09b813460000000000000000000000000000000000000000000000000000000081529091506001600160a01b038316906309b8134690611ff990849060040161303f565b602060405180830381600087803b15801561201357600080fd5b505af1158015612027573d6000803e3d6000fd5b505050506040513d601f19601f8201168201806040525081019061204b9190612b4e565b955061206b876040015188606001518960800151898b61010001516122a6565b86604001516001600160a01b03167fcd3829a3813dc3cdd188fd3d01dcf3268c16be2fdd2dd21d0665418816e4606288606001518960800151898b6101000151604051611d419493929190612c89565b60006120c8848484612496565b90508015612135576001600160a01b0384811660008181526003602081815260408084208054600284528286209086528352908420805473ffffffffffffffffffffffffffffffffffffffff1916968a169690961786556001958601889055939092529052805490910190555b50505050565b600080805b6001600160a01b0386166000908152600360205260409020548110156121e7576001600160a01b038681166000908152600260209081526040808320858452909152902054811690861614156121df576001600160a01b03861660009081526002602090815260408083208484529091529020600101548411156121d65760405162461bcd60e51b815260040161025e90612e82565b600191506121e7565b600101612140565b50949350505050565b80516a636f6e736f6c652e6c6f67602083016000808483855afa5050505050565b6000805b6001600160a01b03841660009081526003602052604090205481101561229a576001600160a01b03848116600090815260026020908152604080832085845290915290205481169084161415612292576001600160a01b0384166000908152600260209081526040808320938352929052206001015490506122a0565b600101612215565b50600090505b92915050565b6000546040517f3fefc25d0000000000000000000000000000000000000000000000000000000081526001600160a01b0390911690633fefc25d906122ef903390600401612c37565b60206040518083038186803b15801561230757600080fd5b505afa15801561231b573d6000803e3d6000fd5b505050506040513d601f19601f8201168201806040525081019061233f91906129ea565b6001600160a01b0316306001600160a01b03161461236f5760405162461bcd60e51b815260040161025e90612f84565b600061237c868685612527565b9050801561239c5760405162461bcd60e51b815260040161025e90612d5a565b6123a7868584612496565b90508015612414576001600160a01b0386811660008181526003602081815260408084208054600284528286209086528352908420805473ffffffffffffffffffffffffffffffffffffffff1916968b169690961786556001958601889055939092529052805490910190555b505050505050565b6000805b600061242b84612600565b905080156124435761243c84612608565b935061245f565b600080600061245187612465565b5095506122a0945050505050565b50612420565b60008080612473848261261f565b92506124808460146126eb565b905061248d84601761261f565b91509193909250565b60006001815b6001600160a01b0386166000908152600360205260409020548110156121e7576001600160a01b0386811660009081526002602090815260408083208584529091529020548116908616141561251f576001600160a01b0386166000908152600260209081526040808320848452909152812060010180548601905591506121e7565b60010161249c565b60006001815b6001600160a01b0386166000908152600360205260409020548110156121e7576001600160a01b038681166000908152600260209081526040808320858452909152902054811690861614156125f8576001600160a01b03861660009081526002602090815260408083208484529091528120600101549092508411156125c65760405162461bcd60e51b815260040161025e90612fe1565b6001600160a01b03861660009081526002602090815260408083208484529091529020600101805485900390556121e7565b60010161252d565b516042111590565b80516060906122a0908390601790601619016127a7565b600081826014011015612679576040805162461bcd60e51b815260206004820152601260248201527f746f416464726573735f6f766572666c6f770000000000000000000000000000604482015290519081900360640190fd5b81601401835110156126d2576040805162461bcd60e51b815260206004820152601560248201527f746f416464726573735f6f75744f66426f756e64730000000000000000000000604482015290519081900360640190fd5b5001602001516c01000000000000000000000000900490565b600081826003011015612745576040805162461bcd60e51b815260206004820152601160248201527f746f55696e7432345f6f766572666c6f77000000000000000000000000000000604482015290519081900360640190fd5b816003018351101561279e576040805162461bcd60e51b815260206004820152601460248201527f746f55696e7432345f6f75744f66426f756e6473000000000000000000000000604482015290519081900360640190fd5b50016003015190565b60608182601f011015612801576040805162461bcd60e51b815260206004820152600e60248201527f736c6963655f6f766572666c6f77000000000000000000000000000000000000604482015290519081900360640190fd5b828284011015612858576040805162461bcd60e51b815260206004820152600e60248201527f736c6963655f6f766572666c6f77000000000000000000000000000000000000604482015290519081900360640190fd5b818301845110156128b0576040805162461bcd60e51b815260206004820152601160248201527f736c6963655f6f75744f66426f756e6473000000000000000000000000000000604482015290519081900360640190fd5b6060821580156128cf57604051915060008252602082016040526121e7565b6040519150601f8416801560200281840101858101878315602002848b0101015b818310156129085780518352602092830192016128f0565b5050858452601f01601f1916604052505090509392505050565b604080518082019091526000808252602082015290565b8035610aeb8161321c565b600082601f830112612954578081fd5b813567ffffffffffffffff81111561296857fe5b61297b601f8201601f19166020016130cb565b81815284602083860101111561298f578283fd5b816020850160208301379081016020019190915292915050565b8035610aeb81613231565b803562ffffff81168114610aeb57600080fd5b6000602082840312156129d8578081fd5b81356129e38161321c565b9392505050565b6000602082840312156129fb578081fd5b81516129e38161321c565b600080600060608486031215612a1a578182fd5b8335612a258161321c565b92506020840135612a358161321c565b929592945050506040919091013590565b60008060408385031215612a58578182fd5b8235612a638161321c565b946020939093013593505050565b60008060208385031215612a83578182fd5b823567ffffffffffffffff80821115612a9a578384fd5b818501915085601f830112612aad578384fd5b813581811115612abb578485fd5b8660208083028501011115612ace578485fd5b60209290920196919550909350505050565b600060208284031215612af1578081fd5b815180151581146129e3578182fd5b600060208284031215612b11578081fd5b81356129e381613231565b600060208284031215612b2d578081fd5b6129e3826129b4565b600060208284031215612b47578081fd5b5035919050565b600060208284031215612b5f578081fd5b5051919050565b60008151608084528051806080860152612b878160a08701602085016131f0565b6020848101516001600160a01b03169086015260408085015190860152606093840151938501939093525050601f01601f19160160a00190565b6001600160a01b0380825116835280602083015116602084015262ffffff60408301511660408401528060608301511660608401526080820151608084015260a082015160a08401528060c08301511660c0840152505050565b60008251612c2d8184602087016131f0565b9190910192915050565b6001600160a01b0391909116815260200190565b6001600160a01b0392831681529116602082015260400190565b6001600160a01b039384168152919092166020820152604081019190915260600190565b6001600160a01b0394851681529290931660208301526040820152606081019190915260800190565b6001600160a01b03929092168252602082015260400190565b602080825282518282018190526000919060409081850190868401855b82811015612d1657815180516001600160a01b03168552860151868501529284019290850190600101612ce8565b5091979650505050505050565b60208082526019908201527f737761703a20696e76616c696420696e707574416d6f756e7400000000000000604082015260600190565b60208082526037908201527f75706461746553776170496e666f3a20496e76616c696420696e766573746f7260408201527f20746f6b656e20776974686472617720617474656d7074000000000000000000606082015260800190565b6020808252601d908201527f58585846756e6420696e697469616c697a653a20464f5242494444454e000000604082015260600190565b60208082526014908201527f737761703a20696e76616c69642073656e646572000000000000000000000000604082015260600190565b60208082526027908201527f58585846756e6420696e697469616c697a653a206e6f742077686974656c697360408201527f7420746f6b656e00000000000000000000000000000000000000000000000000606082015260800190565b60208082526027908201527f77697468647261773a20496e76616c696420776974686472617720746f6b656e60408201527f20616d6f756e7400000000000000000000000000000000000000000000000000606082015260800190565b60208082526019908201527f737761703a206e6f742077686974656c69737420746f6b656e00000000000000604082015260600190565b6020808252601e908201527f77697468647261773a20696e76616c696420746f6b656e20616d6f756e740000604082015260600190565b6020808252600f908201527f58585846756e643a204c4f434b45440000000000000000000000000000000000604082015260600190565b60208082526022908201527f75706461746553776170496e666f3a20696e76616c69642073776170526f757460408201527f6572000000000000000000000000000000000000000000000000000000000000606082015260800190565b602080825260409082018190527f6465637265617365546f6b656e416d6f756e743a20646563726561736520746f908201527f6b656e20616d6f756e74206973206d6f7265207468616e20796f752068617665606082015260800190565b6000602082526129e36020830184612b66565b60e081016122a08284612bc1565b90815260200190565b6000808335601e1984360301811261307f578283fd5b83018035915067ffffffffffffffff821115613099578283fd5b6020019150368190038213156130ae57600080fd5b9250929050565b6000823561019e19833603018112612c2d578182fd5b60405181810167ffffffffffffffff811182821017156130e757fe5b604052919050565b60006101a0808336031215613102578182fd5b61310b816130cb565b9050613116836129a9565b8152613124602084016129a9565b602082015261313560408401612939565b604082015261314660608401612939565b606082015261315760808401612939565b608082015261316860a08401612939565b60a082015261317960c084016129b4565b60c082015260e083810135908201526101008084013590820152610120808401359082015261014080840135908201526101606131b7818501612939565b908201526101808381013567ffffffffffffffff8111156131d6578384fd5b6131e236828701612944565b918301919091525092915050565b60005b8381101561320b5781810151838201526020016131f3565b838111156121355750506000910152565b6001600160a01b038116811461108257600080fd5b6002811061108257600080fdfea26469706673582212203fcf7cf7095b87456626dd5aa06bca3b38d75cf65342f1a15564a89fad9dc88164736f6c63430007060033",
  "linkReferences": {},
  "deployedLinkReferences": {}
}