{
  "_format": "hh-sol-artifact-1",
  "contractName": "XXXFund2",
  "sourceName": "contracts/XXXFund2.sol",
  "abi": [
    {
      "inputs": [],
      "stateMutability": "nonpayable",
      "type": "constructor"
    },
    {
      "anonymous": false,
      "inputs": [
        {
          "indexed": false,
          "internalType": "address",
          "name": "fund",
          "type": "address"
        },
        {
          "indexed": false,
          "internalType": "address",
          "name": "manager",
          "type": "address"
        }
      ],
      "name": "Create",
      "type": "event"
    },
    {
      "anonymous": false,
      "inputs": [
        {
          "indexed": true,
          "internalType": "address",
          "name": "investor",
          "type": "address"
        },
        {
          "indexed": false,
          "internalType": "address",
          "name": "_token",
          "type": "address"
        },
        {
          "indexed": false,
          "internalType": "uint256",
          "name": "_amount",
          "type": "uint256"
        }
      ],
      "name": "Deposit",
      "type": "event"
    },
    {
      "anonymous": false,
      "inputs": [
        {
          "indexed": true,
          "internalType": "address",
          "name": "manager",
          "type": "address"
        },
        {
          "indexed": false,
          "internalType": "address",
          "name": "tokenIn",
          "type": "address"
        },
        {
          "indexed": false,
          "internalType": "address",
          "name": "tokenOut",
          "type": "address"
        },
        {
          "indexed": false,
          "internalType": "uint256",
          "name": "amountIn",
          "type": "uint256"
        },
        {
          "indexed": false,
          "internalType": "uint256",
          "name": "amountOut",
          "type": "uint256"
        }
      ],
      "name": "Swap",
      "type": "event"
    },
    {
      "anonymous": false,
      "inputs": [
        {
          "indexed": true,
          "internalType": "address",
          "name": "investor",
          "type": "address"
        },
        {
          "indexed": false,
          "internalType": "address",
          "name": "_token",
          "type": "address"
        },
        {
          "indexed": false,
          "internalType": "uint256",
          "name": "_amount",
          "type": "uint256"
        }
      ],
      "name": "Withdraw",
      "type": "event"
    },
    {
      "inputs": [
        {
          "internalType": "address",
          "name": "investor",
          "type": "address"
        },
        {
          "internalType": "address",
          "name": "_token",
          "type": "address"
        },
        {
          "internalType": "uint256",
          "name": "_amount",
          "type": "uint256"
        }
      ],
      "name": "deposit",
      "outputs": [],
      "stateMutability": "payable",
      "type": "function"
    },
    {
      "inputs": [],
      "name": "factory",
      "outputs": [
        {
          "internalType": "address",
          "name": "",
          "type": "address"
        }
      ],
      "stateMutability": "view",
      "type": "function"
    },
    {
      "inputs": [
        {
          "internalType": "address",
          "name": "investor",
          "type": "address"
        }
      ],
      "name": "getInvestorTokens",
      "outputs": [
        {
          "components": [
            {
              "internalType": "address",
              "name": "tokenAddress",
              "type": "address"
            },
            {
              "internalType": "uint256",
              "name": "amount",
              "type": "uint256"
            }
          ],
          "internalType": "struct IXXXFund2.Token[]",
          "name": "",
          "type": "tuple[]"
        }
      ],
      "stateMutability": "view",
      "type": "function"
    },
    {
      "inputs": [
        {
          "internalType": "address",
          "name": "_manager",
          "type": "address"
        }
      ],
      "name": "initialize",
      "outputs": [],
      "stateMutability": "nonpayable",
      "type": "function"
    },
    {
      "inputs": [
        {
          "internalType": "address",
          "name": "",
          "type": "address"
        }
      ],
      "name": "investorTokenCount",
      "outputs": [
        {
          "internalType": "uint256",
          "name": "",
          "type": "uint256"
        }
      ],
      "stateMutability": "view",
      "type": "function"
    },
    {
      "inputs": [
        {
          "internalType": "address",
          "name": "",
          "type": "address"
        },
        {
          "internalType": "uint256",
          "name": "",
          "type": "uint256"
        }
      ],
      "name": "investorTokens",
      "outputs": [
        {
          "internalType": "address",
          "name": "tokenAddress",
          "type": "address"
        },
        {
          "internalType": "uint256",
          "name": "amount",
          "type": "uint256"
        }
      ],
      "stateMutability": "view",
      "type": "function"
    },
    {
      "inputs": [],
      "name": "manager",
      "outputs": [
        {
          "internalType": "address",
          "name": "",
          "type": "address"
        }
      ],
      "stateMutability": "view",
      "type": "function"
    },
    {
      "inputs": [],
      "name": "rewardTokenCount",
      "outputs": [
        {
          "internalType": "uint256",
          "name": "",
          "type": "uint256"
        }
      ],
      "stateMutability": "view",
      "type": "function"
    },
    {
      "inputs": [
        {
          "internalType": "uint256",
          "name": "",
          "type": "uint256"
        }
      ],
      "name": "rewardTokens",
      "outputs": [
        {
          "internalType": "address",
          "name": "tokenAddress",
          "type": "address"
        },
        {
          "internalType": "uint256",
          "name": "amount",
          "type": "uint256"
        }
      ],
      "stateMutability": "view",
      "type": "function"
    },
    {
      "inputs": [
        {
          "components": [
            {
              "internalType": "enum IXXXFund2.V3TradeType",
              "name": "tradeType",
              "type": "uint8"
            },
            {
              "internalType": "enum IXXXFund2.V3SwapType",
              "name": "swapType",
              "type": "uint8"
            },
            {
              "internalType": "address",
              "name": "investor",
              "type": "address"
            },
            {
              "internalType": "address",
              "name": "tokenIn",
              "type": "address"
            },
            {
              "internalType": "address",
              "name": "tokenOut",
              "type": "address"
            },
            {
              "internalType": "address",
              "name": "recipient",
              "type": "address"
            },
            {
              "internalType": "uint24",
              "name": "fee",
              "type": "uint24"
            },
            {
              "internalType": "uint256",
              "name": "amountIn",
              "type": "uint256"
            },
            {
              "internalType": "uint256",
              "name": "amountOut",
              "type": "uint256"
            },
            {
              "internalType": "uint256",
              "name": "amountInMaximum",
              "type": "uint256"
            },
            {
              "internalType": "uint256",
              "name": "amountOutMinimum",
              "type": "uint256"
            },
            {
              "internalType": "uint160",
              "name": "sqrtPriceLimitX96",
              "type": "uint160"
            },
            {
              "internalType": "bytes",
              "name": "path",
              "type": "bytes"
            }
          ],
          "internalType": "struct IXXXFund2.V3TradeParams[]",
          "name": "trades",
          "type": "tuple[]"
        }
      ],
      "name": "swap",
      "outputs": [
        {
          "internalType": "uint256",
          "name": "",
          "type": "uint256"
        }
      ],
      "stateMutability": "payable",
      "type": "function"
    },
    {
      "inputs": [
        {
          "internalType": "address",
          "name": "investor",
          "type": "address"
        },
        {
          "internalType": "address",
          "name": "_token",
          "type": "address"
        },
        {
          "internalType": "uint256",
          "name": "_amount",
          "type": "uint256"
        }
      ],
      "name": "withdraw",
      "outputs": [],
      "stateMutability": "payable",
      "type": "function"
    }
  ],
  "bytecode": "0x60806040526000600555600160065534801561001a57600080fd5b50600080546001600160a01b03191633179055612c5a8061003c6000396000f3fe6080604052600436106100bc5760003560e01c80638340f54911610074578063c45a01551161004e578063c45a0155146101d1578063c4d66de8146101e6578063d9caed1214610206576100bc565b80638340f54914610187578063abb06b951461019c578063bc40f3bf146101b1576100bc565b806350ac1dd9116100a557806350ac1dd914610119578063696c56391461012c5780637bb7bed114610159576100bc565b806318324c11146100c1578063481c6a75146100f7575b600080fd5b3480156100cd57600080fd5b506100e16100dc3660046124c9565b610219565b6040516100ee9190612b6b565b60405180910390f35b34801561010357600080fd5b5061010c61022b565b6040516100ee9190612742565b6100e1610127366004612573565b61023a565b34801561013857600080fd5b5061014c6101473660046124c9565b6116fa565b6040516100ee91906127d6565b34801561016557600080fd5b50610179610174366004612641565b6117df565b6040516100ee9291906127bd565b61019a610195366004612508565b611804565b005b3480156101a857600080fd5b506100e1611ae4565b3480156101bd57600080fd5b506101796101cc366004612548565b611aea565b3480156101dd57600080fd5b5061010c611b1a565b3480156101f257600080fd5b5061019a6102013660046124c9565b611b29565b61019a610214366004612508565b611bbf565b60036020526000908152604090205481565b6001546001600160a01b031681565b60006006546001146102675760405162461bcd60e51b815260040161025e90612a58565b60405180910390fd5b600060065560408051808201909152601481527f73776170282920706172616d65746572203d3e2000000000000000000000000060208201526102a990611ccb565b61031f6040518060400160405280601081526020017f20202020747261646554797065203a2000000000000000000000000000000000815250848460008181106102ef57fe5b90506020028101906103019190612bc0565b61030f906020810190612602565b600181111561031a57fe5b611d8d565b6103886040518060400160405280600f81526020017f202020207377617054797065203a2000000000000000000000000000000000008152508484600081811061036557fe5b90506020028101906103779190612bc0565b61030f906040810190602001612602565b6103f66040518060400160405280600f81526020017f20202020696e766573746f72203a200000000000000000000000000000000000815250848460008181106103ce57fe5b90506020028101906103e09190612bc0565b6103f19060608101906040016124c9565b611e58565b61045f6040518060400160405280600e81526020017f20202020746f6b656e496e203a200000000000000000000000000000000000008152508484600081811061043c57fe5b905060200281019061044e9190612bc0565b6103f19060808101906060016124c9565b6104c86040518060400160405280600f81526020017f20202020746f6b656e4f7574203a200000000000000000000000000000000000815250848460008181106104a557fe5b90506020028101906104b79190612bc0565b6103f19060a08101906080016124c9565b6105316040518060400160405280601081526020017f20202020726563697069656e74203a20000000000000000000000000000000008152508484600081811061050e57fe5b90506020028101906105209190612bc0565b6103f19060c081019060a0016124c9565b6105a46040518060400160405280600a81526020017f20202020666565203a20000000000000000000000000000000000000000000008152508484600081811061057757fe5b90506020028101906105899190612bc0565b61059a9060e081019060c00161261e565b62ffffff16611d8d565b6106056040518060400160405280600f81526020017f20202020616d6f756e74496e203a200000000000000000000000000000000000815250848460008181106105ea57fe5b90506020028101906105fc9190612bc0565b60e00135611d8d565b6106676040518060400160405280601081526020017f20202020616d6f756e744f7574203a20000000000000000000000000000000008152508484600081811061064b57fe5b905060200281019061065d9190612bc0565b6101000135611d8d565b6106c96040518060400160405280601681526020017f20202020616d6f756e74496e4d6178696d756d203a2000000000000000000000815250848460008181106106ad57fe5b90506020028101906106bf9190612bc0565b6101400135611d8d565b61070f6040518060400160405280601781526020017f20202020616d6f756e744f75744d696e696d756d203a20000000000000000000815250848460008181106106ad57fe5b6107886040518060400160405280601881526020017f202020207371727450726963654c696d6974583936203a2000000000000000008152508484600081811061075557fe5b90506020028101906107679190612bc0565b61077a90610180810190610160016124c9565b6001600160a01b0316611d8d565b6107c66040518060400160405280600b81526020017f2020202070617468203a20000000000000000000000000000000000000000000815250611ccb565b610831838360008181106107d657fe5b90506020028101906107e89190612bc0565b6107f790610180810190612b74565b8080601f016020809104026020016040519081016040528093929190818152602001838380828437600092019190915250611f2892505050565b60008383600081811061084057fe5b90506020028101906108529190612bc0565b6108639060608101906040016124c9565b6001549091506001600160a01b031633146108905760405162461bcd60e51b815260040161025e906128f9565b600080546001600160a01b03169063e3d8b3f69086908690816108af57fe5b90506020028101906108c19190612bc0565b6108d29060a08101906080016124c9565b6040518263ffffffff1660e01b81526004016108ee9190612742565b60206040518083038186803b15801561090657600080fd5b505afa15801561091a573d6000803e3d6000fd5b505050506040513d601f19601f8201168201806040525081019061093e91906125e2565b61095a5760405162461bcd60e51b815260040161025e906129ea565b60008060009054906101000a90046001600160a01b03166001600160a01b031663f5c8ba936040518163ffffffff1660e01b815260040160206040518083038186803b1580156109a957600080fd5b505afa1580156109bd573d6000803e3d6000fd5b505050506040513d601f19601f820116820180604052508101906109e191906124ec565b90506000610a1e83878760008181106109f657fe5b9050602002810190610a089190612bc0565b610a199060808101906060016124c9565b611fe7565b90506000805b86811015610a5b57878782818110610a3857fe5b9050602002810190610a4a9190612bc0565b60e001359190910190600101610a24565b5080821015610a7c5760405162461bcd60e51b815260040161025e9061282e565b60008060005b888110156116e45760008a8a83818110610a9857fe5b9050602002810190610aaa9190612bc0565b610abb906040810190602001612602565b6001811115610ac657fe5b14156110a35760008a8a83818110610ada57fe5b9050602002810190610aec9190612bc0565b610afa906020810190612602565b6001811115610b0557fe5b1415610dc857898982818110610b1757fe5b9050602002810190610b299190612bc0565b610b3a9060808101906060016124c9565b6001600160a01b031663095ea7b360e01b878c8c85818110610b5857fe5b9050602002810190610b6a9190612bc0565b60e00135604051602401610b7f9291906127bd565b60408051601f198184030181529181526020820180516001600160e01b03166001600160e01b0319909416939093179092529051610bbd9190612726565b6000604051808303816000865af19150503d8060008114610bfa576040519150601f19603f3d011682016040523d82523d6000602084013e610bff565b606091505b50505060006040518060e001604052808c8c85818110610c1b57fe5b9050602002810190610c2d9190612bc0565b610c3e9060808101906060016124c9565b6001600160a01b031681526020018c8c85818110610c5857fe5b9050602002810190610c6a9190612bc0565b610c7b9060a08101906080016124c9565b6001600160a01b031681526020018c8c85818110610c9557fe5b9050602002810190610ca79190612bc0565b610cb89060e081019060c00161261e565b62ffffff1681523060208201526040018c8c85818110610cd457fe5b9050602002810190610ce69190612bc0565b60e0013581526020018c8c85818110610cfb57fe5b9050602002810190610d0d9190612bc0565b61014001358152600060209091015290508a8a83818110610d2a57fe5b9050602002810190610d3c9190612bc0565b60e001359350866001600160a01b03166304e45aaf826040518263ffffffff1660e01b8152600401610d6e9190612b5d565b602060405180830381600087803b158015610d8857600080fd5b505af1158015610d9c573d6000803e3d6000fd5b505050506040513d601f19601f82011682018060405250810190610dc09190612659565b92505061109e565b898982818110610dd457fe5b9050602002810190610de69190612bc0565b610df79060808101906060016124c9565b6001600160a01b031663095ea7b360e01b878c8c85818110610e1557fe5b9050602002810190610e279190612bc0565b6101200135604051602401610e3d9291906127bd565b60408051601f198184030181529181526020820180516001600160e01b03166001600160e01b0319909416939093179092529051610e7b9190612726565b6000604051808303816000865af19150503d8060008114610eb8576040519150601f19603f3d011682016040523d82523d6000602084013e610ebd565b606091505b50505060006040518060e001604052808c8c85818110610ed957fe5b9050602002810190610eeb9190612bc0565b610efc9060808101906060016124c9565b6001600160a01b031681526020018c8c85818110610f1657fe5b9050602002810190610f289190612bc0565b610f399060a08101906080016124c9565b6001600160a01b031681526020018c8c85818110610f5357fe5b9050602002810190610f659190612bc0565b610f769060e081019060c00161261e565b62ffffff1681523060208201526040018c8c85818110610f9257fe5b9050602002810190610fa49190612bc0565b610100013581526020018c8c85818110610fba57fe5b9050602002810190610fcc9190612bc0565b6101200135815260006020909101526040517f5023b4df0000000000000000000000000000000000000000000000000000000081529091506001600160a01b03881690635023b4df90611023908490600401612b5d565b602060405180830381600087803b15801561103d57600080fd5b505af1158015611051573d6000803e3d6000fd5b505050506040513d601f19601f820116820180604052508101906110759190612659565b93508a8a8381811061108357fe5b90506020028101906110959190612bc0565b61010001359250505b6115cc565b60008a8a838181106110b157fe5b90506020028101906110c39190612bc0565b6110d1906020810190612602565b60018111156110dc57fe5b141561134b578989828181106110ee57fe5b90506020028101906111009190612bc0565b6111119060808101906060016124c9565b6001600160a01b031663095ea7b360e01b878c8c8581811061112f57fe5b90506020028101906111419190612bc0565b60e001356040516024016111569291906127bd565b60408051601f198184030181529181526020820180516001600160e01b03166001600160e01b03199094169390931790925290516111949190612726565b6000604051808303816000865af19150503d80600081146111d1576040519150601f19603f3d011682016040523d82523d6000602084013e6111d6565b606091505b505050600060405180608001604052808c8c858181106111f257fe5b90506020028101906112049190612bc0565b61121390610180810190612b74565b8080601f0160208091040260200160405190810160405280939291908181526020018383808284376000920191909152505050908252503060208201526040018c8c8581811061125f57fe5b90506020028101906112719190612bc0565b60e0013581526020018c8c8581811061128657fe5b90506020028101906112989190612bc0565b6101000135905290508a8a838181106112ad57fe5b90506020028101906112bf9190612bc0565b60e001359350866001600160a01b031663b858183f826040518263ffffffff1660e01b81526004016112f19190612b4a565b602060405180830381600087803b15801561130b57600080fd5b505af115801561131f573d6000803e3d6000fd5b505050506040513d601f19601f820116820180604052508101906113439190612659565b9250506115cc565b89898281811061135757fe5b90506020028101906113699190612bc0565b61137a9060808101906060016124c9565b6001600160a01b031663095ea7b360e01b878c8c8581811061139857fe5b90506020028101906113aa9190612bc0565b61012001356040516024016113c09291906127bd565b60408051601f198184030181529181526020820180516001600160e01b03166001600160e01b03199094169390931790925290516113fe9190612726565b6000604051808303816000865af19150503d806000811461143b576040519150601f19603f3d011682016040523d82523d6000602084013e611440565b606091505b505050600060405180608001604052808c8c8581811061145c57fe5b905060200281019061146e9190612bc0565b61147d90610180810190612b74565b8080601f0160208091040260200160405190810160405280939291908181526020018383808284376000920191909152505050908252503060208201526040018c8c858181106114c957fe5b90506020028101906114db9190612bc0565b610100013581526020018c8c858181106114f157fe5b90506020028101906115039190612bc0565b60e0013590526040517f09b813460000000000000000000000000000000000000000000000000000000081529091506001600160a01b038816906309b8134690611551908490600401612b4a565b602060405180830381600087803b15801561156b57600080fd5b505af115801561157f573d6000803e3d6000fd5b505050506040513d601f19601f820116820180604052508101906115a39190612659565b93508a8a838181106115b157fe5b90506020028101906115c39190612bc0565b61010001359250505b611637878b8b60008181106115dd57fe5b90506020028101906115ef9190612bc0565b6116009060808101906060016124c9565b8c8c600081811061160d57fe5b905060200281019061161f9190612bc0565b6116309060a08101906080016124c9565b868661207c565b866001600160a01b03167fcd3829a3813dc3cdd188fd3d01dcf3268c16be2fdd2dd21d0665418816e460628b8b600081811061166f57fe5b90506020028101906116819190612bc0565b6116929060808101906060016124c9565b8c8c600081811061169f57fe5b90506020028101906116b19190612bc0565b6116c29060a08101906080016124c9565b86866040516116d49493929190612794565b60405180910390a2600101610a82565b5060019650505050505050600160065592915050565b6001600160a01b0381166000908152600360205260408120546060918167ffffffffffffffff8111801561172d57600080fd5b5060405190808252806020026020018201604052801561176757816020015b6117546124b2565b81526020019060019003908161174c5790505b50905060005b828110156117d7576001600160a01b0380861660009081526002602090815260408083208584528252918290208251808401909352805490931682526001909201549181019190915282518390839081106117c457fe5b602090810291909101015260010161176d565b509392505050565b600460205260009081526040902080546001909101546001600160a01b039091169082565b6006546001146118265760405162461bcd60e51b815260040161025e90612a58565b6000600655336001600160a01b0384161461184057600080fd5b6000546040517fe3d8b3f60000000000000000000000000000000000000000000000000000000081526001600160a01b039091169063e3d8b3f690611889908590600401612742565b60206040518083038186803b1580156118a157600080fd5b505afa1580156118b5573d6000803e3d6000fd5b505050506040513d601f19601f820116820180604052508101906118d991906125e2565b6118f55760405162461bcd60e51b815260040161025e90612930565b6040517f23b872dd0000000000000000000000000000000000000000000000000000000081526001600160a01b038316906323b872dd9061193e90869030908690600401612770565b602060405180830381600087803b15801561195857600080fd5b505af115801561196c573d6000803e3d6000fd5b505050506040513d601f19601f8201168201806040525081019061199091906125e2565b5061199c8383836121f2565b6119da6040518060400160405280600d81526020017f6465706f7369742829203d3e2000000000000000000000000000000000000000815250611ccb565b611a196040518060400160405280600f81526020017f20202020696e766573746f72203a20000000000000000000000000000000000081525084611e58565b611a586040518060400160405280600d81526020017f202020205f746f6b656e203a200000000000000000000000000000000000000081525083611e58565b611a976040518060400160405280600e81526020017f202020205f616d6f756e74203a2000000000000000000000000000000000000081525082611d8d565b826001600160a01b03167f5548c837ab068cf56a2c2479df0882a4922fd203edb7517321831d95078c5f628383604051611ad29291906127bd565b60405180910390a25050600160065550565b60055481565b6002602090815260009283526040808420909152908252902080546001909101546001600160a01b039091169082565b6000546001600160a01b031681565b6000546001600160a01b03163314611b535760405162461bcd60e51b815260040161025e906128c2565b6001805473ffffffffffffffffffffffffffffffffffffffff19166001600160a01b0383811691909117918290556040517f96b5b9b8a7193304150caccf9b80d150675fa3d6af57761d8d8ef1d6f9a1a90992611bb4923092911690612756565b60405180910390a150565b600654600114611be15760405162461bcd60e51b815260040161025e90612a58565b6000600655336001600160a01b03841614611bfb57600080fd5b611c06838383612272565b1515600114611c275760405162461bcd60e51b815260040161025e90612a21565b6040517fa9059cbb0000000000000000000000000000000000000000000000000000000081526001600160a01b0383169063a9059cbb90611c6e90869085906004016127bd565b602060405180830381600087803b158015611c8857600080fd5b505af1158015611c9c573d6000803e3d6000fd5b505050506040513d601f19601f82011682018060405250810190611cc091906125e2565b505060016006555050565b611d8a816040516024018080602001828103825283818151815260200191508051906020019080838360005b83811015611d0f578181015183820152602001611cf7565b50505050905090810190601f168015611d3c5780820380516001836020036101000a031916815260200191505b5060408051601f198184030181529190526020810180516001600160e01b03167f41304fac000000000000000000000000000000000000000000000000000000001790529250612327915050565b50565b611e5482826040516024018080602001838152602001828103825284818151815260200191508051906020019080838360005b83811015611dd8578181015183820152602001611dc0565b50505050905090810190601f168015611e055780820380516001836020036101000a031916815260200191505b5060408051601f198184030181529190526020810180516001600160e01b03167f9710a9d000000000000000000000000000000000000000000000000000000000179052935061232792505050565b5050565b611e5482826040516024018080602001836001600160a01b03168152602001828103825284818151815260200191508051906020019080838360005b83811015611eac578181015183820152602001611e94565b50505050905090810190601f168015611ed95780820380516001836020036101000a031916815260200191505b5060408051601f198184030181529190526020810180516001600160e01b03167f319af33300000000000000000000000000000000000000000000000000000000179052935061232792505050565b611d8a816040516024018080602001828103825283818151815260200191508051906020019080838360005b83811015611f6c578181015183820152602001611f54565b50505050905090810190601f168015611f995780820380516001836020036101000a031916815260200191505b5060408051601f198184030181529190526020810180516001600160e01b03167f0be77f56000000000000000000000000000000000000000000000000000000001790529250612327915050565b6000805b6001600160a01b038416600090815260036020526040902054811015612070576001600160a01b03848116600090815260026020908152604080832085845290915290205481169084161415612068576001600160a01b038416600090815260026020908152604080832093835292905220600101549050612076565b600101611feb565b50600090505b92915050565b6000546040517f3fefc25d0000000000000000000000000000000000000000000000000000000081526001600160a01b0390911690633fefc25d906120c5903390600401612742565b60206040518083038186803b1580156120dd57600080fd5b505afa1580156120f1573d6000803e3d6000fd5b505050506040513d601f19601f8201168201806040525081019061211591906124ec565b6001600160a01b0316306001600160a01b0316146121455760405162461bcd60e51b815260040161025e90612a8f565b6000612152868685612348565b905080156121725760405162461bcd60e51b815260040161025e90612865565b61217d868584612421565b905080156121ea576001600160a01b0386811660008181526003602081815260408084208054600284528286209086528352908420805473ffffffffffffffffffffffffffffffffffffffff1916968b169690961786556001958601889055939092529052805490910190555b505050505050565b60006121ff848484612421565b9050801561226c576001600160a01b0384811660008181526003602081815260408084208054600284528286209086528352908420805473ffffffffffffffffffffffffffffffffffffffff1916968a169690961786556001958601889055939092529052805490910190555b50505050565b600080805b6001600160a01b03861660009081526003602052604090205481101561231e576001600160a01b03868116600090815260026020908152604080832085845290915290205481169086161415612316576001600160a01b038616600090815260026020908152604080832084845290915290206001015484111561230d5760405162461bcd60e51b815260040161025e9061298d565b6001915061231e565b600101612277565b50949350505050565b80516a636f6e736f6c652e6c6f67602083016000808483855afa5050505050565b60006001815b6001600160a01b03861660009081526003602052604090205481101561231e576001600160a01b03868116600090815260026020908152604080832085845290915290205481169086161415612419576001600160a01b03861660009081526002602090815260408083208484529091528120600101549092508411156123e75760405162461bcd60e51b815260040161025e90612aec565b6001600160a01b038616600090815260026020908152604080832084845290915290206001018054859003905561231e565b60010161234e565b60006001815b6001600160a01b03861660009081526003602052604090205481101561231e576001600160a01b038681166000908152600260209081526040808320858452909152902054811690861614156124aa576001600160a01b03861660009081526002602090815260408083208484529091528120600101805486019055915061231e565b600101612427565b604080518082019091526000808252602082015290565b6000602082840312156124da578081fd5b81356124e581612c02565b9392505050565b6000602082840312156124fd578081fd5b81516124e581612c02565b60008060006060848603121561251c578182fd5b833561252781612c02565b9250602084013561253781612c02565b929592945050506040919091013590565b6000806040838503121561255a578182fd5b823561256581612c02565b946020939093013593505050565b60008060208385031215612585578182fd5b823567ffffffffffffffff8082111561259c578384fd5b818501915085601f8301126125af578384fd5b8135818111156125bd578485fd5b86602080830285010111156125d0578485fd5b60209290920196919550909350505050565b6000602082840312156125f3578081fd5b815180151581146124e5578182fd5b600060208284031215612613578081fd5b81356124e581612c17565b60006020828403121561262f578081fd5b813562ffffff811681146124e5578182fd5b600060208284031215612652578081fd5b5035919050565b60006020828403121561266a578081fd5b5051919050565b600081516080845280518060808601526126928160a0870160208501612bd6565b6020848101516001600160a01b03169086015260408085015190860152606093840151938501939093525050601f01601f19160160a00190565b6001600160a01b0380825116835280602083015116602084015262ffffff60408301511660408401528060608301511660608401526080820151608084015260a082015160a08401528060c08301511660c0840152505050565b60008251612738818460208701612bd6565b9190910192915050565b6001600160a01b0391909116815260200190565b6001600160a01b0392831681529116602082015260400190565b6001600160a01b039384168152919092166020820152604081019190915260600190565b6001600160a01b0394851681529290931660208301526040820152606081019190915260800190565b6001600160a01b03929092168252602082015260400190565b602080825282518282018190526000919060409081850190868401855b8281101561282157815180516001600160a01b031685528601518685015292840192908501906001016127f3565b5091979650505050505050565b60208082526019908201527f737761703a20696e76616c696420696e707574416d6f756e7400000000000000604082015260600190565b60208082526037908201527f75706461746553776170496e666f3a20496e76616c696420696e766573746f7260408201527f20746f6b656e20776974686472617720617474656d7074000000000000000000606082015260800190565b6020808252601d908201527f58585846756e6420696e697469616c697a653a20464f5242494444454e000000604082015260600190565b60208082526014908201527f737761703a20696e76616c69642073656e646572000000000000000000000000604082015260600190565b60208082526027908201527f58585846756e6420696e697469616c697a653a206e6f742077686974656c697360408201527f7420746f6b656e00000000000000000000000000000000000000000000000000606082015260800190565b60208082526027908201527f77697468647261773a20496e76616c696420776974686472617720746f6b656e60408201527f20616d6f756e7400000000000000000000000000000000000000000000000000606082015260800190565b60208082526019908201527f737761703a206e6f742077686974656c69737420746f6b656e00000000000000604082015260600190565b6020808252601e908201527f77697468647261773a20696e76616c696420746f6b656e20616d6f756e740000604082015260600190565b6020808252600f908201527f58585846756e643a204c4f434b45440000000000000000000000000000000000604082015260600190565b60208082526022908201527f75706461746553776170496e666f3a20696e76616c69642073776170526f757460408201527f6572000000000000000000000000000000000000000000000000000000000000606082015260800190565b602080825260409082018190527f6465637265617365546f6b656e416d6f756e743a20646563726561736520746f908201527f6b656e20616d6f756e74206973206d6f7265207468616e20796f752068617665606082015260800190565b6000602082526124e56020830184612671565b60e0810161207682846126cc565b90815260200190565b6000808335601e19843603018112612b8a578283fd5b83018035915067ffffffffffffffff821115612ba4578283fd5b602001915036819003821315612bb957600080fd5b9250929050565b6000823561019e19833603018112612738578182fd5b60005b83811015612bf1578181015183820152602001612bd9565b8381111561226c5750506000910152565b6001600160a01b0381168114611d8a57600080fd5b60028110611d8a57600080fdfea2646970667358221220467d6af53a5d1d8f5d4f53eabec9740d224d5a6317fee023f08c66db67a6d08464736f6c63430007060033",
  "linkReferences": {},
  "deployedLinkReferences": {}
}