{
  "_format": "hh-sol-artifact-1",
  "contractName": "XXXFund",
  "sourceName": "contracts/XXXFund.sol",
  "abi": [
    {
      "inputs": [],
      "stateMutability": "nonpayable",
      "type": "constructor"
    },
    {
      "anonymous": false,
      "inputs": [
        {
          "indexed": true,
          "internalType": "address",
          "name": "sender",
          "type": "address"
        },
        {
          "indexed": false,
          "internalType": "address",
          "name": "_token",
          "type": "address"
        },
        {
          "indexed": false,
          "internalType": "uint256",
          "name": "_amount",
          "type": "uint256"
        }
      ],
      "name": "Deposit",
      "type": "event"
    },
    {
      "anonymous": false,
      "inputs": [
        {
          "indexed": true,
          "internalType": "address",
          "name": "sender",
          "type": "address"
        },
        {
          "indexed": false,
          "internalType": "uint256",
          "name": "amount0In",
          "type": "uint256"
        },
        {
          "indexed": false,
          "internalType": "uint256",
          "name": "amount1In",
          "type": "uint256"
        },
        {
          "indexed": false,
          "internalType": "uint256",
          "name": "amount0Out",
          "type": "uint256"
        },
        {
          "indexed": false,
          "internalType": "uint256",
          "name": "amount1Out",
          "type": "uint256"
        },
        {
          "indexed": true,
          "internalType": "address",
          "name": "to",
          "type": "address"
        }
      ],
      "name": "Swap",
      "type": "event"
    },
    {
      "anonymous": false,
      "inputs": [
        {
          "indexed": true,
          "internalType": "address",
          "name": "sender",
          "type": "address"
        },
        {
          "indexed": false,
          "internalType": "address",
          "name": "_token",
          "type": "address"
        },
        {
          "indexed": false,
          "internalType": "uint256",
          "name": "_amount",
          "type": "uint256"
        }
      ],
      "name": "Withdraw",
      "type": "event"
    },
    {
      "inputs": [],
      "name": "addManagerHistory",
      "outputs": [],
      "stateMutability": "nonpayable",
      "type": "function"
    },
    {
      "inputs": [],
      "name": "addReservedTokenHistory",
      "outputs": [],
      "stateMutability": "nonpayable",
      "type": "function"
    },
    {
      "inputs": [
        {
          "internalType": "address",
          "name": "investor",
          "type": "address"
        },
        {
          "internalType": "address",
          "name": "_token",
          "type": "address"
        },
        {
          "internalType": "uint256",
          "name": "_amount",
          "type": "uint256"
        }
      ],
      "name": "deposit",
      "outputs": [],
      "stateMutability": "nonpayable",
      "type": "function"
    },
    {
      "inputs": [],
      "name": "factory",
      "outputs": [
        {
          "internalType": "address",
          "name": "",
          "type": "address"
        }
      ],
      "stateMutability": "view",
      "type": "function"
    },
    {
      "inputs": [],
      "name": "fundTokenCount",
      "outputs": [
        {
          "internalType": "uint256",
          "name": "",
          "type": "uint256"
        }
      ],
      "stateMutability": "view",
      "type": "function"
    },
    {
      "inputs": [
        {
          "internalType": "uint256",
          "name": "",
          "type": "uint256"
        }
      ],
      "name": "fundTokens",
      "outputs": [
        {
          "internalType": "address",
          "name": "tokenAddress",
          "type": "address"
        },
        {
          "internalType": "uint256",
          "name": "amount",
          "type": "uint256"
        }
      ],
      "stateMutability": "view",
      "type": "function"
    },
    {
      "inputs": [],
      "name": "getManagerHistory",
      "outputs": [
        {
          "components": [
            {
              "internalType": "string",
              "name": "date",
              "type": "string"
            },
            {
              "internalType": "uint256",
              "name": "fundPrincipalUSD",
              "type": "uint256"
            },
            {
              "internalType": "uint256",
              "name": "totalValueUSD",
              "type": "uint256"
            },
            {
              "internalType": "uint256",
              "name": "totalValueETH",
              "type": "uint256"
            },
            {
              "internalType": "uint256",
              "name": "profitRate",
              "type": "uint256"
            }
          ],
          "internalType": "struct IXXXFund.ManagerHistory[]",
          "name": "",
          "type": "tuple[]"
        }
      ],
      "stateMutability": "nonpayable",
      "type": "function"
    },
    {
      "inputs": [],
      "name": "getReservedTokenHistory",
      "outputs": [
        {
          "components": [
            {
              "internalType": "string",
              "name": "date",
              "type": "string"
            },
            {
              "internalType": "address",
              "name": "tokenAddress",
              "type": "address"
            },
            {
              "internalType": "uint256",
              "name": "amount",
              "type": "uint256"
            }
          ],
          "internalType": "struct IXXXFund.ReservedTokenHistory[]",
          "name": "",
          "type": "tuple[]"
        }
      ],
      "stateMutability": "nonpayable",
      "type": "function"
    },
    {
      "inputs": [
        {
          "internalType": "address",
          "name": "_manager",
          "type": "address"
        },
        {
          "internalType": "address",
          "name": "_token",
          "type": "address"
        },
        {
          "internalType": "uint256",
          "name": "_amount",
          "type": "uint256"
        }
      ],
      "name": "initialize",
      "outputs": [],
      "stateMutability": "nonpayable",
      "type": "function"
    },
    {
      "inputs": [
        {
          "internalType": "address",
          "name": "",
          "type": "address"
        }
      ],
      "name": "investorPrincipalUSD",
      "outputs": [
        {
          "internalType": "uint256",
          "name": "",
          "type": "uint256"
        }
      ],
      "stateMutability": "view",
      "type": "function"
    },
    {
      "inputs": [
        {
          "internalType": "address",
          "name": "",
          "type": "address"
        }
      ],
      "name": "investorTokenCount",
      "outputs": [
        {
          "internalType": "uint256",
          "name": "",
          "type": "uint256"
        }
      ],
      "stateMutability": "view",
      "type": "function"
    },
    {
      "inputs": [
        {
          "internalType": "address",
          "name": "",
          "type": "address"
        },
        {
          "internalType": "uint256",
          "name": "",
          "type": "uint256"
        }
      ],
      "name": "investorTokens",
      "outputs": [
        {
          "internalType": "address",
          "name": "tokenAddress",
          "type": "address"
        },
        {
          "internalType": "uint256",
          "name": "amount",
          "type": "uint256"
        }
      ],
      "stateMutability": "view",
      "type": "function"
    },
    {
      "inputs": [],
      "name": "manager",
      "outputs": [
        {
          "internalType": "address",
          "name": "",
          "type": "address"
        }
      ],
      "stateMutability": "view",
      "type": "function"
    },
    {
      "inputs": [],
      "name": "rewardTokenCount",
      "outputs": [
        {
          "internalType": "uint256",
          "name": "",
          "type": "uint256"
        }
      ],
      "stateMutability": "view",
      "type": "function"
    },
    {
      "inputs": [
        {
          "internalType": "uint256",
          "name": "",
          "type": "uint256"
        }
      ],
      "name": "rewardTokens",
      "outputs": [
        {
          "internalType": "address",
          "name": "tokenAddress",
          "type": "address"
        },
        {
          "internalType": "uint256",
          "name": "amount",
          "type": "uint256"
        }
      ],
      "stateMutability": "view",
      "type": "function"
    },
    {
      "inputs": [
        {
          "components": [
            {
              "internalType": "address",
              "name": "tokenIn",
              "type": "address"
            },
            {
              "internalType": "address",
              "name": "tokenOut",
              "type": "address"
            },
            {
              "internalType": "uint24",
              "name": "fee",
              "type": "uint24"
            },
            {
              "internalType": "address",
              "name": "recipient",
              "type": "address"
            },
            {
              "internalType": "uint256",
              "name": "deadline",
              "type": "uint256"
            },
            {
              "internalType": "uint256",
              "name": "amountIn",
              "type": "uint256"
            },
            {
              "internalType": "uint256",
              "name": "amountOutMinimum",
              "type": "uint256"
            },
            {
              "internalType": "uint160",
              "name": "sqrtPriceLimitX96",
              "type": "uint160"
            }
          ],
          "internalType": "struct ISwapRouter.ExactInputSingleParams",
          "name": "_params",
          "type": "tuple"
        },
        {
          "internalType": "address",
          "name": "investor",
          "type": "address"
        }
      ],
      "name": "swapExactInputSingle",
      "outputs": [
        {
          "internalType": "uint256",
          "name": "amountOut",
          "type": "uint256"
        }
      ],
      "stateMutability": "nonpayable",
      "type": "function"
    },
    {
      "inputs": [
        {
          "components": [
            {
              "internalType": "address",
              "name": "tokenIn",
              "type": "address"
            },
            {
              "internalType": "address",
              "name": "tokenOut",
              "type": "address"
            },
            {
              "internalType": "uint24",
              "name": "fee",
              "type": "uint24"
            },
            {
              "internalType": "address",
              "name": "recipient",
              "type": "address"
            },
            {
              "internalType": "uint256",
              "name": "deadline",
              "type": "uint256"
            },
            {
              "internalType": "uint256",
              "name": "amountOut",
              "type": "uint256"
            },
            {
              "internalType": "uint256",
              "name": "amountInMaximum",
              "type": "uint256"
            },
            {
              "internalType": "uint160",
              "name": "sqrtPriceLimitX96",
              "type": "uint160"
            }
          ],
          "internalType": "struct ISwapRouter.ExactOutputSingleParams",
          "name": "_params",
          "type": "tuple"
        },
        {
          "internalType": "address",
          "name": "investor",
          "type": "address"
        }
      ],
      "name": "swapExactOutputSingle",
      "outputs": [
        {
          "internalType": "uint256",
          "name": "amountIn",
          "type": "uint256"
        }
      ],
      "stateMutability": "nonpayable",
      "type": "function"
    },
    {
      "inputs": [
        {
          "internalType": "address",
          "name": "investor",
          "type": "address"
        },
        {
          "internalType": "address",
          "name": "_token",
          "type": "address"
        },
        {
          "internalType": "uint256",
          "name": "_amount",
          "type": "uint256"
        }
      ],
      "name": "withdraw",
      "outputs": [],
      "stateMutability": "nonpayable",
      "type": "function"
    }
  ],
  "bytecode": "0x6080604052600060045560006006556000600b556001600c5534801561002457600080fd5b50336000806101000a81548173ffffffffffffffffffffffffffffffffffffffff021916908373ffffffffffffffffffffffffffffffffffffffff160217905550614465806100746000396000f3fe608060405234801561001057600080fd5b50600436106101165760003560e01c806392106f05116100a2578063d9caed1211610071578063d9caed12146102f9578063f03527b014610315578063f32b7b791461031f578063f9fbdc0f14610329578063fff1939c1461035957610116565b806392106f051461026e578063abb06b951461028c578063bc40f3bf146102aa578063c45a0155146102db57610116565b8063481c6a75116100e9578063481c6a75146101b55780637bb7bed1146101d35780638340f549146102045780638f45244a14610220578063914ac1e01461023e57610116565b80630c4c1eba1461011b5780631794bb3c1461014b57806318324c11146101675780632017184014610197575b600080fd5b61013560048036038101906101309190613170565b61038a565b6040516101429190613c8b565b60405180910390f35b610165600480360381019061016091906131c2565b6103a2565b005b610181600480360381019061017c9190613170565b6107a4565b60405161018e9190613c8b565b60405180910390f35b61019f6107bc565b6040516101ac9190613c8b565b60405180910390f35b6101bd6107c2565b6040516101ca9190613994565b60405180910390f35b6101ed60048036038101906101e8919061331b565b6107e8565b6040516101fb9291906139e6565b60405180910390f35b61021e600480360381019061021991906131c2565b61082c565b005b610228610925565b6040516102359190613a0f565b60405180910390f35b610258600480360381019061025391906132b4565b610b27565b6040516102659190613c8b565b60405180910390f35b610276610e7e565b6040516102839190613a31565b60405180910390f35b6102946110b8565b6040516102a19190613c8b565b60405180910390f35b6102c460048036038101906102bf9190613211565b6110be565b6040516102d29291906139e6565b60405180910390f35b6102e361110f565b6040516102f09190613994565b60405180910390f35b610313600480360381019061030e91906131c2565b611133565b005b61031d6113eb565b005b610327611527565b005b610343600480360381019061033e9190613276565b61160f565b6040516103509190613c8b565b60405180910390f35b610373600480360381019061036e919061331b565b61190c565b6040516103819291906139e6565b60405180910390f35b60076020528060005260406000206000915090505481565b60008054906101000a900473ffffffffffffffffffffffffffffffffffffffff1673ffffffffffffffffffffffffffffffffffffffff163373ffffffffffffffffffffffffffffffffffffffff1614610430576040517f08c379a000000000000000000000000000000000000000000000000000000000815260040161042790613b53565b60405180910390fd5b60008111610473576040517f08c379a000000000000000000000000000000000000000000000000000000000815260040161046a90613bd3565b60405180910390fd5b600073ffffffffffffffffffffffffffffffffffffffff168273ffffffffffffffffffffffffffffffffffffffff1614156104e3576040517f08c379a00000000000000000000000000000000000000000000000000000000081526004016104da90613a53565b60405180910390fd5b82600160006101000a81548173ffffffffffffffffffffffffffffffffffffffff021916908373ffffffffffffffffffffffffffffffffffffffff16021790555061052c612f81565b82816000019073ffffffffffffffffffffffffffffffffffffffff16908173ffffffffffffffffffffffffffffffffffffffff1681525050818160200181815250506000610578611950565b90506000836105868661196d565b6105909190613de2565b905082600860008873ffffffffffffffffffffffffffffffffffffffff1673ffffffffffffffffffffffffffffffffffffffff168152602001908152602001600020600080815260200190815260200160002060008201518160000160006101000a81548173ffffffffffffffffffffffffffffffffffffffff021916908373ffffffffffffffffffffffffffffffffffffffff1602179055506020820151816001015590505080600760008873ffffffffffffffffffffffffffffffffffffffff1673ffffffffffffffffffffffffffffffffffffffff16815260200190815260200160002060008282546106869190613d5b565b925050819055508260056000600654815260200190815260200160002060008201518160000160006101000a81548173ffffffffffffffffffffffffffffffffffffffff021916908373ffffffffffffffffffffffffffffffffffffffff1602179055506020820151816001015590505060016006600082825461070a9190613d5b565b9250508190555080600460008282546107239190613d5b565b92505081905550600160009054906101000a900473ffffffffffffffffffffffffffffffffffffffff1673ffffffffffffffffffffffffffffffffffffffff167f5548c837ab068cf56a2c2479df0882a4922fd203edb7517321831d95078c5f6286866040516107949291906139e6565b60405180910390a2505050505050565b60096020528060005260406000206000915090505481565b60065481565b600160009054906101000a900473ffffffffffffffffffffffffffffffffffffffff1681565b600a6020528060005260406000206000915090508060000160009054906101000a900473ffffffffffffffffffffffffffffffffffffffff16908060010154905082565b6001600c5414610871576040517f08c379a000000000000000000000000000000000000000000000000000000000815260040161086890613bf3565b60405180910390fd5b6000600c819055508273ffffffffffffffffffffffffffffffffffffffff163373ffffffffffffffffffffffffffffffffffffffff16146108b157600080fd5b6108bd82843084611974565b6108c8838383611acc565b8273ffffffffffffffffffffffffffffffffffffffff167f5548c837ab068cf56a2c2479df0882a4922fd203edb7517321831d95078c5f6283836040516109109291906139e6565b60405180910390a26001600c81905550505050565b60606000600380549050905060008167ffffffffffffffff811115610973577f4e487b7100000000000000000000000000000000000000000000000000000000600052604160045260246000fd5b6040519080825280602002602001820160405280156109ac57816020015b610999612fb1565b8152602001906001900390816109915790505b50905060005b82811015610b1e57600381815481106109f4577f4e487b7100000000000000000000000000000000000000000000000000000000600052603260045260246000fd5b90600052602060002090600502016040518060a0016040529081600082018054610a1d90613efa565b80601f0160208091040260200160405190810160405280929190818152602001828054610a4990613efa565b8015610a965780601f10610a6b57610100808354040283529160200191610a96565b820191906000526020600020905b815481529060010190602001808311610a7957829003601f168201915b50505050508152602001600182015481526020016002820154815260200160038201548152602001600482015481525050828281518110610b00577f4e487b7100000000000000000000000000000000000000000000000000000000600052603260045260246000fd5b60200260200101819052508080610b1690613f2c565b9150506109b2565b50809250505090565b6000600160009054906101000a900473ffffffffffffffffffffffffffffffffffffffff1673ffffffffffffffffffffffffffffffffffffffff163373ffffffffffffffffffffffffffffffffffffffff1614610bb9576040517f08c379a0000000000000000000000000000000000000000000000000000000008152600401610bb090613a93565b60405180910390fd5b60008060009054906101000a900473ffffffffffffffffffffffffffffffffffffffff1673ffffffffffffffffffffffffffffffffffffffff1663f5c8ba936040518163ffffffff1660e01b8152600401602060405180830381600087803b158015610c2457600080fd5b505af1158015610c38573d6000803e3d6000fd5b505050506040513d601f19601f82011682018060405250810190610c5c9190613199565b9050610c7f846000016020810190610c749190613170565b828660c00135611d9a565b6000604051806101000160405280866000016020810190610ca09190613170565b73ffffffffffffffffffffffffffffffffffffffff168152602001866020016020810190610cce9190613170565b73ffffffffffffffffffffffffffffffffffffffff168152602001866040016020810190610cfc91906132f2565b62ffffff1681526020013073ffffffffffffffffffffffffffffffffffffffff168152602001866080013581526020018660a0013581526020018660c001358152602001600073ffffffffffffffffffffffffffffffffffffffff1681525090508173ffffffffffffffffffffffffffffffffffffffff1663db3e2198826040518263ffffffff1660e01b8152600401610d969190613c6f565b602060405180830381600087803b158015610db057600080fd5b505af1158015610dc4573d6000803e3d6000fd5b505050506040513d601f19601f82011682018060405250810190610de89190613344565b92508460c00135831015610e4157610e14856000016020810190610e0c9190613170565b836000611d9a565b610e40856000016020810190610e2a9190613170565b33858860c00135610e3b9190613e3c565b611eef565b5b610e7684866000016020810190610e589190613170565b876020016020810190610e6b9190613170565b868960a00135612044565b505092915050565b60606000600280549050905060008167ffffffffffffffff811115610ecc577f4e487b7100000000000000000000000000000000000000000000000000000000600052604160045260246000fd5b604051908082528060200260200182016040528015610f0557816020015b610ef2612fe0565b815260200190600190039081610eea5790505b50905060005b828110156110af5760028181548110610f4d577f4e487b7100000000000000000000000000000000000000000000000000000000600052603260045260246000fd5b9060005260206000209060030201604051806060016040529081600082018054610f7690613efa565b80601f0160208091040260200160405190810160405280929190818152602001828054610fa290613efa565b8015610fef5780601f10610fc457610100808354040283529160200191610fef565b820191906000526020600020905b815481529060010190602001808311610fd257829003601f168201915b505050505081526020016001820160009054906101000a900473ffffffffffffffffffffffffffffffffffffffff1673ffffffffffffffffffffffffffffffffffffffff1673ffffffffffffffffffffffffffffffffffffffff168152602001600282015481525050828281518110611091577f4e487b7100000000000000000000000000000000000000000000000000000000600052603260045260246000fd5b602002602001018190525080806110a790613f2c565b915050610f0b565b50809250505090565b600b5481565b6008602052816000526040600020602052806000526040600020600091509150508060000160009054906101000a900473ffffffffffffffffffffffffffffffffffffffff16908060010154905082565b60008054906101000a900473ffffffffffffffffffffffffffffffffffffffff1681565b6001600c5414611178576040517f08c379a000000000000000000000000000000000000000000000000000000000815260040161116f90613bf3565b60405180910390fd5b6000600c819055508273ffffffffffffffffffffffffffffffffffffffff163373ffffffffffffffffffffffffffffffffffffffff16146111b857600080fd5b600115156111c78484846123c3565b151514611209576040517f08c379a000000000000000000000000000000000000000000000000000000000815260040161120090613bb3565b60405180910390fd5b600160009054906101000a900473ffffffffffffffffffffffffffffffffffffffff1673ffffffffffffffffffffffffffffffffffffffff168373ffffffffffffffffffffffffffffffffffffffff16141561127a5761126a828483611eef565b611275838383612579565b61138e565b600061128784848461273b565b9050600081111561137557600061129d8461196d565b826112a89190613db1565b905060006112b685836128fc565b9050801561134d5784600a6000600b54815260200190815260200160002060000160006101000a81548173ffffffffffffffffffffffffffffffffffffffff021916908373ffffffffffffffffffffffffffffffffffffffff16021790555081600a6000600b548152602001908152602001600020600101819055506001600b60008282546113459190613d5b565b925050819055505b6113638587848761135e9190613e3c565b611eef565b61136e868686612579565b505061138c565b611380838584611eef565b61138b848484612579565b5b505b8273ffffffffffffffffffffffffffffffffffffffff167f9b1bfa7fa9ee420a16e124f794c35ac9f90472acc99140eb2f6447c714cad8eb83836040516113d69291906139e6565b60405180910390a26001600c81905550505050565b6113f3612fe0565b6040518060400160405280600a81526020017f323032322d30382d313000000000000000000000000000000000000000000000815250816000018190525073e592427a0aece92de3edee1f18e0157c05861564816020019073ffffffffffffffffffffffffffffffffffffffff16908173ffffffffffffffffffffffffffffffffffffffff16815250506000816040018181525050600281908060018154018082558091505060019003906000526020600020906003020160009091909190915060008201518160000190805190602001906114d0929190613017565b5060208201518160010160006101000a81548173ffffffffffffffffffffffffffffffffffffffff021916908373ffffffffffffffffffffffffffffffffffffffff16021790555060408201518160020155505050565b61152f612fb1565b6040518060400160405280600a81526020017f323032322d30382d31300000000000000000000000000000000000000000000081525081600001819052506000816020018181525050600081604001818152505060008160600181815250506000816080018181525050600381908060018154018082558091505060019003906000526020600020906005020160009091909190915060008201518160000190805190602001906115e1929190613017565b5060208201518160010155604082015181600201556060820151816003015560808201518160040155505050565b6000600160009054906101000a900473ffffffffffffffffffffffffffffffffffffffff1673ffffffffffffffffffffffffffffffffffffffff163373ffffffffffffffffffffffffffffffffffffffff16146116a1576040517f08c379a000000000000000000000000000000000000000000000000000000000815260040161169890613a93565b60405180910390fd5b60008060009054906101000a900473ffffffffffffffffffffffffffffffffffffffff1673ffffffffffffffffffffffffffffffffffffffff1663f5c8ba936040518163ffffffff1660e01b8152600401602060405180830381600087803b15801561170c57600080fd5b505af1158015611720573d6000803e3d6000fd5b505050506040513d601f19601f820116820180604052508101906117449190613199565b905061176784600001602081019061175c9190613170565b828660a00135611d9a565b60006040518061010001604052808660000160208101906117889190613170565b73ffffffffffffffffffffffffffffffffffffffff1681526020018660200160208101906117b69190613170565b73ffffffffffffffffffffffffffffffffffffffff1681526020018660400160208101906117e491906132f2565b62ffffff1681526020013073ffffffffffffffffffffffffffffffffffffffff168152602001866080013581526020018660a00135815260200160008152602001600073ffffffffffffffffffffffffffffffffffffffff1681525090508173ffffffffffffffffffffffffffffffffffffffff1663414bf389826040518263ffffffff1660e01b815260040161187b9190613c53565b602060405180830381600087803b15801561189557600080fd5b505af11580156118a9573d6000803e3d6000fd5b505050506040513d601f19601f820116820180604052508101906118cd9190613344565b9250611904848660000160208101906118e69190613170565b8760200160208101906118f99190613170565b8860a0013587612044565b505092915050565b60056020528060005260406000206000915090508060000160009054906101000a900473ffffffffffffffffffffffffffffffffffffffff16908060010154905082565b606060006040518060200160405280600081525090508091505090565b6000919050565b6000808573ffffffffffffffffffffffffffffffffffffffff166323b872dd60e01b8686866040516024016119ab939291906139af565b604051602081830303815290604052907bffffffffffffffffffffffffffffffffffffffffffffffffffffffff19166020820180517bffffffffffffffffffffffffffffffffffffffffffffffffffffffff8381831617835250505050604051611a15919061397d565b6000604051808303816000865af19150503d8060008114611a52576040519150601f19603f3d011682016040523d82523d6000602084013e611a57565b606091505b5091509150818015611a855750600081511480611a84575080806020019051810190611a83919061324d565b5b5b611ac4576040517f08c379a0000000000000000000000000000000000000000000000000000000008152600401611abb90613b93565b60405180910390fd5b505050505050565b6000611ad883836129ce565b90508015611b6f578260056000600654815260200190815260200160002060000160006101000a81548173ffffffffffffffffffffffffffffffffffffffff021916908373ffffffffffffffffffffffffffffffffffffffff1602179055508160056000600654815260200190815260200160002060010181905550600160066000828254611b679190613d5b565b925050819055505b600082611b7b8561196d565b611b859190613de2565b90508060046000828254611b999190613d5b565b925050819055506000611bad868686612aa0565b90508015611d3c576000600960008873ffffffffffffffffffffffffffffffffffffffff1673ffffffffffffffffffffffffffffffffffffffff16815260200190815260200160002054905085600860008973ffffffffffffffffffffffffffffffffffffffff1673ffffffffffffffffffffffffffffffffffffffff168152602001908152602001600020600083815260200190815260200160002060000160006101000a81548173ffffffffffffffffffffffffffffffffffffffff021916908373ffffffffffffffffffffffffffffffffffffffff16021790555084600860008973ffffffffffffffffffffffffffffffffffffffff1673ffffffffffffffffffffffffffffffffffffffff1681526020019081526020016000206000838152602001908152602001600020600101819055506001600960008973ffffffffffffffffffffffffffffffffffffffff1673ffffffffffffffffffffffffffffffffffffffff1681526020019081526020016000206000828254611d339190613d5b565b92505081905550505b81600760008873ffffffffffffffffffffffffffffffffffffffff1673ffffffffffffffffffffffffffffffffffffffff1681526020019081526020016000206000828254611d8b9190613d5b565b92505081905550505050505050565b6000808473ffffffffffffffffffffffffffffffffffffffff1663095ea7b360e01b8585604051602401611dcf9291906139e6565b604051602081830303815290604052907bffffffffffffffffffffffffffffffffffffffffffffffffffffffff19166020820180517bffffffffffffffffffffffffffffffffffffffffffffffffffffffff8381831617835250505050604051611e39919061397d565b6000604051808303816000865af19150503d8060008114611e76576040519150601f19603f3d011682016040523d82523d6000602084013e611e7b565b606091505b5091509150818015611ea95750600081511480611ea8575080806020019051810190611ea7919061324d565b5b5b611ee8576040517f08c379a0000000000000000000000000000000000000000000000000000000008152600401611edf90613a73565b60405180910390fd5b5050505050565b6000808473ffffffffffffffffffffffffffffffffffffffff1663a9059cbb60e01b8585604051602401611f249291906139e6565b604051602081830303815290604052907bffffffffffffffffffffffffffffffffffffffffffffffffffffffff19166020820180517bffffffffffffffffffffffffffffffffffffffffffffffffffffffff8381831617835250505050604051611f8e919061397d565b6000604051808303816000865af19150503d8060008114611fcb576040519150601f19603f3d011682016040523d82523d6000602084013e611fd0565b606091505b5091509150818015611ffe5750600081511480611ffd575080806020019051810190611ffc919061324d565b5b5b61203d576040517f08c379a000000000000000000000000000000000000000000000000000000000815260040161203490613b33565b60405180910390fd5b5050505050565b600160009054906101000a900473ffffffffffffffffffffffffffffffffffffffff1673ffffffffffffffffffffffffffffffffffffffff163373ffffffffffffffffffffffffffffffffffffffff16146120d4576040517f08c379a00000000000000000000000000000000000000000000000000000000081526004016120cb90613a93565b60405180910390fd5b60006120e08584612c2a565b90506000151581151514612129576040517f08c379a000000000000000000000000000000000000000000000000000000000815260040161212090613ad3565b60405180910390fd5b61213384836129ce565b905080156121ca578360056000600654815260200190815260200160002060000160006101000a81548173ffffffffffffffffffffffffffffffffffffffff021916908373ffffffffffffffffffffffffffffffffffffffff16021790555081600560006006548152602001908152602001600020600101819055506001600660008282546121c29190613d5b565b925050819055505b60006121d7878786612d55565b90506000151581151514612220576040517f08c379a000000000000000000000000000000000000000000000000000000000815260040161221790613af3565b60405180910390fd5b61222b878685612aa0565b905080156123ba576000600960008973ffffffffffffffffffffffffffffffffffffffff1673ffffffffffffffffffffffffffffffffffffffff16815260200190815260200160002054905085600860008a73ffffffffffffffffffffffffffffffffffffffff1673ffffffffffffffffffffffffffffffffffffffff168152602001908152602001600020600083815260200190815260200160002060000160006101000a81548173ffffffffffffffffffffffffffffffffffffffff021916908373ffffffffffffffffffffffffffffffffffffffff16021790555083600860008a73ffffffffffffffffffffffffffffffffffffffff1673ffffffffffffffffffffffffffffffffffffffff1681526020019081526020016000206000838152602001908152602001600020600101819055506001600960008a73ffffffffffffffffffffffffffffffffffffffff1673ffffffffffffffffffffffffffffffffffffffff16815260200190815260200160002060008282546123b19190613d5b565b92505081905550505b50505050505050565b6000806000905060005b600960008773ffffffffffffffffffffffffffffffffffffffff1673ffffffffffffffffffffffffffffffffffffffff1681526020019081526020016000205481101561256d578473ffffffffffffffffffffffffffffffffffffffff16600860008873ffffffffffffffffffffffffffffffffffffffff1673ffffffffffffffffffffffffffffffffffffffff168152602001908152602001600020600083815260200190815260200160002060000160009054906101000a900473ffffffffffffffffffffffffffffffffffffffff1673ffffffffffffffffffffffffffffffffffffffff16141561255a5783600860008873ffffffffffffffffffffffffffffffffffffffff1673ffffffffffffffffffffffffffffffffffffffff1681526020019081526020016000206000838152602001908152602001600020600101541015612551576040517f08c379a000000000000000000000000000000000000000000000000000000000815260040161254890613b73565b60405180910390fd5b6001915061256d565b808061256590613f2c565b9150506123cd565b50809150509392505050565b60006125858383612c2a565b905060001515811515146125ce576040517f08c379a00000000000000000000000000000000000000000000000000000000081526004016125c590613ab3565b60405180910390fd5b6000826125da8561196d565b6125e49190613de2565b905060006125f0612f75565b826125fb9190613db1565b90508060045461260b9190613de2565b6004600082825461261c9190613e3c565b925050819055506000612630878787612d55565b90506000151581151514612679576040517f08c379a000000000000000000000000000000000000000000000000000000000815260040161267090613b13565b60405180910390fd5b600061268488612f7a565b8461268f9190613db1565b905080600760008a73ffffffffffffffffffffffffffffffffffffffff1673ffffffffffffffffffffffffffffffffffffffff168152602001908152602001600020546126dc9190613de2565b600760008a73ffffffffffffffffffffffffffffffffffffffff1673ffffffffffffffffffffffffffffffffffffffff168152602001908152602001600020600082825461272a9190613e3c565b925050819055505050505050505050565b600080826127488561196d565b6127529190613de2565b9050600073ffffffffffffffffffffffffffffffffffffffff168573ffffffffffffffffffffffffffffffffffffffff1614156127c4576040517f08c379a00000000000000000000000000000000000000000000000000000000081526004016127bb90613c13565b60405180910390fd5b6000806127d087612f7a565b90506000600760008973ffffffffffffffffffffffffffffffffffffffff1673ffffffffffffffffffffffffffffffffffffffff168152602001908152602001600020548261281f9190613e3c565b905060008111156128ee57818460008054906101000a900473ffffffffffffffffffffffffffffffffffffffff1673ffffffffffffffffffffffffffffffffffffffff1663198055386040518163ffffffff1660e01b8152600401602060405180830381600087803b15801561289457600080fd5b505af11580156128a8573d6000803e3d6000fd5b505050506040513d601f19601f820116820180604052508101906128cc9190613344565b836128d79190613de2565b6128e19190613de2565b6128eb9190613db1565b92505b829450505050509392505050565b6000806001905060005b600b548110156129c3578473ffffffffffffffffffffffffffffffffffffffff16600a600083815260200190815260200160002060000160009054906101000a900473ffffffffffffffffffffffffffffffffffffffff1673ffffffffffffffffffffffffffffffffffffffff1614156129b0576000915083600a600083815260200190815260200160002060010160008282546129a49190613d5b565b925050819055506129c3565b80806129bb90613f2c565b915050612906565b508091505092915050565b6000806001905060005b600654811015612a95578473ffffffffffffffffffffffffffffffffffffffff166005600083815260200190815260200160002060000160009054906101000a900473ffffffffffffffffffffffffffffffffffffffff1673ffffffffffffffffffffffffffffffffffffffff161415612a82576000915083600560008381526020019081526020016000206001016000828254612a769190613d5b565b92505081905550612a95565b8080612a8d90613f2c565b9150506129d8565b508091505092915050565b6000806001905060005b600960008773ffffffffffffffffffffffffffffffffffffffff1673ffffffffffffffffffffffffffffffffffffffff16815260200190815260200160002054811015612c1e578473ffffffffffffffffffffffffffffffffffffffff16600860008873ffffffffffffffffffffffffffffffffffffffff1673ffffffffffffffffffffffffffffffffffffffff168152602001908152602001600020600083815260200190815260200160002060000160009054906101000a900473ffffffffffffffffffffffffffffffffffffffff1673ffffffffffffffffffffffffffffffffffffffff161415612c0b576000915083600860008873ffffffffffffffffffffffffffffffffffffffff1673ffffffffffffffffffffffffffffffffffffffff16815260200190815260200160002060008381526020019081526020016000206001016000828254612bff9190613d5b565b92505081905550612c1e565b8080612c1690613f2c565b915050612aaa565b50809150509392505050565b6000806001905060005b600654811015612d4a578473ffffffffffffffffffffffffffffffffffffffff166005600083815260200190815260200160002060000160009054906101000a900473ffffffffffffffffffffffffffffffffffffffff1673ffffffffffffffffffffffffffffffffffffffff161415612d3757600091508360056000838152602001908152602001600020600101541015612d05576040517f08c379a0000000000000000000000000000000000000000000000000000000008152600401612cfc90613c33565b60405180910390fd5b83600560008381526020019081526020016000206001016000828254612d2b9190613e3c565b92505081905550612d4a565b8080612d4290613f2c565b915050612c34565b508091505092915050565b6000806001905060005b600960008773ffffffffffffffffffffffffffffffffffffffff1673ffffffffffffffffffffffffffffffffffffffff16815260200190815260200160002054811015612f69578473ffffffffffffffffffffffffffffffffffffffff16600860008873ffffffffffffffffffffffffffffffffffffffff1673ffffffffffffffffffffffffffffffffffffffff168152602001908152602001600020600083815260200190815260200160002060000160009054906101000a900473ffffffffffffffffffffffffffffffffffffffff1673ffffffffffffffffffffffffffffffffffffffff161415612f56576000915083600860008873ffffffffffffffffffffffffffffffffffffffff1673ffffffffffffffffffffffffffffffffffffffff1681526020019081526020016000206000838152602001908152602001600020600101541015612ee7576040517f08c379a0000000000000000000000000000000000000000000000000000000008152600401612ede90613c33565b60405180910390fd5b83600860008873ffffffffffffffffffffffffffffffffffffffff1673ffffffffffffffffffffffffffffffffffffffff16815260200190815260200160002060008381526020019081526020016000206001016000828254612f4a9190613e3c565b92505081905550612f69565b8080612f6190613f2c565b915050612d5f565b50809150509392505050565b600090565b6000919050565b6040518060400160405280600073ffffffffffffffffffffffffffffffffffffffff168152602001600081525090565b6040518060a0016040528060608152602001600081526020016000815260200160008152602001600081525090565b604051806060016040528060608152602001600073ffffffffffffffffffffffffffffffffffffffff168152602001600081525090565b82805461302390613efa565b90600052602060002090601f016020900481019282613045576000855561308c565b82601f1061305e57805160ff191683800117855561308c565b8280016001018555821561308c579182015b8281111561308b578251825591602001919060010190613070565b5b509050613099919061309d565b5090565b5b808211156130b657600081600090555060010161309e565b5090565b6000813590506130c9816143d3565b92915050565b6000815190506130de816143d3565b92915050565b6000815190506130f3816143ea565b92915050565b6000610100828403121561310c57600080fd5b81905092915050565b6000610100828403121561312857600080fd5b81905092915050565b60008135905061314081614401565b92915050565b60008135905061315581614418565b92915050565b60008151905061316a81614418565b92915050565b60006020828403121561318257600080fd5b6000613190848285016130ba565b91505092915050565b6000602082840312156131ab57600080fd5b60006131b9848285016130cf565b91505092915050565b6000806000606084860312156131d757600080fd5b60006131e5868287016130ba565b93505060206131f6868287016130ba565b925050604061320786828701613146565b9150509250925092565b6000806040838503121561322457600080fd5b6000613232858286016130ba565b925050602061324385828601613146565b9150509250929050565b60006020828403121561325f57600080fd5b600061326d848285016130e4565b91505092915050565b600080610120838503121561328a57600080fd5b6000613298858286016130f9565b9250506101006132aa858286016130ba565b9150509250929050565b60008061012083850312156132c857600080fd5b60006132d685828601613115565b9250506101006132e8858286016130ba565b9150509250929050565b60006020828403121561330457600080fd5b600061331284828501613131565b91505092915050565b60006020828403121561332d57600080fd5b600061333b84828501613146565b91505092915050565b60006020828403121561335657600080fd5b60006133648482850161315b565b91505092915050565b6000613379838361387b565b905092915050565b600061338d83836138f1565b905092915050565b61339e81613e70565b82525050565b6133ad81613e70565b82525050565b60006133be82613cc6565b6133c88185613d0c565b9350836020820285016133da85613ca6565b8060005b8581101561341657848403895281516133f7858261336d565b945061340283613cf2565b925060208a019950506001810190506133de565b50829750879550505050505092915050565b600061343382613cd1565b61343d8185613d1d565b93508360208202850161344f85613cb6565b8060005b8581101561348b578484038952815161346c8582613381565b945061347783613cff565b925060208a01995050600181019050613453565b50829750879550505050505092915050565b60006134a882613cdc565b6134b28185613d2e565b93506134c2818560208601613ec7565b80840191505092915050565b60006134d982613ce7565b6134e38185613d39565b93506134f3818560208601613ec7565b6134fc81614002565b840191505092915050565b6000613514601e83613d4a565b915061351f82614013565b602082019050919050565b6000613537600283613d4a565b91506135428261403c565b602082019050919050565b600061355a600b83613d4a565b915061356582614065565b602082019050919050565b600061357d603783613d4a565b91506135888261408e565b604082019050919050565b60006135a0602f83613d4a565b91506135ab826140dd565b604082019050919050565b60006135c3603783613d4a565b91506135ce8261412c565b604082019050919050565b60006135e6603b83613d4a565b91506135f18261417b565b604082019050919050565b6000613609600283613d4a565b9150613614826141ca565b602082019050919050565b600061362c601283613d4a565b9150613637826141f3565b602082019050919050565b600061364f602783613d4a565b915061365a8261421c565b604082019050919050565b6000613672600383613d4a565b915061367d8261426b565b602082019050919050565b6000613695601783613d4a565b91506136a082614294565b602082019050919050565b60006136b8602883613d4a565b91506136c3826142bd565b604082019050919050565b60006136db600f83613d4a565b91506136e68261430c565b602082019050919050565b60006136fe602a83613d4a565b915061370982614335565b604082019050919050565b6000613721604083613d4a565b915061372c82614384565b604082019050919050565b6101008201600082015161374e6000850182613395565b5060208201516137616020850182613395565b5060408201516137746040850182613950565b5060608201516137876060850182613395565b50608082015161379a608085018261395f565b5060a08201516137ad60a085018261395f565b5060c08201516137c060c085018261395f565b5060e08201516137d360e0850182613941565b50505050565b610100820160008201516137f06000850182613395565b5060208201516138036020850182613395565b5060408201516138166040850182613950565b5060608201516138296060850182613395565b50608082015161383c608085018261395f565b5060a082015161384f60a085018261395f565b5060c082015161386260c085018261395f565b5060e082015161387560e0850182613941565b50505050565b600060a083016000830151848203600086015261389882826134ce565b91505060208301516138ad602086018261395f565b5060408301516138c0604086018261395f565b5060608301516138d3606086018261395f565b5060808301516138e6608086018261395f565b508091505092915050565b6000606083016000830151848203600086015261390e82826134ce565b91505060208301516139236020860182613395565b506040830151613936604086018261395f565b508091505092915050565b61394a81613e8e565b82525050565b61395981613eae565b82525050565b61396881613ebd565b82525050565b61397781613ebd565b82525050565b6000613989828461349d565b915081905092915050565b60006020820190506139a960008301846133a4565b92915050565b60006060820190506139c460008301866133a4565b6139d160208301856133a4565b6139de604083018461396e565b949350505050565b60006040820190506139fb60008301856133a4565b613a08602083018461396e565b9392505050565b60006020820190508181036000830152613a2981846133b3565b905092915050565b60006020820190508181036000830152613a4b8184613428565b905092915050565b60006020820190508181036000830152613a6c81613507565b9050919050565b60006020820190508181036000830152613a8c8161352a565b9050919050565b60006020820190508181036000830152613aac8161354d565b9050919050565b60006020820190508181036000830152613acc81613570565b9050919050565b60006020820190508181036000830152613aec81613593565b9050919050565b60006020820190508181036000830152613b0c816135b6565b9050919050565b60006020820190508181036000830152613b2c816135d9565b9050919050565b60006020820190508181036000830152613b4c816135fc565b9050919050565b60006020820190508181036000830152613b6c8161361f565b9050919050565b60006020820190508181036000830152613b8c81613642565b9050919050565b60006020820190508181036000830152613bac81613665565b9050919050565b60006020820190508181036000830152613bcc81613688565b9050919050565b60006020820190508181036000830152613bec816136ab565b9050919050565b60006020820190508181036000830152613c0c816136ce565b9050919050565b60006020820190508181036000830152613c2c816136f1565b9050919050565b60006020820190508181036000830152613c4c81613714565b9050919050565b600061010082019050613c696000830184613737565b92915050565b600061010082019050613c8560008301846137d9565b92915050565b6000602082019050613ca0600083018461396e565b92915050565b6000819050602082019050919050565b6000819050602082019050919050565b600081519050919050565b600081519050919050565b600081519050919050565b600081519050919050565b6000602082019050919050565b6000602082019050919050565b600082825260208201905092915050565b600082825260208201905092915050565b600081905092915050565b600082825260208201905092915050565b600082825260208201905092915050565b6000613d6682613ebd565b9150613d7183613ebd565b9250827fffffffffffffffffffffffffffffffffffffffffffffffffffffffffffffffff03821115613da657613da5613f75565b5b828201905092915050565b6000613dbc82613ebd565b9150613dc783613ebd565b925082613dd757613dd6613fa4565b5b828204905092915050565b6000613ded82613ebd565b9150613df883613ebd565b9250817fffffffffffffffffffffffffffffffffffffffffffffffffffffffffffffffff0483118215151615613e3157613e30613f75565b5b828202905092915050565b6000613e4782613ebd565b9150613e5283613ebd565b925082821015613e6557613e64613f75565b5b828203905092915050565b6000613e7b82613e8e565b9050919050565b60008115159050919050565b600073ffffffffffffffffffffffffffffffffffffffff82169050919050565b600062ffffff82169050919050565b6000819050919050565b60005b83811015613ee5578082015181840152602081019050613eca565b83811115613ef4576000848401525b50505050565b60006002820490506001821680613f1257607f821691505b60208210811415613f2657613f25613fd3565b5b50919050565b6000613f3782613ebd565b91507fffffffffffffffffffffffffffffffffffffffffffffffffffffffffffffffff821415613f6a57613f69613f75565b5b600182019050919050565b7f4e487b7100000000000000000000000000000000000000000000000000000000600052601160045260246000fd5b7f4e487b7100000000000000000000000000000000000000000000000000000000600052601260045260246000fd5b7f4e487b7100000000000000000000000000000000000000000000000000000000600052602260045260246000fd5b6000601f19601f8301169050919050565b7f696e697469616c697a653a20746f6b656e206164647265737320697320300000600082015250565b7f5341000000000000000000000000000000000000000000000000000000000000600082015250565b7f4e6f74206d616e61676572000000000000000000000000000000000000000000600082015250565b7f7570646174655769746864726177496e666f3a20496e76616c69642066756e6460008201527f20746f6b656e20776974686472617720617474656d7074000000000000000000602082015250565b7f75706461746553776170496e666f3a20496e76616c69642066756e6420746f6b60008201527f656e207377617020617474656d70740000000000000000000000000000000000602082015250565b7f75706461746553776170496e666f3a20496e76616c696420696e766573746f7260008201527f20746f6b656e20776974686472617720617474656d7074000000000000000000602082015250565b7f7570646174655769746864726177496e666f3a20496e76616c696420696e766560008201527f73746f7220746f6b656e20776974686472617720617474656d70740000000000602082015250565b7f5354000000000000000000000000000000000000000000000000000000000000600082015250565b7f58585846756e643a20464f5242494444454e0000000000000000000000000000600082015250565b7f77697468647261773a20496e76616c696420776974686472617720746f6b656e60008201527f20616d6f756e7400000000000000000000000000000000000000000000000000602082015250565b7f5354460000000000000000000000000000000000000000000000000000000000600082015250565b7f77697468647261773a20496e76616c696420746f6b656e000000000000000000600082015250565b7f696e697469616c697a653a20746f6b656e20616d6f756e7420697320696e737560008201527f6666696369656e74000000000000000000000000000000000000000000000000602082015250565b7f58585846756e643a204c4f434b45440000000000000000000000000000000000600082015250565b7f6765744d616e616765725265776172643a20496e76616c696420696e7665737460008201527f6f72206164647265737300000000000000000000000000000000000000000000602082015250565b7f6465637265617365546f6b656e416d6f756e743a20646563726561736520746f60008201527f6b656e20616d6f756e74206973206d6f7265207468616e20796f752068617665602082015250565b6143dc81613e70565b81146143e757600080fd5b50565b6143f381613e82565b81146143fe57600080fd5b50565b61440a81613eae565b811461441557600080fd5b50565b61442181613ebd565b811461442c57600080fd5b5056fea2646970667358221220d15fc00d5796c86929a986a02921d96f758eef00a2f75d203f835a222759fcf764736f6c63430008040033",
  "linkReferences": {},
  "deployedLinkReferences": {}
}