{
  "_format": "hh-sol-artifact-1",
  "contractName": "XXXFund",
  "sourceName": "contracts/XXXFund.sol",
  "abi": [
    {
      "inputs": [],
      "stateMutability": "nonpayable",
      "type": "constructor"
    },
    {
      "anonymous": false,
      "inputs": [
        {
          "indexed": true,
          "internalType": "address",
          "name": "investor",
          "type": "address"
        },
        {
          "indexed": false,
          "internalType": "address",
          "name": "_token",
          "type": "address"
        },
        {
          "indexed": false,
          "internalType": "uint256",
          "name": "_amount",
          "type": "uint256"
        }
      ],
      "name": "Deposit",
      "type": "event"
    },
    {
      "anonymous": false,
      "inputs": [
        {
          "indexed": true,
          "internalType": "address",
          "name": "manager",
          "type": "address"
        },
        {
          "indexed": false,
          "internalType": "address",
          "name": "tokenIn",
          "type": "address"
        },
        {
          "indexed": false,
          "internalType": "address",
          "name": "tokenOut",
          "type": "address"
        },
        {
          "indexed": false,
          "internalType": "uint256",
          "name": "amountIn",
          "type": "uint256"
        },
        {
          "indexed": false,
          "internalType": "uint256",
          "name": "amountOut",
          "type": "uint256"
        }
      ],
      "name": "Swap",
      "type": "event"
    },
    {
      "anonymous": false,
      "inputs": [
        {
          "indexed": true,
          "internalType": "address",
          "name": "investor",
          "type": "address"
        },
        {
          "indexed": false,
          "internalType": "address",
          "name": "_token",
          "type": "address"
        },
        {
          "indexed": false,
          "internalType": "uint256",
          "name": "_amount",
          "type": "uint256"
        }
      ],
      "name": "Withdraw",
      "type": "event"
    },
    {
      "inputs": [
        {
          "internalType": "address",
          "name": "investor",
          "type": "address"
        },
        {
          "internalType": "address",
          "name": "_token",
          "type": "address"
        },
        {
          "internalType": "uint256",
          "name": "_amount",
          "type": "uint256"
        }
      ],
      "name": "deposit",
      "outputs": [],
      "stateMutability": "nonpayable",
      "type": "function"
    },
    {
      "inputs": [],
      "name": "factory",
      "outputs": [
        {
          "internalType": "address",
          "name": "",
          "type": "address"
        }
      ],
      "stateMutability": "view",
      "type": "function"
    },
    {
      "inputs": [
        {
          "internalType": "address",
          "name": "_manager",
          "type": "address"
        }
      ],
      "name": "initialize",
      "outputs": [],
      "stateMutability": "nonpayable",
      "type": "function"
    },
    {
      "inputs": [
        {
          "internalType": "address",
          "name": "",
          "type": "address"
        }
      ],
      "name": "investorTokenCount",
      "outputs": [
        {
          "internalType": "uint256",
          "name": "",
          "type": "uint256"
        }
      ],
      "stateMutability": "view",
      "type": "function"
    },
    {
      "inputs": [
        {
          "internalType": "address",
          "name": "",
          "type": "address"
        },
        {
          "internalType": "uint256",
          "name": "",
          "type": "uint256"
        }
      ],
      "name": "investorTokens",
      "outputs": [
        {
          "internalType": "address",
          "name": "tokenAddress",
          "type": "address"
        },
        {
          "internalType": "uint256",
          "name": "amount",
          "type": "uint256"
        }
      ],
      "stateMutability": "view",
      "type": "function"
    },
    {
      "inputs": [],
      "name": "manager",
      "outputs": [
        {
          "internalType": "address",
          "name": "",
          "type": "address"
        }
      ],
      "stateMutability": "view",
      "type": "function"
    },
    {
      "inputs": [],
      "name": "rewardTokenCount",
      "outputs": [
        {
          "internalType": "uint256",
          "name": "",
          "type": "uint256"
        }
      ],
      "stateMutability": "view",
      "type": "function"
    },
    {
      "inputs": [
        {
          "internalType": "uint256",
          "name": "",
          "type": "uint256"
        }
      ],
      "name": "rewardTokens",
      "outputs": [
        {
          "internalType": "address",
          "name": "tokenAddress",
          "type": "address"
        },
        {
          "internalType": "uint256",
          "name": "amount",
          "type": "uint256"
        }
      ],
      "stateMutability": "view",
      "type": "function"
    },
    {
      "inputs": [
        {
          "components": [
            {
              "internalType": "enum IXXXFund.V3TradeType",
              "name": "tradeType",
              "type": "uint8"
            },
            {
              "internalType": "enum IXXXFund.V3SwapType",
              "name": "swapType",
              "type": "uint8"
            },
            {
              "internalType": "address",
              "name": "investor",
              "type": "address"
            },
            {
              "internalType": "address",
              "name": "tokenIn",
              "type": "address"
            },
            {
              "internalType": "address",
              "name": "tokenOut",
              "type": "address"
            },
            {
              "internalType": "address",
              "name": "recipient",
              "type": "address"
            },
            {
              "internalType": "uint24",
              "name": "fee",
              "type": "uint24"
            },
            {
              "internalType": "uint256",
              "name": "amountIn",
              "type": "uint256"
            },
            {
              "internalType": "uint256",
              "name": "amountOut",
              "type": "uint256"
            },
            {
              "internalType": "uint256",
              "name": "amountInMaximum",
              "type": "uint256"
            },
            {
              "internalType": "uint256",
              "name": "amountOutMinimum",
              "type": "uint256"
            },
            {
              "internalType": "uint160",
              "name": "sqrtPriceLimitX96",
              "type": "uint160"
            },
            {
              "internalType": "bytes",
              "name": "path",
              "type": "bytes"
            }
          ],
          "internalType": "struct IXXXFund.V3TradeParams[]",
          "name": "trades",
          "type": "tuple[]"
        }
      ],
      "name": "swap",
      "outputs": [
        {
          "internalType": "uint256",
          "name": "",
          "type": "uint256"
        }
      ],
      "stateMutability": "payable",
      "type": "function"
    },
    {
      "inputs": [
        {
          "internalType": "address",
          "name": "investor",
          "type": "address"
        },
        {
          "internalType": "address",
          "name": "_token",
          "type": "address"
        },
        {
          "internalType": "uint256",
          "name": "_amount",
          "type": "uint256"
        }
      ],
      "name": "withdraw",
      "outputs": [],
      "stateMutability": "nonpayable",
      "type": "function"
    }
  ],
  "bytecode": "0x60806040526000600555600160065534801561001a57600080fd5b50600080546001600160a01b03191633179055611e5e8061003c6000396000f3fe6080604052600436106100b15760003560e01c8063abb06b9511610069578063c45a01551161004e578063c45a0155146101a6578063c4d66de8146101bb578063d9caed12146101db576100b1565b8063abb06b9514610171578063bc40f3bf14610186576100b1565b806350ac1dd91161009a57806350ac1dd91461010e5780637bb7bed1146101215780638340f5491461014f576100b1565b806318324c11146100b6578063481c6a75146100ec575b600080fd5b3480156100c257600080fd5b506100d66100d1366004611716565b6101fb565b6040516100e39190611d6c565b60405180910390f35b3480156100f857600080fd5b5061010161020d565b6040516100e3919061198f565b6100d661011c3660046117c0565b61021c565b34801561012d57600080fd5b5061014161013c36600461188e565b610e39565b6040516100e39291906119f0565b34801561015b57600080fd5b5061016f61016a366004611755565b610e5e565b005b34801561017d57600080fd5b506100d661106b565b34801561019257600080fd5b506101416101a1366004611795565b611071565b3480156101b257600080fd5b506101016110a1565b3480156101c757600080fd5b5061016f6101d6366004611716565b6110b0565b3480156101e757600080fd5b5061016f6101f6366004611755565b611109565b60036020526000908152604090205481565b6001546001600160a01b031681565b6000808383600081811061022c57fe5b905060200281019061023e9190611dc1565b61024f906060810190604001611716565b6001549091506001600160a01b031633146102855760405162461bcd60e51b815260040161027c90611b31565b60405180910390fd5b600080546001600160a01b03169063e3d8b3f69086908690816102a457fe5b90506020028101906102b69190611dc1565b6102c79060a0810190608001611716565b6040518263ffffffff1660e01b81526004016102e3919061198f565b602060405180830381600087803b1580156102fd57600080fd5b505af1158015610311573d6000803e3d6000fd5b505050506040513d601f19601f82011682018060405250810190610335919061182f565b6103515760405162461bcd60e51b815260040161027c90611a09565b60008060009054906101000a90046001600160a01b03166001600160a01b031663f5c8ba936040518163ffffffff1660e01b8152600401602060405180830381600087803b1580156103a257600080fd5b505af11580156103b6573d6000803e3d6000fd5b505050506040513d601f19601f820116820180604052508101906103da9190611739565b9050848460008181106103e957fe5b90506020028101906103fb9190611dc1565b61040c906080810190606001611716565b6001600160a01b03167f095ea7b30000000000000000000000000000000000000000000000000000000082878760008161044257fe5b90506020028101906104549190611dc1565b610120013560405160240161046a9291906119f0565b60408051601f198184030181529181526020820180516001600160e01b03167fffffffff000000000000000000000000000000000000000000000000000000009094169390931790925290516104c09190611973565b6000604051808303816000865af19150503d80600081146104fd576040519150601f19603f3d011682016040523d82523d6000602084013e610502565b606091505b5050506000610540838787600081811061051857fe5b905060200281019061052a9190611dc1565b61053b906080810190606001611716565b61126c565b90506000805b8681101561057d5787878281811061055a57fe5b905060200281019061056c9190611dc1565b60e001359190910190600101610546565b5080821161059d5760405162461bcd60e51b815260040161027c90611ac3565b60008060005b88811015610e275760008a8a838181106105b957fe5b90506020028101906105cb9190611dc1565b6105dc90604081019060200161184f565b60018111156105e757fe5b14156109d55760008a8a838181106105fb57fe5b905060200281019061060d9190611dc1565b61061b90602081019061184f565b600181111561062657fe5b14156107f25760006040518060e001604052808c8c8581811061064557fe5b90506020028101906106579190611dc1565b610668906080810190606001611716565b6001600160a01b031681526020018c8c8581811061068257fe5b90506020028101906106949190611dc1565b6106a59060a0810190608001611716565b6001600160a01b031681526020018c8c858181106106bf57fe5b90506020028101906106d19190611dc1565b6106e29060e081019060c00161186b565b62ffffff1681523360208201526040018c8c858181106106fe57fe5b90506020028101906107109190611dc1565b60e0013581526020018c8c8581811061072557fe5b90506020028101906107379190611dc1565b61014001358152600060209091015290508a8a8381811061075457fe5b90506020028101906107669190611dc1565b60e001359350866001600160a01b03166304e45aaf826040518263ffffffff1660e01b81526004016107989190611d5e565b602060405180830381600087803b1580156107b257600080fd5b505af11580156107c6573d6000803e3d6000fd5b505050506040513d601f19601f820116820180604052508101906107ea91906118a6565b9250506109d0565b60006040518060e001604052808c8c8581811061080b57fe5b905060200281019061081d9190611dc1565b61082e906080810190606001611716565b6001600160a01b031681526020018c8c8581811061084857fe5b905060200281019061085a9190611dc1565b61086b9060a0810190608001611716565b6001600160a01b031681526020018c8c8581811061088557fe5b90506020028101906108979190611dc1565b6108a89060e081019060c00161186b565b62ffffff1681523360208201526040018c8c858181106108c457fe5b90506020028101906108d69190611dc1565b610100013581526020018c8c858181106108ec57fe5b90506020028101906108fe9190611dc1565b6101200135815260006020909101526040517f5023b4df0000000000000000000000000000000000000000000000000000000081529091506001600160a01b03881690635023b4df90610955908490600401611d5e565b602060405180830381600087803b15801561096f57600080fd5b505af1158015610983573d6000803e3d6000fd5b505050506040513d601f19601f820116820180604052508101906109a791906118a6565b93508a8a838181106109b557fe5b90506020028101906109c79190611dc1565b61010001359250505b610d0f565b60008a8a838181106109e357fe5b90506020028101906109f59190611dc1565b610a0390602081019061184f565b6001811115610a0e57fe5b1415610b8657600060405180608001604052808c8c85818110610a2d57fe5b9050602002810190610a3f9190611dc1565b610a4e90610180810190611d75565b8080601f0160208091040260200160405190810160405280939291908181526020018383808284376000920191909152505050908252503360208201526040018c8c85818110610a9a57fe5b9050602002810190610aac9190611dc1565b60e0013581526020018c8c85818110610ac157fe5b9050602002810190610ad39190611dc1565b6101000135905290508a8a83818110610ae857fe5b9050602002810190610afa9190611dc1565b60e001359350866001600160a01b031663b858183f826040518263ffffffff1660e01b8152600401610b2c9190611d4b565b602060405180830381600087803b158015610b4657600080fd5b505af1158015610b5a573d6000803e3d6000fd5b505050506040513d601f19601f82011682018060405250810190610b7e91906118a6565b925050610d0f565b600060405180608001604052808c8c85818110610b9f57fe5b9050602002810190610bb19190611dc1565b610bc090610180810190611d75565b8080601f0160208091040260200160405190810160405280939291908181526020018383808284376000920191909152505050908252503360208201526040018c8c85818110610c0c57fe5b9050602002810190610c1e9190611dc1565b610100013581526020018c8c85818110610c3457fe5b9050602002810190610c469190611dc1565b60e0013590526040517f09b813460000000000000000000000000000000000000000000000000000000081529091506001600160a01b038816906309b8134690610c94908490600401611d4b565b602060405180830381600087803b158015610cae57600080fd5b505af1158015610cc2573d6000803e3d6000fd5b505050506040513d601f19601f82011682018060405250810190610ce691906118a6565b93508a8a83818110610cf457fe5b9050602002810190610d069190611dc1565b61010001359250505b610d7a878b8b6000818110610d2057fe5b9050602002810190610d329190611dc1565b610d43906080810190606001611716565b8c8c6000818110610d5057fe5b9050602002810190610d629190611dc1565b610d739060a0810190608001611716565b86866112ff565b866001600160a01b03167fcd3829a3813dc3cdd188fd3d01dcf3268c16be2fdd2dd21d0665418816e460628b8b6000818110610db257fe5b9050602002810190610dc49190611dc1565b610dd5906080810190606001611716565b8c8c6000818110610de257fe5b9050602002810190610df49190611dc1565b610e059060a0810190608001611716565b8686604051610e1794939291906119c7565b60405180910390a26001016105a3565b50600196505050505050505b92915050565b600460205260009081526040902080546001909101546001600160a01b039091169082565b600654600114610e805760405162461bcd60e51b815260040161027c90611c59565b6000600655336001600160a01b03841614610e9a57600080fd5b6000546040517fe3d8b3f60000000000000000000000000000000000000000000000000000000081526001600160a01b039091169063e3d8b3f690610ee390859060040161198f565b602060405180830381600087803b158015610efd57600080fd5b505af1158015610f11573d6000803e3d6000fd5b505050506040513d601f19601f82011682018060405250810190610f35919061182f565b610f515760405162461bcd60e51b815260040161027c90611b68565b816001600160a01b03166323b872dd60e01b843084604051602401610f78939291906119a3565b60408051601f198184030181529181526020820180516001600160e01b03167fffffffff00000000000000000000000000000000000000000000000000000000909416939093179092529051610fce9190611973565b6000604051808303816000865af19150503d806000811461100b576040519150601f19603f3d011682016040523d82523d6000602084013e611010565b606091505b50505061101e838383611477565b826001600160a01b03167f5548c837ab068cf56a2c2479df0882a4922fd203edb7517321831d95078c5f6283836040516110599291906119f0565b60405180910390a25050600160065550565b60055481565b6002602090815260009283526040808420909152908252902080546001909101546001600160a01b039091169082565b6000546001600160a01b031681565b6000546001600160a01b031633146110da5760405162461bcd60e51b815260040161027c90611afa565b6001805473ffffffffffffffffffffffffffffffffffffffff19166001600160a01b0392909216919091179055565b60065460011461112b5760405162461bcd60e51b815260040161027c90611c59565b6000600655336001600160a01b0384161461114557600080fd5b6111508383836114f7565b15156001146111715760405162461bcd60e51b815260040161027c90611c22565b816001600160a01b031663a9059cbb60e01b84836040516024016111969291906119f0565b60408051601f198184030181529181526020820180516001600160e01b03167fffffffff000000000000000000000000000000000000000000000000000000009094169390931790925290516111ec9190611973565b6000604051808303816000865af19150503d8060008114611229576040519150601f19603f3d011682016040523d82523d6000602084013e61122e565b606091505b505050826001600160a01b03167f9b1bfa7fa9ee420a16e124f794c35ac9f90472acc99140eb2f6447c714cad8eb83836040516110599291906119f0565b6000805b6001600160a01b0384166000908152600360205260409020548110156112f5576001600160a01b038481166000908152600260209081526040808320858452909152902054811690841614156112ed576001600160a01b038416600090815260026020908152604080832093835292905220600101549050610e33565b600101611270565b5060009392505050565b6000546040517fb42c1d400000000000000000000000000000000000000000000000000000000081526001600160a01b039091169063b42c1d409061134890339060040161198f565b602060405180830381600087803b15801561136257600080fd5b505af1158015611376573d6000803e3d6000fd5b505050506040513d601f19601f8201168201806040525081019061139a9190611739565b6001600160a01b0316306001600160a01b0316146113ca5760405162461bcd60e51b815260040161027c90611c90565b60006113d78686856115ac565b905080156113f75760405162461bcd60e51b815260040161027c90611a66565b611402868584611685565b9050801561146f576001600160a01b0386811660008181526003602081815260408084208054600284528286209086528352908420805473ffffffffffffffffffffffffffffffffffffffff1916968b169690961786556001958601889055939092529052805490910190555b505050505050565b6000611484848484611685565b905080156114f1576001600160a01b0384811660008181526003602081815260408084208054600284528286209086528352908420805473ffffffffffffffffffffffffffffffffffffffff1916968a169690961786556001958601889055939092529052805490910190555b50505050565b600080805b6001600160a01b0386166000908152600360205260409020548110156115a3576001600160a01b0386811660009081526002602090815260408083208584529091529020548116908616141561159b576001600160a01b03861660009081526002602090815260408083208484529091529020600101548411156115925760405162461bcd60e51b815260040161027c90611bc5565b600191506115a3565b6001016114fc565b50949350505050565b60006001815b6001600160a01b0386166000908152600360205260409020548110156115a3576001600160a01b0386811660009081526002602090815260408083208584529091529020548116908616141561167d576001600160a01b038616600090815260026020908152604080832084845290915281206001015490925084111561164b5760405162461bcd60e51b815260040161027c90611ced565b6001600160a01b03861660009081526002602090815260408083208484529091529020600101805485900390556115a3565b6001016115b2565b60006001815b6001600160a01b0386166000908152600360205260409020548110156115a3576001600160a01b0386811660009081526002602090815260408083208584529091529020548116908616141561170e576001600160a01b0386166000908152600260209081526040808320848452909152812060010180548601905591506115a3565b60010161168b565b600060208284031215611727578081fd5b813561173281611e03565b9392505050565b60006020828403121561174a578081fd5b815161173281611e03565b600080600060608486031215611769578182fd5b833561177481611e03565b9250602084013561178481611e03565b929592945050506040919091013590565b600080604083850312156117a7578182fd5b82356117b281611e03565b946020939093013593505050565b600080602083850312156117d2578182fd5b823567ffffffffffffffff808211156117e9578384fd5b818501915085601f8301126117fc578384fd5b81358181111561180a578485fd5b866020808302850101111561181d578485fd5b60209290920196919550909350505050565b600060208284031215611840578081fd5b81518015158114611732578182fd5b600060208284031215611860578081fd5b813561173281611e1b565b60006020828403121561187c578081fd5b813562ffffff81168114611732578182fd5b60006020828403121561189f578081fd5b5035919050565b6000602082840312156118b7578081fd5b5051919050565b600081516080845280518060808601526118df8160a0870160208501611dd7565b6020848101516001600160a01b03169086015260408085015190860152606093840151938501939093525050601f01601f19160160a00190565b6001600160a01b0380825116835280602083015116602084015262ffffff60408301511660408401528060608301511660608401526080820151608084015260a082015160a08401528060c08301511660c0840152505050565b60008251611985818460208701611dd7565b9190910192915050565b6001600160a01b0391909116815260200190565b6001600160a01b039384168152919092166020820152604081019190915260600190565b6001600160a01b0394851681529290931660208301526040820152606081019190915260800190565b6001600160a01b03929092168252602082015260400190565b60208082526032908201527f58585846756e64207377617045786163744f757470757453696e676c653a206e60408201527f6f742077686974656c69737420746f6b656e0000000000000000000000000000606082015260800190565b60208082526037908201527f75706461746553776170496e666f3a20496e76616c696420696e766573746f7260408201527f20746f6b656e20776974686472617720617474656d7074000000000000000000606082015260800190565b6020808252601f908201527f73776170526f757465723a20696e76616c696420696e707574416d6f756e7400604082015260600190565b6020808252601d908201527f58585846756e6420696e697469616c697a653a20464f5242494444454e000000604082015260600190565b6020808252601a908201527f73776170526f757465723a20696e76616c69642073656e646572000000000000604082015260600190565b60208082526027908201527f58585846756e6420696e697469616c697a653a206e6f742077686974656c697360408201527f7420746f6b656e00000000000000000000000000000000000000000000000000606082015260800190565b60208082526027908201527f77697468647261773a20496e76616c696420776974686472617720746f6b656e60408201527f20616d6f756e7400000000000000000000000000000000000000000000000000606082015260800190565b6020808252601e908201527f77697468647261773a20696e76616c696420746f6b656e20616d6f756e740000604082015260600190565b6020808252600f908201527f58585846756e643a204c4f434b45440000000000000000000000000000000000604082015260600190565b60208082526022908201527f75706461746553776170496e666f3a20696e76616c69642073776170526f757460408201527f6572000000000000000000000000000000000000000000000000000000000000606082015260800190565b602080825260409082018190527f6465637265617365546f6b656e416d6f756e743a20646563726561736520746f908201527f6b656e20616d6f756e74206973206d6f7265207468616e20796f752068617665606082015260800190565b60006020825261173260208301846118be565b60e08101610e338284611919565b90815260200190565b6000808335601e19843603018112611d8b578283fd5b83018035915067ffffffffffffffff821115611da5578283fd5b602001915036819003821315611dba57600080fd5b9250929050565b6000823561019e19833603018112611985578182fd5b60005b83811015611df2578181015183820152602001611dda565b838111156114f15750506000910152565b6001600160a01b0381168114611e1857600080fd5b50565b60028110611e1857600080fdfea2646970667358221220dd2e51c2e81182ab398d8e1e0bf6b30e5a9ea3c9b175e1fcfc8c3182d1cfc25064736f6c63430007060033",
  "linkReferences": {},
  "deployedLinkReferences": {}
}