{
  "_format": "hh-sol-artifact-1",
  "contractName": "XXXFund",
  "sourceName": "contracts/XXXFund.sol",
  "abi": [
    {
      "inputs": [],
      "stateMutability": "nonpayable",
      "type": "constructor"
    },
    {
      "anonymous": false,
      "inputs": [
        {
          "indexed": true,
          "internalType": "address",
          "name": "investor",
          "type": "address"
        },
        {
          "indexed": false,
          "internalType": "address",
          "name": "_token",
          "type": "address"
        },
        {
          "indexed": false,
          "internalType": "uint256",
          "name": "_amount",
          "type": "uint256"
        }
      ],
      "name": "Deposit",
      "type": "event"
    },
    {
      "anonymous": false,
      "inputs": [
        {
          "indexed": true,
          "internalType": "address",
          "name": "manager",
          "type": "address"
        },
        {
          "indexed": false,
          "internalType": "address",
          "name": "tokenIn",
          "type": "address"
        },
        {
          "indexed": false,
          "internalType": "address",
          "name": "tokenOut",
          "type": "address"
        },
        {
          "indexed": false,
          "internalType": "uint256",
          "name": "amountIn",
          "type": "uint256"
        },
        {
          "indexed": false,
          "internalType": "uint256",
          "name": "amountOut",
          "type": "uint256"
        }
      ],
      "name": "Swap",
      "type": "event"
    },
    {
      "anonymous": false,
      "inputs": [
        {
          "indexed": true,
          "internalType": "address",
          "name": "investor",
          "type": "address"
        },
        {
          "indexed": false,
          "internalType": "address",
          "name": "_token",
          "type": "address"
        },
        {
          "indexed": false,
          "internalType": "uint256",
          "name": "_amount",
          "type": "uint256"
        }
      ],
      "name": "Withdraw",
      "type": "event"
    },
    {
      "inputs": [
        {
          "internalType": "address",
          "name": "investor",
          "type": "address"
        },
        {
          "internalType": "address",
          "name": "_token",
          "type": "address"
        },
        {
          "internalType": "uint256",
          "name": "_amount",
          "type": "uint256"
        }
      ],
      "name": "deposit",
      "outputs": [],
      "stateMutability": "nonpayable",
      "type": "function"
    },
    {
      "inputs": [],
      "name": "factory",
      "outputs": [
        {
          "internalType": "address",
          "name": "",
          "type": "address"
        }
      ],
      "stateMutability": "view",
      "type": "function"
    },
    {
      "inputs": [
        {
          "internalType": "address",
          "name": "_manager",
          "type": "address"
        }
      ],
      "name": "initialize",
      "outputs": [],
      "stateMutability": "nonpayable",
      "type": "function"
    },
    {
      "inputs": [
        {
          "internalType": "address",
          "name": "",
          "type": "address"
        }
      ],
      "name": "investorTokenCount",
      "outputs": [
        {
          "internalType": "uint256",
          "name": "",
          "type": "uint256"
        }
      ],
      "stateMutability": "view",
      "type": "function"
    },
    {
      "inputs": [
        {
          "internalType": "address",
          "name": "",
          "type": "address"
        },
        {
          "internalType": "uint256",
          "name": "",
          "type": "uint256"
        }
      ],
      "name": "investorTokens",
      "outputs": [
        {
          "internalType": "address",
          "name": "tokenAddress",
          "type": "address"
        },
        {
          "internalType": "uint256",
          "name": "amount",
          "type": "uint256"
        }
      ],
      "stateMutability": "view",
      "type": "function"
    },
    {
      "inputs": [],
      "name": "manager",
      "outputs": [
        {
          "internalType": "address",
          "name": "",
          "type": "address"
        }
      ],
      "stateMutability": "view",
      "type": "function"
    },
    {
      "inputs": [],
      "name": "rewardTokenCount",
      "outputs": [
        {
          "internalType": "uint256",
          "name": "",
          "type": "uint256"
        }
      ],
      "stateMutability": "view",
      "type": "function"
    },
    {
      "inputs": [
        {
          "internalType": "uint256",
          "name": "",
          "type": "uint256"
        }
      ],
      "name": "rewardTokens",
      "outputs": [
        {
          "internalType": "address",
          "name": "tokenAddress",
          "type": "address"
        },
        {
          "internalType": "uint256",
          "name": "amount",
          "type": "uint256"
        }
      ],
      "stateMutability": "view",
      "type": "function"
    },
    {
      "inputs": [
        {
          "components": [
            {
              "internalType": "enum IXXXFund.V3TradeType",
              "name": "tradeType",
              "type": "uint8"
            },
            {
              "internalType": "enum IXXXFund.V3SwapType",
              "name": "swapType",
              "type": "uint8"
            },
            {
              "internalType": "address",
              "name": "investor",
              "type": "address"
            },
            {
              "internalType": "address",
              "name": "tokenIn",
              "type": "address"
            },
            {
              "internalType": "address",
              "name": "tokenOut",
              "type": "address"
            },
            {
              "internalType": "address",
              "name": "recipient",
              "type": "address"
            },
            {
              "internalType": "uint24",
              "name": "fee",
              "type": "uint24"
            },
            {
              "internalType": "uint256",
              "name": "amountIn",
              "type": "uint256"
            },
            {
              "internalType": "uint256",
              "name": "amountOut",
              "type": "uint256"
            },
            {
              "internalType": "uint256",
              "name": "amountInMaximum",
              "type": "uint256"
            },
            {
              "internalType": "uint256",
              "name": "amountOutMinimum",
              "type": "uint256"
            },
            {
              "internalType": "uint160",
              "name": "sqrtPriceLimitX96",
              "type": "uint160"
            },
            {
              "internalType": "bytes",
              "name": "path",
              "type": "bytes"
            }
          ],
          "internalType": "struct IXXXFund.V3TradeParams[]",
          "name": "trades",
          "type": "tuple[]"
        }
      ],
      "name": "swap",
      "outputs": [
        {
          "internalType": "uint256",
          "name": "",
          "type": "uint256"
        }
      ],
      "stateMutability": "payable",
      "type": "function"
    },
    {
      "inputs": [
        {
          "internalType": "address",
          "name": "investor",
          "type": "address"
        },
        {
          "internalType": "address",
          "name": "_token",
          "type": "address"
        },
        {
          "internalType": "uint256",
          "name": "_amount",
          "type": "uint256"
        }
      ],
      "name": "withdraw",
      "outputs": [],
      "stateMutability": "nonpayable",
      "type": "function"
    }
  ],
  "bytecode": "0x60806040526000600555600160065534801561001a57600080fd5b50600080546001600160a01b03191633179055611e278061003c6000396000f3fe6080604052600436106100b15760003560e01c8063abb06b9511610069578063c45a01551161004e578063c45a0155146101a6578063c4d66de8146101bb578063d9caed12146101db576100b1565b8063abb06b9514610171578063bc40f3bf14610186576100b1565b806350ac1dd91161009a57806350ac1dd91461010e5780637bb7bed1146101215780638340f5491461014f576100b1565b806318324c11146100b6578063481c6a75146100ec575b600080fd5b3480156100c257600080fd5b506100d66100d13660046116df565b6101fb565b6040516100e39190611d35565b60405180910390f35b3480156100f857600080fd5b5061010161020d565b6040516100e39190611958565b6100d661011c366004611789565b61021c565b34801561012d57600080fd5b5061014161013c366004611857565b610e4e565b6040516100e39291906119b9565b34801561015b57600080fd5b5061016f61016a36600461171e565b610e73565b005b34801561017d57600080fd5b506100d661105a565b34801561019257600080fd5b506101416101a136600461175e565b611060565b3480156101b257600080fd5b50610101611090565b3480156101c757600080fd5b5061016f6101d63660046116df565b61109f565b3480156101e757600080fd5b5061016f6101f636600461171e565b6110f8565b60036020526000908152604090205481565b6001546001600160a01b031681565b6000808383600081811061022c57fe5b905060200281019061023e9190611d8a565b61024f9060608101906040016116df565b6001549091506001600160a01b031633146102855760405162461bcd60e51b815260040161027c90611afa565b60405180910390fd5b600080546001600160a01b03169063e3d8b3f69086908690816102a457fe5b90506020028101906102b69190611d8a565b6102c79060a08101906080016116df565b6040518263ffffffff1660e01b81526004016102e39190611958565b602060405180830381600087803b1580156102fd57600080fd5b505af1158015610311573d6000803e3d6000fd5b505050506040513d601f19601f8201168201806040525081019061033591906117f8565b6103515760405162461bcd60e51b815260040161027c906119d2565b60008060009054906101000a90046001600160a01b03166001600160a01b031663f5c8ba936040518163ffffffff1660e01b8152600401602060405180830381600087803b1580156103a257600080fd5b505af11580156103b6573d6000803e3d6000fd5b505050506040513d601f19601f820116820180604052508101906103da9190611702565b9050848460008181106103e957fe5b90506020028101906103fb9190611d8a565b61040c9060808101906060016116df565b6001600160a01b03167f095ea7b30000000000000000000000000000000000000000000000000000000082878760008161044257fe5b90506020028101906104549190611d8a565b610120013560405160240161046a9291906119b9565b60408051601f198184030181529181526020820180517bffffffffffffffffffffffffffffffffffffffffffffffffffffffff167fffffffff000000000000000000000000000000000000000000000000000000009094169390931790925290516104d5919061193c565b6000604051808303816000865af19150503d8060008114610512576040519150601f19603f3d011682016040523d82523d6000602084013e610517565b606091505b5050506000610555838787600081811061052d57fe5b905060200281019061053f9190611d8a565b6105509060808101906060016116df565b611235565b90506000805b868110156105925787878281811061056f57fe5b90506020028101906105819190611d8a565b60e00135919091019060010161055b565b508082116105b25760405162461bcd60e51b815260040161027c90611a8c565b60008060005b88811015610e3c5760008a8a838181106105ce57fe5b90506020028101906105e09190611d8a565b6105f1906040810190602001611818565b60018111156105fc57fe5b14156109ea5760008a8a8381811061061057fe5b90506020028101906106229190611d8a565b610630906020810190611818565b600181111561063b57fe5b14156108075760006040518060e001604052808c8c8581811061065a57fe5b905060200281019061066c9190611d8a565b61067d9060808101906060016116df565b6001600160a01b031681526020018c8c8581811061069757fe5b90506020028101906106a99190611d8a565b6106ba9060a08101906080016116df565b6001600160a01b031681526020018c8c858181106106d457fe5b90506020028101906106e69190611d8a565b6106f79060e081019060c001611834565b62ffffff1681523360208201526040018c8c8581811061071357fe5b90506020028101906107259190611d8a565b60e0013581526020018c8c8581811061073a57fe5b905060200281019061074c9190611d8a565b61014001358152600060209091015290508a8a8381811061076957fe5b905060200281019061077b9190611d8a565b60e001359350866001600160a01b03166304e45aaf826040518263ffffffff1660e01b81526004016107ad9190611d27565b602060405180830381600087803b1580156107c757600080fd5b505af11580156107db573d6000803e3d6000fd5b505050506040513d601f19601f820116820180604052508101906107ff919061186f565b9250506109e5565b60006040518060e001604052808c8c8581811061082057fe5b90506020028101906108329190611d8a565b6108439060808101906060016116df565b6001600160a01b031681526020018c8c8581811061085d57fe5b905060200281019061086f9190611d8a565b6108809060a08101906080016116df565b6001600160a01b031681526020018c8c8581811061089a57fe5b90506020028101906108ac9190611d8a565b6108bd9060e081019060c001611834565b62ffffff1681523360208201526040018c8c858181106108d957fe5b90506020028101906108eb9190611d8a565b610100013581526020018c8c8581811061090157fe5b90506020028101906109139190611d8a565b6101200135815260006020909101526040517f5023b4df0000000000000000000000000000000000000000000000000000000081529091506001600160a01b03881690635023b4df9061096a908490600401611d27565b602060405180830381600087803b15801561098457600080fd5b505af1158015610998573d6000803e3d6000fd5b505050506040513d601f19601f820116820180604052508101906109bc919061186f565b93508a8a838181106109ca57fe5b90506020028101906109dc9190611d8a565b61010001359250505b610d24565b60008a8a838181106109f857fe5b9050602002810190610a0a9190611d8a565b610a18906020810190611818565b6001811115610a2357fe5b1415610b9b57600060405180608001604052808c8c85818110610a4257fe5b9050602002810190610a549190611d8a565b610a6390610180810190611d3e565b8080601f0160208091040260200160405190810160405280939291908181526020018383808284376000920191909152505050908252503360208201526040018c8c85818110610aaf57fe5b9050602002810190610ac19190611d8a565b60e0013581526020018c8c85818110610ad657fe5b9050602002810190610ae89190611d8a565b6101000135905290508a8a83818110610afd57fe5b9050602002810190610b0f9190611d8a565b60e001359350866001600160a01b031663b858183f826040518263ffffffff1660e01b8152600401610b419190611d14565b602060405180830381600087803b158015610b5b57600080fd5b505af1158015610b6f573d6000803e3d6000fd5b505050506040513d601f19601f82011682018060405250810190610b93919061186f565b925050610d24565b600060405180608001604052808c8c85818110610bb457fe5b9050602002810190610bc69190611d8a565b610bd590610180810190611d3e565b8080601f0160208091040260200160405190810160405280939291908181526020018383808284376000920191909152505050908252503360208201526040018c8c85818110610c2157fe5b9050602002810190610c339190611d8a565b610100013581526020018c8c85818110610c4957fe5b9050602002810190610c5b9190611d8a565b60e0013590526040517f09b813460000000000000000000000000000000000000000000000000000000081529091506001600160a01b038816906309b8134690610ca9908490600401611d14565b602060405180830381600087803b158015610cc357600080fd5b505af1158015610cd7573d6000803e3d6000fd5b505050506040513d601f19601f82011682018060405250810190610cfb919061186f565b93508a8a83818110610d0957fe5b9050602002810190610d1b9190611d8a565b61010001359250505b610d8f878b8b6000818110610d3557fe5b9050602002810190610d479190611d8a565b610d589060808101906060016116df565b8c8c6000818110610d6557fe5b9050602002810190610d779190611d8a565b610d889060a08101906080016116df565b86866112c8565b866001600160a01b03167fcd3829a3813dc3cdd188fd3d01dcf3268c16be2fdd2dd21d0665418816e460628b8b6000818110610dc757fe5b9050602002810190610dd99190611d8a565b610dea9060808101906060016116df565b8c8c6000818110610df757fe5b9050602002810190610e099190611d8a565b610e1a9060a08101906080016116df565b8686604051610e2c9493929190611990565b60405180910390a26001016105b8565b50600196505050505050505b92915050565b600460205260009081526040902080546001909101546001600160a01b039091169082565b600654600114610e955760405162461bcd60e51b815260040161027c90611c22565b6000600655336001600160a01b03841614610eaf57600080fd5b6000546040517fe3d8b3f60000000000000000000000000000000000000000000000000000000081526001600160a01b039091169063e3d8b3f690610ef8908590600401611958565b602060405180830381600087803b158015610f1257600080fd5b505af1158015610f26573d6000803e3d6000fd5b505050506040513d601f19601f82011682018060405250810190610f4a91906117f8565b610f665760405162461bcd60e51b815260040161027c90611b31565b6040517f23b872dd0000000000000000000000000000000000000000000000000000000081526001600160a01b038316906323b872dd90610faf9086903090869060040161196c565b602060405180830381600087803b158015610fc957600080fd5b505af1158015610fdd573d6000803e3d6000fd5b505050506040513d601f19601f8201168201806040525081019061100191906117f8565b5061100d838383611440565b826001600160a01b03167f5548c837ab068cf56a2c2479df0882a4922fd203edb7517321831d95078c5f6283836040516110489291906119b9565b60405180910390a25050600160065550565b60055481565b6002602090815260009283526040808420909152908252902080546001909101546001600160a01b039091169082565b6000546001600160a01b031681565b6000546001600160a01b031633146110c95760405162461bcd60e51b815260040161027c90611ac3565b6001805473ffffffffffffffffffffffffffffffffffffffff19166001600160a01b0392909216919091179055565b60065460011461111a5760405162461bcd60e51b815260040161027c90611c22565b6000600655336001600160a01b0384161461113457600080fd5b61113f8383836114c0565b15156001146111605760405162461bcd60e51b815260040161027c90611beb565b6040517fa9059cbb0000000000000000000000000000000000000000000000000000000081526001600160a01b0383169063a9059cbb906111a790869085906004016119b9565b602060405180830381600087803b1580156111c157600080fd5b505af11580156111d5573d6000803e3d6000fd5b505050506040513d601f19601f820116820180604052508101906111f991906117f8565b50826001600160a01b03167f9b1bfa7fa9ee420a16e124f794c35ac9f90472acc99140eb2f6447c714cad8eb83836040516110489291906119b9565b6000805b6001600160a01b0384166000908152600360205260409020548110156112be576001600160a01b038481166000908152600260209081526040808320858452909152902054811690841614156112b6576001600160a01b038416600090815260026020908152604080832093835292905220600101549050610e48565b600101611239565b5060009392505050565b6000546040517fb42c1d400000000000000000000000000000000000000000000000000000000081526001600160a01b039091169063b42c1d4090611311903390600401611958565b602060405180830381600087803b15801561132b57600080fd5b505af115801561133f573d6000803e3d6000fd5b505050506040513d601f19601f820116820180604052508101906113639190611702565b6001600160a01b0316306001600160a01b0316146113935760405162461bcd60e51b815260040161027c90611c59565b60006113a0868685611575565b905080156113c05760405162461bcd60e51b815260040161027c90611a2f565b6113cb86858461164e565b90508015611438576001600160a01b0386811660008181526003602081815260408084208054600284528286209086528352908420805473ffffffffffffffffffffffffffffffffffffffff1916968b169690961786556001958601889055939092529052805490910190555b505050505050565b600061144d84848461164e565b905080156114ba576001600160a01b0384811660008181526003602081815260408084208054600284528286209086528352908420805473ffffffffffffffffffffffffffffffffffffffff1916968a169690961786556001958601889055939092529052805490910190555b50505050565b600080805b6001600160a01b03861660009081526003602052604090205481101561156c576001600160a01b03868116600090815260026020908152604080832085845290915290205481169086161415611564576001600160a01b038616600090815260026020908152604080832084845290915290206001015484111561155b5760405162461bcd60e51b815260040161027c90611b8e565b6001915061156c565b6001016114c5565b50949350505050565b60006001815b6001600160a01b03861660009081526003602052604090205481101561156c576001600160a01b03868116600090815260026020908152604080832085845290915290205481169086161415611646576001600160a01b03861660009081526002602090815260408083208484529091528120600101549092508411156116145760405162461bcd60e51b815260040161027c90611cb6565b6001600160a01b038616600090815260026020908152604080832084845290915290206001018054859003905561156c565b60010161157b565b60006001815b6001600160a01b03861660009081526003602052604090205481101561156c576001600160a01b038681166000908152600260209081526040808320858452909152902054811690861614156116d7576001600160a01b03861660009081526002602090815260408083208484529091528120600101805486019055915061156c565b600101611654565b6000602082840312156116f0578081fd5b81356116fb81611dcc565b9392505050565b600060208284031215611713578081fd5b81516116fb81611dcc565b600080600060608486031215611732578182fd5b833561173d81611dcc565b9250602084013561174d81611dcc565b929592945050506040919091013590565b60008060408385031215611770578182fd5b823561177b81611dcc565b946020939093013593505050565b6000806020838503121561179b578182fd5b823567ffffffffffffffff808211156117b2578384fd5b818501915085601f8301126117c5578384fd5b8135818111156117d3578485fd5b86602080830285010111156117e6578485fd5b60209290920196919550909350505050565b600060208284031215611809578081fd5b815180151581146116fb578182fd5b600060208284031215611829578081fd5b81356116fb81611de4565b600060208284031215611845578081fd5b813562ffffff811681146116fb578182fd5b600060208284031215611868578081fd5b5035919050565b600060208284031215611880578081fd5b5051919050565b600081516080845280518060808601526118a88160a0870160208501611da0565b6020848101516001600160a01b03169086015260408085015190860152606093840151938501939093525050601f01601f19160160a00190565b6001600160a01b0380825116835280602083015116602084015262ffffff60408301511660408401528060608301511660608401526080820151608084015260a082015160a08401528060c08301511660c0840152505050565b6000825161194e818460208701611da0565b9190910192915050565b6001600160a01b0391909116815260200190565b6001600160a01b039384168152919092166020820152604081019190915260600190565b6001600160a01b0394851681529290931660208301526040820152606081019190915260800190565b6001600160a01b03929092168252602082015260400190565b60208082526032908201527f58585846756e64207377617045786163744f757470757453696e676c653a206e60408201527f6f742077686974656c69737420746f6b656e0000000000000000000000000000606082015260800190565b60208082526037908201527f75706461746553776170496e666f3a20496e76616c696420696e766573746f7260408201527f20746f6b656e20776974686472617720617474656d7074000000000000000000606082015260800190565b6020808252601f908201527f73776170526f757465723a20696e76616c696420696e707574416d6f756e7400604082015260600190565b6020808252601d908201527f58585846756e6420696e697469616c697a653a20464f5242494444454e000000604082015260600190565b6020808252601a908201527f73776170526f757465723a20696e76616c69642073656e646572000000000000604082015260600190565b60208082526027908201527f58585846756e6420696e697469616c697a653a206e6f742077686974656c697360408201527f7420746f6b656e00000000000000000000000000000000000000000000000000606082015260800190565b60208082526027908201527f77697468647261773a20496e76616c696420776974686472617720746f6b656e60408201527f20616d6f756e7400000000000000000000000000000000000000000000000000606082015260800190565b6020808252601e908201527f77697468647261773a20696e76616c696420746f6b656e20616d6f756e740000604082015260600190565b6020808252600f908201527f58585846756e643a204c4f434b45440000000000000000000000000000000000604082015260600190565b60208082526022908201527f75706461746553776170496e666f3a20696e76616c69642073776170526f757460408201527f6572000000000000000000000000000000000000000000000000000000000000606082015260800190565b602080825260409082018190527f6465637265617365546f6b656e416d6f756e743a20646563726561736520746f908201527f6b656e20616d6f756e74206973206d6f7265207468616e20796f752068617665606082015260800190565b6000602082526116fb6020830184611887565b60e08101610e4882846118e2565b90815260200190565b6000808335601e19843603018112611d54578283fd5b83018035915067ffffffffffffffff821115611d6e578283fd5b602001915036819003821315611d8357600080fd5b9250929050565b6000823561019e1983360301811261194e578182fd5b60005b83811015611dbb578181015183820152602001611da3565b838111156114ba5750506000910152565b6001600160a01b0381168114611de157600080fd5b50565b60028110611de157600080fdfea2646970667358221220b5f0d20a661477c1b9de4bec9783b8f7e8d63c64a63af63399ddc34efb95c2b164736f6c63430007060033",
  "linkReferences": {},
  "deployedLinkReferences": {}
}